EA40015EA615-Oct-19612                    212100  5                                                     1 400101100000                    1                                        33BST15-Jan-1994
EA40056EA615-Mar-19652                    210000  7                             1                       1 300000100001SSS FOR MOTHER      0                                        02ADS15-Jul-1993
EA40091EA615-Jun-19562                    211010  4                                                     1 400001100000                    4METHODIST                               22ADS15-Sep-1993
EA40129EA615-Aug-19452                    2 9010  4                                                     3 400001110000                    0                                        12ADS15-Nov-1993
EA40141EA615-May-19682                    211000  5                                                     4 500000100000                    0                                        32ADS15-Sep-1994
EA40157EA615-Aug-19692                    211000  8                             1                    06 4 300000100000                    0                                        01BST15-Sep-1993
EA40190EA615-Jun-19702                    211010  5                                                     1 300000100000                    4BAPTIST                                 12BST15-Apr-1994
EA40235EA615-Jun-19712                    211000  4                                                     1 300000100000                    0                                        03DNG15-Jul-1995
EA40247EA615-Jul-19632                    212210  7                                                       300001110000                    4BAPTIST                                 43ADS15-Nov-1993
EA40251EA615-Sep-19712                    211000  1                    05                               3 410000000000                    0                                        12ADS15-Oct-1993
EA40304EA615-Apr-19742                    212100  5                                                     1 201001100000                    4BAPTIST                                 43ADS15-Mar-1995
EA40312EA615-Apr-19722                    2 9000  4                                                     1 110000000000                    4BAPTIST                                 23BST15-Jul-1994
EA40345EA615-Apr-19662                    210010  2                    0112010  1                    01 3 611000100000                    4METHODIST                               13ADS15-Jul-1994
EA40353EA615-Feb-19702                    2 9000  2                    02                               1 210000100000                    4BAPTIST                                 43ADS15-Feb-1995
EA40401EA615-Aug-19622                    1110110 7                             5                       2 500000100000                    6                    HOLINESS            53H D15-Aug-1993
EA40414EA615-Aug-19682                    2110011 9                      11200  1                    03 2 401000100001FOODSTAMPS          5                                        23ADS15-Mar-1994
EA40422EA615-Jan-19612                    211000  4                                                     2 200000100000                    4BAPTIST                                 12NJF15-May-1995
EA40436EA615-Jan-19602                    210000  5                                                     2 610000100000                    4BAPTIST                                 12ADS15-Jan-1994
EA40450EA615-Oct-19652                    214 00  1                    0512100  1                    02 9 411000000000                    4BAPTIST                                 02NFM15-Jul-1994
EA40469EA615-Jan-19611                    3 7000  5                                                     21100000100000                    4PENTECOSTAL                             03DNG15-Jun-1995
EA40497EA615-Mar-19702                    2100110 4                                                     1 410001100000                    0                                        22ADS15-Jan-1995
EA40526EA615-Sep-19572                    111000  5                      12100  2                    03 5 301000000010                    4HOLINESS                                02LMM15-Nov-1994
EA40560EA615-May-19632                    210000  4                                                     2 400000110000                    4BAPTIST                                 23LMM15-Nov-1994
EA40593EA615-Apr-19722                    212100  5                      11000  1                    03 2 301001100000                    0                                        01LMM15-Nov-1994
EA40606EA615-Sep-19682                    2121211 2                    0012110  1                    04 2 211001100000                    5                                        43LMM15-Sep-1994
EA40619EA615-Jul-19602                    4 9010  7                                                     3 300000010000                    4DAD NOT SURE                            43BAR15-Jan-1995
EA40627EA615-Dec-19472                    4 6010  7                                                     2 500000110000                    4BAPTIST                                 33BST15-Feb-1995
EA40631EA615-Aug-19642                    211010  5                      10010  2                    01 2 600000100000                    0                                        13ADS15-Nov-1993
EA40643EA615-Apr-19702                    1 7010  4                      12200  1                    04   511000100000                    5                                        23JRB15-May-1996
EA40664EA615-Jun-19552                    112100  1                    0612120  1                    0411 611000100000                    5                                        43BST15-Nov-1994
EA40670EA615-Jun-19562                    110000  5                      121 0  7                       1 300000100000                    1                                        12NJF15-Mar-1995
EA40724EA615-Nov-19712                    210010  4                                                     2 300000100000                    0                                        12DNG15-Feb-1996
EA40739EA615-Jan-19722                    211000  1                    02 7001010INCARCERATED           2 510000100000                    5                                        03JRB15-Oct-1995
EA40746EA615-Nov-19652                    212100  5                      100000 5                       2 200000010000                    0                                        03ADS15-Dec-1994
EA40752EA615-Nov-19702                    211000  3                    01                               2 410000100000                    0                                        02DNG15-May-1995
EA40767EA615-Jan-19722                    1 90110 4                                                     1 400100100000                    4BAPTIST                                 12DNG15-May-1995
EA40778EA615-Mar-19562                    312100 10IN REHAB. PROGRAM                                    2 400000100001SSI FOR HER SON     4BAPTIST                                 23BST15-Jun-1994
EA40780EA615-Sep-19671                    2 9000  5                                                     3 300000000101SOCIAL SECURITY 2KID6                    METHODIST           01NLG15-Oct-1995
EA40795EA615-Sep-19702                    212110  2                    02                               2 310000000001FOODSTAMPS          0                                        13ADS15-Mar-1995
EA40800EA615-Mar-19662                    2 9000  8                        000                          1 200010000000                    0                                        01ADS15-May-1994
EA40813EA615-Jun-19682                    212200  7                                                     2 500000100000                    0                                        01NFM15-Jun-1994
EA40837EA615-Sep-19692                    212100  5                                                     3 900001110000                    4BAPTIST                                 23BST15-Aug-1995
EA40849EA615-Jan-19632                    214 10  5                                                     1 200001100001FOOD STAMPS         5                                        02DNG15-Mar-1996
EA40865EA615-Jun-19692                    211000  2                    05                               2 411000100000                    4BAPTIST                                 42DNG15-Apr-1996
EA40909EA615-Mar-19682                    113 010 2                    0512100  1                    02 3 411000100000                    4BAPTIST                                 33JRB15-Jan-1996
EA40917EA615-Feb-19692                    212100  8                                                     1 400000100000                    4BAPTIST                                 12BEB15-Oct-1996
EA40925EA615-May-19662                    114  10 9                       9000  7                       2 500000110000                    4BAPTIST                                 23MMB15-Aug-1995
EA40940EA615-Feb-19782                    211000  5                                                     2 700000100000                    4METHODIST                               33CET15-Feb-1997
EA40958EA615-Jul-19681                    210000  4                                                     1 500000110000                    4BAPTIST                                 22JRB15-Jun-1996
EA40986EA615-Jan-19362                    311000  1                    02                               2 310000000000                    1                                        53CET15-Aug-1997
EA40994EA615-Nov-19672                    111000  5                      12110  1                    02 5 501000000000                    6                    DONT KNOW           22JBH15-Mar-1996
EA41002EA615-Apr-19612                    113 00  1                    0212100  3                    02 4 411000000000                    5                                        53BST15-Apr-1996
EA41010EA615-Jan-19672                    214 10  1                    05                               4 310000000000                    4PENTECOSTAL                             43BST15-Dec-1995
EA41047EA615-Jul-19642                    314 210 1                    06                               3 410100000000                    0                                        53MMT15-Sep-1996
EA41068EA615-Dec-19581                    114 20  1                    0716 310 1                    1811 411000010000                    4EPISCOPAL                               22JRB15-Jun-1996
EA41079EA615-Jul-19702                    3121210 4                                                     9 710000000001S.S. SURVIVOR'S BEN.1                                        23BST15-Sep-1996
EA41084EA615-Jun-19692                    413 10  4                                                     1 200000100000                    6                    HOLY                12BEB15-Dec-1995
EA41096EA615-Nov-19532                    314 20  4                                                     1 200000100000                    0                                        01ADS15-Mar-1995
EA41103EA615-Aug-19342                    1 8000  6                       8000  7                       2 300000010000                    4BAPTIST                                 23DNG15-Mar-1995
EA41124EA615-Jan-19662                    311010  4                                                     1 300000100000                    4BAPTIST                                 23DNG15-May-1996
EA41139EA615-Mar-19642                    212000  5                                                     2 500000100000                    4BAPTIST                                 13BEB15-Nov-1996
EA41152EA615-Nov-19692                    212100  4                                                    10 401000100000                    0                                        02JRB15-Jul-1996
EA41167EA615-Oct-19692                    214 111 3                    0312100  1                    04 5 411000110000                    4BAPTIST                                 41FDP15-Apr-1996
EA41178EA615-Jan-19462                    412210  7                                                     3 300001100000                    5                                        32JRB15-Feb-1996
EA41195EA615-Mar-19621                    1 9000  1                    02       1                    02 4 411000000000                    4METHODIST                               03DNG15-Aug-1996
EA41207EA615-Jul-19691                    1 9000  1                    05 9000  2                    03 4 511000000000                    0                                        03BST15-Aug-1996
EA41215EA615-Dec-19622                    210000  4                                                     3 600000110000                    0                                        12SMB15-Jan-1997
EA41230EA615-Jan-19422                    2 8000  5                                                     3 200000000010                    4BAPTIST                                 43CET15-Apr-1997
EA41242EA615-Apr-19641                    3100010 2                    05                               2 410000100000                    4METHODIST                               33BST15-Sep-1996
EA41274EA615-Jun-19602                    210000 10DON'T WORK NO REASON                                 4 400001110000                    4BAPTIST                                 53JRB15-Feb-1996
EA41289EA615-Apr-19682                    2 8210  1                    0512100  1                    04 9 411000000001MEDICAL ASSISTANCE  4BAPTIST                                 13JAS15-Nov-1996
EA41309EA615-Feb-19651                    112110  2                    01112 0  1                    13 5 611000010000                    4LUTHERAN                                02BEB15-Sep-1996
EA41317EA615-Apr-19601                    212100  1                    0510000  1                    04 2 410000000000                    1                                        22BST15-Jul-1996
EA41325EA615-Jun-19292                    510200  5                       9000  2                    01 2 200000100010                    4BAPTIST                                 13BEB15-Apr-1996
EA41340EA615-Apr-19702                    2 8000  5                                                     3 300000110000                    0                                        22JRB15-Jan-1996
EA41358EA615-Aug-19632                    312110  1                    04                               4 210100000001FOOD STAMPS         0                                        22CET15-Dec-1996
EA41361EA615-Jul-19592                    112100  8                      11000  2                    01 2 601000010000                    4BAPTIST                                 33BEB15-Dec-1996
EA41372EA615-Apr-19702                    2110010 4                                                     1 400000100000                    4BAPTIST                                 03JAS15-Dec-1996
EA41386EA615-Apr-19622                    416 10  4                                                     1 300000100011INFORMAL $$ FROM DAD4BAPTIST                                 23BST15-Jul-1996
EA41394EA615-Feb-19712                    212100  2                    05                               1 210000100000                    0                                        02MPG15-Aug-1997
EA41406EA615-Apr-19572                    212110  5                                                     3 400000110000                    4BAPTIST                                 33DNG15-Aug-1996
EA41419EA615-Dec-19662                    210000  1                    0212100  4                       1 510000100000                    4BAPTIST                                 23MPG15-Jul-1997
EA41427EA6           2                    311010  7                                                     1 400000100000                    4BAPTIST                                 13CET15-Mar-1997
EA41443EA615-May-19182                    2 8000  2                    02                               2  10100000010                    4BAPTIST                                 43MMT15-Feb-1997
EA41455EA615-Jul-19432                    511000  5                                                     2 711001100000                    4BAPTIST                                 53BEB15-Aug-1996
EA43011EA615-Jan-19702                    212110  1                    03                               3 210000000000                    4BAPTIST                                 23ADS15-Feb-1995
EA43024EA615-Apr-19692                    210000  4                                                     1 200000000001SS SURVIVOR BENEFITS6                    HOLINESS            43BST15-May-1995
EA43039EA615-Nov-19612                    212100  1                    03                               2 210000000000                    0                                        03DNG15-Mar-1996
EA43052EA615-Mar-19622                    2110110 1                    0411000  1                    01 1 410101100000                    0                                        13ADS15-Jan-1994
EA43078EA615-Dec-19696                    2 80010 5                      10000  2                     3 3 501000100001FOOD STAMPS         5                                        02ADS15-Apr-1995
EA43095EA615-Aug-19622                    311000  7                                                     4 300000100001FOODSTAMPS          0                                        12ADS15-Mar-1995
EA43104EA615-Feb-19702                    112100  4                      16 30  1                    07 5 401000000000                    5                                        32JRB15-Sep-1995
EA43112EA615-May-19632                    211200  5                             1                    04 1 300000100000                    4BAPTIST                                 13NJF15-Jan-1995
EA43138EA615-Sep-19572                    1 1100  5                      12200  7                       1 400000100000                    5                                        03ADS15-Jun-1994
EA43153EA615-Apr-19692                    111000  5                      12110  1                    05 8 501001100000                    5                                        23ADS15-Dec-1994
EA43166EA615-Feb-19692                    212110  4                                                     1 200000100000                    4BAPTIST                                 22BST15-Jun-1995
EA43177EA615-Oct-19742                    210200  2                    05                               2 310000100000                    0                                        22BEB15-Apr-1996
EA43181EA615-Aug-19712                    2 80010 2                    04                               8 411000000000                    1                                        23JRB15-Jan-1996
EA43206EA615-Nov-19672                    212100  5                                                     2 300000100000                    5                                        53JRB15-Mar-1996
EA43255EA615-Jul-19572                    212100  1                    0612100  2                    02 3 310100000000                    4METHODIST                               23NFM15-May-1994
EA43264EA615-Jul-19622                    212100  5                                                     2 400010100000                    4BAPTIST                                 02DNG15-Sep-1995
EA43270EA615-Aug-19572                    214 20  4                                                     1 200000100000                    4BAPTIST                                 23BEB15-Dec-1995
EA43292EA615-Aug-19702                    114 110 1                    0812100  1                    06 9 411000000000                    4BAPTIST                                 53JRB15-Jul-1995
EA43308EA615-Jul-19702                    2100010 9                                                     1 400000100000                    6                    JEHOVAH'S WITNESS   33NJF15-Feb-1995
EA43357EA615-Mar-19622                    212100  5                                                     2 400000100000                    0                                        12BST15-Jul-1994
EA43373EA615-May-19702                    214 10  9                                                     1 210000100000                    5                                        43NLG15-Sep-1995
EA43390EA615-May-19722                    511000  4                                                     2 300000100001SSI & SS SURVIVOR'SB4BAPTIST                                 23BST15-Jul-1994
EA43426EA615-Feb-19622                    114 00  2                    0513 10  1                    0411 611000010000                    6                    BUDDHISM            22ADS15-Oct-1994
EA43459EA615-Jan-19632                    210000  4                                                     3 500101100001SSI                 5                                        23DNG15-Mar-1995
EA43460EA615-Jan-19692                    212110  5                                                     2 600000100000                    4BAPTIST                                 23ADS15-Aug-1994
EA43522EA615-Nov-19632                    212100  4                      12110  1                    15 4 511000100000                    4BAPTIST                                 13BST15-Mar-1995
EA43548EA615-Aug-19662                    212210  4                                                     2 500000100001FOOD STAMPS         4BAPTIST                                 22NLG15-Mar-1996
EA43550EA615-Oct-19762                    210000  4                      10200  3                    02 1 200100100100                    0                                        22BEB15-Sep-1995
EA43569EA615-May-19532                    2110010 9                      10000  1                    02 2 500000110000                    4BAPTIST                                 22LMM15-Oct-1994
EA43575EA615-Dec-19682                    111000  2                    0212100  1                    06 5 511000000001SSI FOR 1 CHILD     0                                        23ADS15-Apr-1995
EA43583EA615-Mar-19712                    211000  2                    05                               2 210001100000                    5                                        21JRB15-Dec-1995
EA43597EA615-Dec-19682                    112100  4                                                     2 300001110000                    0                                        01SMB15-Dec-1996
EA43610EA615-Oct-19712                    2121110 1                    16                               3 110000000000                    4BAPTIST                                 53CET15-Oct-1996
EA43623EA615-Dec-19712                    211010  1                    02                               4 310000100000                    4BAPTIST                                 03DNG15-Jul-1996
EA43651EA615-Oct-19672                    214 001 1                    06                               4 210000000000                    4BAPTIST                                 53BEB15-Aug-1997
EA43684EA615-Jan-19682                    112010  1                    0212010  1                    1210 511000000000                    5                                        23DNG15-Jun-1996
EA43696EA615-Sep-19662                    2121110 1                    03                               3 300000000000                    4BAPTIST                                 33JRB15-Aug-1996
EA43707EA615-Oct-19682                    112110  1                    1516 30  1                    03 6 311000000000                    5                                        43ADS15-Feb-1995
EA43715EA615-Aug-19602                    212110  3                    1312110  1                    04 7 311000000000                    4BAPTIST                                 33DNG15-Dec-1995
EA43730EA615-Feb-19702                    211010  1                    01                               2 310000000000                    4BAPTIST                                 53DNG15-May-1995
EA43742EA615-Feb-19722                    213 10  2                    03                               2 310000000000                    4BAPTIST                                 21BST15-Apr-1996
EA43756EA615-Apr-19692                    212110  1                    11                               2 210000000000                    4BAPTIST                                 33MPG15-Jul-1997
EA43774EA615-Jan-19652                    311000  4                                                     3 600000100001FOODSTAMPS          4METHODIST                               33ADS15-May-1995
EA43789EA615-Aug-19702                    212000  4                                                     2 501000100010                    4BAPTIST                                 23DNG15-May-1996
EA43791EA615-Jan-19652                    212100  1                    05                               3 310001000000                    5                                        43BEB15-Oct-1995
EA43809EA615-May-19742                    211000  5                      12100  1                    04 5 211000100000                    5                                        43MAK15-Jan-1998
EA43817EA615-Apr-19642                    314 00  5                                                     4 300001100000                    0                                        43JRB15-Dec-1995
EA43825EA615-Nov-19702                    2 90111 1                    0211000  1                    02 2 611100100000                    4BAPTIST                                 23DNG15-Feb-1996
EA43833EA615-Aug-19722                    211000 10NO CHILDCARE                                         1 400000100000                    4BAPTIST                                 13NFM15-Apr-1994
EA43861EA615-May-19702                    212110  1                    1512100  1                    04 6 311001000000                    1                                        03SMB15-Dec-1996
EA43872EA615-May-19742                    2110010 9                      12100  4                       1 300001100010                    0                                        03B B15-Oct-1995
EA43886EA615-Jul-19692                    112100 10COMMUNITY VOLUNTEER   12100  1                    04 6 401000000000                    4BAPTIST                                 23BAR15-Jul-1994
EA43900EA615-Jul-19632                    212110 10JUST MOVED BACK                                      4 510000100000                    4BAPTIST                                 53JRB15-Aug-1995
EA43913EA615-Oct-19702                    212000  4                                                     2 300100100000                    4BAPTIST                                 13NG 15-Jan-1995
EA43921EA615-Sep-19572                    113 00  1                    06       1                    13 6 511000010000                    0                                        12ADS15-Mar-1995
EA43937EA615-Dec-19612                    113 10  1                    0412100  4                       3 511000000000                    6                    HOLINESS PENTICOSTAL53MOC15-Aug-1995
EA43965EA615-May-19742                    2 90010 9                                                     1 300000100000                    0                                        01BEB15-Oct-1996
EA43976EA615-May-19712                    212100  4                                                     1 400100100000                    5                                        33MMT15-Oct-1996
EA43982EA615-Dec-19692                    212110  2                    13   30                          3 410001100000                    4BAPTIST                                 23BST15-May-1995
EA43998EA615-Jan-19572                    413 10  5                                                     1 300000100001FOODSTAMPS          5                                        43ADS15-Jun-1995
EA44009EA615-Sep-19652                    212100  1                    0212200  1                    0  3 210000000001FOOD STAMPS         0                                        11JRB15-Nov-1995
EA44017EA615-Jul-19622                    3 9200  1                    13                               5 410000000000                    4BAPTIST                                 03DNG15-May-1995
EA44025EA615-Mar-19752                    212100  7                                                     2 300000100000                    4APOSTOLIC                               53CET15-Oct-1996
EA44033EA615-Aug-19742                    211000  1                    0311000  1                    04 7 411000100000                    4BAPTIST                                 02DNG15-Jul-1996
EA44058EA615-Oct-19652                    212100  5                                                     2 300000100001SSI                 4BAPTIST                                 23ADS15-Aug-1994
EA44061EA615-Jul-19492                    312110  1                    11                               6 610000100000                    4BAPTIST                                 43JRB15-May-1996
EA44072EA615-Jun-19702                    412110  1                    0212100                          4 411001100000                    0                                        03JRB15-Jul-1996
EA44086EA615-Feb-19692                    212110  1                    03                               4 210000000000                    0                                        01FDP15-Apr-1996
EA44094EA615-May-19732                    212000  1                    04                               3 411100000000                    4BAPTIST                                 22DNG15-Jun-1996
EA44126EA615-May-19622                    1102111 5                      10010  1                    03 2 701001000000                    4HOLINESS                                53JRB15-Feb-1996
EA44144EA615-Jan-19361                    1 8000  5                       8000  6                       3 500000110000                    4                                        03DNG15-Jan-1996
EA44159EA615-Aug-19692                    112100  5                      12100  1                    11   501000000000                    0                                        12MOC15-Aug-1995
EA44160EA615-Apr-19642                    212210  4                      12110  1                    03 2 400000100000                    6                    HOLYNESS            22JRB15-Feb-1996
EA44171EA615-Apr-19532                    211000  5                                                     4 300000100000                    4BAPTIST                                 01JRB15-Jun-1996
EA44187EA615-Aug-19572                    212110  5                                                     2 400000100000                    4BAPTIST                                 33MMT15-Dec-1996
EA44200EA615-Sep-19782                    2100011 9                                                     81301000100000                    0                                        21JRB15-Oct-1995
EA44213EA615-Jul-19492                    410010  5                                                     2 400000100000                    1                                        43JRB15-Aug-1995
EA44221EA615-Oct-19672                    212100  5                                                     1 400000100000                    4BAPTIST                                 01JRB15-Jul-1996
EA44237EA615-Jan-19672                    212100  5                                                     1 300000100000                    1                                        42CET15-Apr-1997
EA44254EA615-Aug-19692                    211000  5                      12100  1                    06 2 600000100000                    4BAPTIST                                 43CET15-Jan-1997
EA44265EA615-Sep-19612                    212200  8                                                     1 500011100000                    6                    HOLYNESS APISTOLIC  53DNG15-Jun-1995
EA44282EA615-Oct-19692                    212100  7                                                     3 300001110000                    0                                        13JRB15-May-1996
EA44298EA615-Nov-19442                    512100  7                      12100  1                    03 2 400000000001FOOD STAMPS         4BAPTIST                                 43CET15-Jan-1997
EA44302EA615-Aug-19642                    412100  5                                                     1 300000000001WIC                 0                                        03CET15-Aug-1997
EA44310EA615-Oct-19702                    211010  5                                                     1 500000100000                    1                                        33JRB15-Sep-1995
EA44347EA615-Dec-19682                    212110  2                    05                               3 310101000000                    4BAPTIST                                 03CET15-Feb-1997
EA44351EA615-Sep-19532                    314 00  1                    01                               4 410001000000                    5                                        23J B15-Mar-1996
EA44368EA615-Sep-19672                    211000  5                         010                         2 600000110000                    4BAPTIST                                 03FDP15-Mar-1996
EA44379EA615-Nov-19681                    110000  5                       7010  1                    03 4 501000000000                    1                                        02DNG15-Dec-1995
EA44396EA615-Apr-19552                    113 10  5                       9010  1                    11 5 701000000000                    4BAPTIST                                 13JAS15-Nov-1996
EA44404EA615-Aug-19652                    412110  1                    0612100  1                    03 6 310000000000                    4BAPTIST                                 43CET15-Nov-1996
EA44412EA615-Aug-19642                    1 9200  1                    05110011 1                    13 8 411001000000                    5                                        32JAS15-Oct-1996
EA44481EA615-Jan-19702                    114 20  1                    0514 20  1                    13 5 411000000000                    4BAPTIST                                 23BEB15-Dec-1996
EA44515EA615-Mar-19642                    213 10  1                    0513 10                          8 311000000000                    5                                        33JRB15-Aug-1996
EA45041EA615-Mar-19692                    2100010 5                                                     2 500000100000                    0                                        23JRB15-Jan-1996
EA45057EA615-May-19612                    210000  4                                                     1 201101100000                    4BAPTIST                                 32ADS15-Aug-1994
EA45062EA615-Dec-19692                    2121111 5                                                     1 400000100000                    6                    BAPTIST             22JRB15-Nov-1995
EA45073EA615-Aug-19662                    213 110 2                    06                               2 510000100001SEE NOTE LOG        5                                        23ADS15-Jan-1995
EA45085EA615-May-19682                    212110  4                      12000  1                    04 2 300001010000                    0                                        53JRB15-Jun-1996
EA45125EA615-Apr-19632                    210000  4                      12100  4                       2 600100100000                    1                                        23BAR15-Aug-1994
EA45133EA615-Aug-19652                    212100  1                    15                               3 210001000000                    0                                        03DNG15-Jul-1995
EA45158EA615-Oct-19602                    215 00 10BACK TO WORK IN SEPT                                 4 311000010000                    4BAPTIST                                 23MOC15-Jun-1995
EA45186EA615-May-19612                    411000  5                                                     1 300100100000                    4BAPTIST                                 13BST15-Jun-1995
EA45194EA615-Mar-19172                    118 40  6                       6000  6                       3 200000000010                    5                                        53LMM15-Aug-1994
EA45201EA615-Jun-19702                    212100  5                                                     1 400000000010                    4METHODIST                               02JRB15-Sep-1995
EA45214EA615-Dec-19702                    2 60110 5                                                     1 300000010000                    5                                        53ADS15-Feb-1995
EA45248EA615-Aug-19702                    212100  4                      12100  1                    02 4 501001100000                    1                                        03J B15-Mar-1996
EA45250EA615-Jul-19362                    3 9000  1                    01                               2 310000100000                    5                                        13ADS15-May-1995
EA45269EA615-Nov-19552                    211000  4                                                     2 200101110010                    0                                        11ADS15-Nov-1994
EA45283EA615-Aug-19662                    212110  4                                                     3 400111100001SSI FOR SUBJECT     5                                        53ADS15-Sep-1994
EA45303EA615-Nov-19662                    210000  4                                                     4 301110000000                    4BAPTIST                                 22DNG15-Feb-1996
EA45311EA615-Jul-19612                    113 10  7                      14 10  3                    04 2 101000110000                    1                                        12SLA15-Aug-1996
EA45324EA615-Jun-19532                    112100  5                      12200  1                    0411 601000010001FOSTER CARE         4BAPTIST                                 53BST15-Jul-1996
EA45346EA615-Sep-19632                    214 10  5                                                     1 300000100000                    4BAPTIST                                 13BEB15-Dec-1996
EA45352EA615-Feb-19302                    514 20  2                    08                              10 310000000011MD STATE RETIREMENT 4METHODIST                               53DNG15-Feb-1996
EA45378EA615-Nov-19631                    2 7000  7                                                     2 400000110000                    1                                        23DNG15-Jun-1996
EA45380EA615-Nov-19592                    215 20  4                                                     1 201000100000                    4BAPTIST                                 33JRB15-Nov-1995
EA45395EA615-Aug-19602                    1110111 1                    0311 10  1                    04 3 411000100000                    5                                        53NLG15-Sep-1996
EA45400EA615-Feb-19632                    211000  7                       8010  1                    03 2 401000110000                    4BAPTIST                                 32DNG15-Apr-1995
EA45413EA615-Jan-19762                    212110  5                                                     1 300001100000                    5                                        12CET15-Nov-1996
EA45437EA615-Nov-19662                    210210  4                      11210  3                    12 1 701000100000                    5                                        43BST15-Nov-1996
EA45454EA615-Sep-19262                    118 40  6                      18 40  6                       7 500000000011PENSION             1                                        43JAS15-Feb-1997
EA45465EA615-Aug-19612                    2 8000  4                                                     1 400000100000                    4BAPTIST                                 03DNG15-May-1995
EA45476EA615-Oct-19532                    314 10  5                                                     2 110000000000                    4BAPTIST                                 33BST15-Oct-1996
EA45506EA615-Dec-19562                    411010  3                    05                               1 510000100000                    4BAPTIST                                 13NLG15-Sep-1996
EA45527EA615-Feb-19512                    5 9010  7                                                     2 400000110001S.S. FROM DEAD HUSB.4BAPTIST                                 53CET15-May-1997
EA45531EA615-Oct-19552                    2110010 4                       8010  1                    14 5 501000110000                    4BAPTIST                                 13BEB15-Jan-1997
EA45555EA615-Mar-19612                    212100  1                    0112100  1                    04 4 511000100010                    4BAPTIST                                 12CET15-Dec-1996
EA45570EA615-Feb-19592                    3 9000  4                                                     2 401000100000                    4BAPTIST                                 23JRB15-Dec-1995
EA45588EA615-Dec-19572                    211000  5                                                     2 400000100000                    4BAPTIST                                 13BEB15-May-1997
EA45607EA615-Oct-19682                    212100  1                    1112100  1                    04 3 411000010000                    1                                        02CET15-May-1997
EA45628EA615-Dec-19592                    211200  1                    01                               3 410000000000                    4BAPTIST                                 12MMT15-Sep-1996
EA45630EA615-Jun-19662                    212000  4                      10210  2                    14 3 401001100000                    4BAPTIST                                 13DNG15-May-1996
EA45642EA615-Oct-19512                    315 20  1                    15                               4 510000100000                    4BAPTIST                                 33BST15-Apr-1996
EA45663EA615-May-19652                    212110  2                    01                               1 310000100000                    4BAPTIST                                 23DNG15-Jul-1996
EA45674EA615-Dec-19672                    211210  5                      121110 1                    0310 601001100000                    5                                        22MMT15-Jan-1997
EA45689EA615-Sep-19512                    311000  5                                                     1 200000010000                    4BAPTIST                                 43CET15-Jan-1998
EA45702EA615-Jan-19282                    112110  6                      14 20  6                       4 210000000010                    4BAPTIST                                 43JAS15-Jan-1997
EA45735EA615-Apr-19612                    314 10  5                                                     1 300000100000                    0                                        22BEB15-Jul-1996
EA45751EA615-Jul-19491                    111210  2                    05                               2 311000100000                    1                                        13BST15-Sep-1996
EA45768EA615-Aug-19532                    111010  4                      12200  1                    03 5 401000100000                    4BAPTIST                                 43BEB15-Aug-1996
EA45796EA615-Mar-19682                    110200  5                      11210 10INCARCERATED           6 701000100000                    5                                        53JRB15-Aug-1996
EA45804EA615-Jun-19422                    312100  7                                                     2 200000110000                    4BAPTIST                                 43BEB15-Oct-1996
EA45812EA615-Oct-19612                    214 20  1                    05                               5 210000010000                    5                                        42CET15-Aug-1997
EA45845EA615-Mar-19362                    5 9000  7                                                     6 400000110000                    4BAPTIST                                 33BEB15-May-1997
EA45881EA615-Sep-19672                    210200  4                      11200  1                    03 2 301000000000                    4BAPTIST                                 22JAS15-Nov-1996
EA45899EA615-Apr-19442                    110000  1                    0412100  1                    03 7 611000010000                    4METHODIST                               53BEB15-Apr-1997
EA45918EA615-Nov-19622                    211000  5                                                     2 500000100000                    4BAPTIST                                 03CET15-Oct-1996
EA45932EA615-Mar-19662                    313 10  1                    07                               8 410000000000                    4BAPTIST                                 33BEB15-Feb-1997
EA45987EA615-Sep-19322                    510010  5                                                     4 300000100010                    1                                        43CET15-Dec-1997
EA45993EA615-Dec-19672                    412110  1                    11 9010  1                    03 1 411000100000                    4BAPTIST                                 23JAS15-Dec-1996
MW00013MW615-Dec-19672                    210000 10CAN'T FIND A JOB      12000  1                    04 2 100000100000                    0                                        02MMC15-Feb-1998
MW00136MW615-Jan-19682                    114 10  1                    0416 30  1                    0411 711000000000                    4BAPTIST                                 22FJN15-Jun-2001
MW00148MW615-Mar-19602                    2121010 1                    06                               2 510000000000                    4BAPTIST                                 43RLH15-Mar-2000
MW00169MW615-Mar-19642                    213 10  2                    03                               3 110000000000                    4BAPTIST                                 23CAK15-Jan-2000
MW00175MW615-Oct-19722                    212110  2                    13                               4 310000000000                    4BAPTIST                                 33JBG15-Jul-1998
MW00183MW615-Jul-19691                    1 9200  2                    0210010  1                    03 5 611000000000                    5                                        43HLA15-Mar-1998
MW00217MW615-Jun-19693                    2121010 4                              NO MLE IN HOME         3 300000001000                    0                                        13HLA15-Feb-1998
MW00225MW615-Aug-19652                    115 00  1                    0514 00  1                    05 6 611000000000                    1                                        33HLA15-Apr-1998
MW00233MW615-Feb-19713                    111000  5                      12120  1                    03 6 401000000000                    1                                        12KS 15-Aug-1999
MW00258MW615-Nov-19712                    2110010 9                                                     1 300000110000                    0                                        02MDA15-Mar-1998
MW00272MW615-Sep-19582                    312110  1                    12                               4 510000100000                    4BAPTIST                                 32HLA15-Jun-1998
MW00286MW615-Jun-19763                    212100  1                    01        NO MALE IN HOME        3 210000100000                    1                                        12HLA15-Mar-1998
MW00306MW615-Jan-19731                    110210  5                      14 20  1                    04 8 601000100000                    1                                        11MDA15-May-1998
MW00319MW615-Jun-19726                    414 110 1                    0616 30  1                    0610 411000000000                    4BAPTIST                                 33FJN15-Sep-2000
MW00327MW615-Jun-19743                    111000  5                      13 00  1                    03 3 501000100000                    1                                        42HLA15-Apr-1998
MW00331MW615-Aug-19593                    112100  1                    0314 10  1                    0311 511000000000                    4BAPTIST                                 43HLA15-Apr-1998
MW00355MW615-Mar-19651                    116 30  1                    05 8110  1                    0311 411000000000                    1                                        43HLA15-Jun-1998
MW00364MW615-Jul-19622                    211200  1                    04                               7 210000000000                    4BAPTIST                                 03RLH15-Mar-2000
MW00388MW615-Apr-19742                    212200  4                                                     2 300000100000                    0                                        01MMC15-Jun-1999
MW00392MW615-Sep-19661                    1 8000  8                                                     2 200000010010                    5                                        03KS 15-Sep-1999
MW00408MW615-Dec-19702                    114 10  5                      16 00  1                    03 4 301000110000                    4BAPTIST                                 43HLA15-Apr-1998
MW00416MW615-May-19752                    211000  4                                                     1 511001100000                    4BAPTIST                                 11HLA15-May-1998
MW00429MW615-Feb-19666                    113 10  1                    0512100  1                    05 9 411000000000                    1                                        43RRJ15-Feb-2000
MW00434MW615-Apr-19703                    213 20  4                      11010  1                    05 3 501000100000                    5                                        12JBH15-May-1998
MW00457MW615-May-19692                    2120110 3                    03                               3 410000000000                    5                                        43HLA15-Jun-1998
MW00462MW615-Sep-19642                    116 310 2                    0814 00  1                    0311 411000000000                    4BAPTIST                                 33RRJ15-May-1998
MW00473MW615-Jul-19722                    212100  3                    00                               1 400000100000                    5                                        02MDA15-Apr-1998
MW00485MW615-Jul-19722                    212100  3                                                     1 400000100000                    5                                        02MDA15-Apr-1998
MW00503MW615-Jul-19642                    314 10  3                    0214 10  1                    0510 711001100000                    4BAPTIST                                 43RLH15-Jun-2000
MW00511MW615-Feb-19672                    2100010 4                                                     1 200000000000                    4BAPTIST                                 23FJN15-Dec-2000
MW00524MW615-Aug-19662                    2121110 1                    1712100  7                       5 610000000000                    4BAPTIST                                 33EW 15-Jun-2000
MW00539MW615-May-19752                    212100  4                              NO MALE IN HOME     0  1 311000100000                    4BAPTIST                                 13HLA15-Mar-1998
MW00546MW615-Jul-19572                    311000  4                    0                                2 800000100000                    5                                        52HLA15-Jan-1999
MW00567MW615-Dec-19692                    213 10  1                    1414 00  1                    0411 711001000001HOSUING ASSISTANCE  0                                        02HLA15-Sep-1998
MW00578MW615-Dec-19692                    213 10  1                    0414 00  1                    0411 711001000001HOUSING ASSISTANCE  0                                        02HLA15-Sep-1998
MW00580MW615-Jun-19621                    316 30  4                                                     5 300000101000                    0                                        01HLA15-Nov-1998
MW00595MW615-Jun-19633                    114 20  7                             1                    03 5 501000000000                    1                                        33MDA15-Mar-1998
MW00604MW615-Apr-19713                    112210  2                    0619 311 9                       3 410000000000                    1                                        33RLH15-Apr-2000
MW00612MW615-Oct-19752                    213 10  4                                                     1 200000000000                    4BAPTIST                                 23CAK15-Sep-1999
MW00638MW615-May-19571                    4 9200  7                       9000  1                    04 4 500000110000                    1                                        23JBH15-May-1998
MW00645MW615-Aug-19662                    413 10  1                    04                               3 310000000000                    4BAPTIST                                 33CAK15-Sep-1999
MW00653MW615-Jun-19322                    3 9010  6                              NO HUSBAND             2 400000110010                    4BAPTIST                                 43MMC15-Mar-1998
MW00666MW615-Jun-19731                    1  200  1                    0214 00  1                    03 5 611000100000                    5                                        43MDA15-Mar-1998
MW00677MW615-Jun-19712                    114 10 10AFRAID TO INTERVIEW           NO MALE IN HOME        4 400110000000                    0                                        01HLA15-Mar-1998
MW00699MW615-Sep-19702                    211200  5                              NO BOYFRIEND           3 500000110000                    0                                        01MDA15-Mar-1998
MW00718MW615-May-19691                    410000  5                             1                    03 4 701000100000                    1                                        03HLA15-Feb-1998
MW00726MW615-Aug-19592                    213 10  4                              WOULD NOT GIVE INFO    2 300000100000                    4BAPTIST                                 32MDA15-Apr-1998
MW00732MW615-Sep-19592                    211000  5                                                     3 400000110000                    4BAPTIST                                 12HLA15-Aug-1998
MW00771MW615-Jan-19682                    115 10  7                      16 30  1                    0711 711000000100                    4BAPTIST                                 22CAK15-Oct-1999
MW00807MW615-Feb-19592                    211010  1                    03                               2 510010100000                    4BAPTIST                                 02RRJ15-Sep-2000
MW00830MW615-Jan-19681                    2 9200  1                    03        NO MALE IN THE HOME    4 410000100000                    5                                        33HLA15-Mar-1998
MW00856MW615-Jun-19582                    212100  7                      12100  3                    0  2 200000110000                    4BAPTIST                                 22MRP15-May-1998
MW00863MW615-Nov-19761                    410100  2                    02                               6 711000110000                    1                                        22JBH15-May-1998
MW00874MW615-Feb-19592                    2110011 9                                                     2 500000100000                    0                                        02RRJ15-Jun-1999
MW00889MW615-Dec-19722                    2110010 5                                                     1 700000000000                    5                                        03KS 15-Oct-1999
MW00891MW615-May-19643                    111000  5                      11000  3                    04 3 900000100000                    1                                        43MDA15-Apr-1998
MW00902MW615-Jun-19712                    212110  1                    06                               3 410001010000                    4BAPTIST                                 53RRJ15-Nov-2000
MW00923MW615-Mar-19772                    211210  5                      12100  1                    04 6 701000100000                    6                    APOSTOLIC           53HLA15-Aug-1998
MW00947MW615-Oct-19751                    212100  4                      12200  1                    02 2 301000100000                    1                                        12HLA15-Aug-1998
MW00951MW615-Sep-19682                    412100  5                      12100  4                       3 400000110000                    0                                        03HLA15-Feb-1998
MW00968MW615-Jun-19572                    212110  4                                                     1 200000100000                    4BAPTIST                                 33RRJ15-Jan-1999
MW00979MW615-Feb-19702                    214 00  4                                                     2 700000100000                    1                                        13LF 15-Jun-2001
MW01009MW615-Mar-19762                    216 311 2                    08                               5 310000000000                    4BAPTIST                                 22FJN15-Aug-2000
MW01040MW615-Apr-19762                    213 10  1                    04        NO OTHER RESPONDENT    3 610000100000                    4BAPTIST                                 12EW 15-Sep-2000
MW01061MW615-Apr-19722                    211010  1                    05                               5 710000100000                    5                                        53FJN15-Jun-2000
MW01072MW615-Dec-19682                    2120011 4                                                     2 510000100000                    4BAPTIST                                 52MRP15-Jun-1998
MW01086MW615-Dec-19462                    4 4000  5                                                     4 600000110001GENERAL ASSISTANCE  4BAPTIST                                 43MMC15-Jul-1998
MW01094MW615-Aug-19602                    212100  4                                                     1 300000100000                    4BAPTIST                                 03HLA15-Sep-1998
MW01105MW615-Nov-19652                    212110  4                                                     1 500000100000                    4BAPTIST                                 23JBG15-Aug-1998
MW01118MW615-Dec-19711                    211000  5                                                     4 400001110000                    1                                        13HLA15-Apr-1998
MW01126MW615-Dec-19712                    212200  4                                                     2 700000100000                    47 DAY ADVENTIST                         23RLH15-Jun-2000
MW01144MW615-Jun-19652                    411210  4                                                     2 500000100000                    4BAPTIST                                 12HLA15-Aug-1998
MW01160MW615-Aug-19612                    212100  1                    03                               3 710000000000                    4BAPTIST                                 33RLP15-Dec-1999
MW01171MW615-Dec-19631                    111000  1                    0211200  1                    04 7 611000000000                    1                                        43HLA15-Dec-1998
MW01187MW615-Dec-19553                    110000  7                       9000  7                       6 400000010010                    1                                        33CAK15-Feb-2000
MW01193MW615-Mar-19721                    3122111 1                    0312100  1                    01 9 411000000000                    5                                        33HLA15-Jan-1999
MW01200MW615-Jun-19761                    4 8210  1                    05                               4 510001000000                    0                                        22HLA15-Jun-1998
MW01249MW615-Feb-19672                    2110011 5                                                     3 800000100000                    5                                        33HLA15-Aug-1998
MW01276MW615-Apr-19762                    2121010 2                    03                               2 510000100000                    4BAPTIST                                 42MMC15-Jul-1998
MW01302MW615-Mar-19712                    211000  2                    01                               4 510000110000                    0                                        03HLA15-Jun-1998
MW01323MW615-Jun-19743                    111000  5                      14 10  1                    0  3 501000000001WIC/RENT            1                                        22HLA15-Nov-1998
MW01335MW615-Jan-19731                    110210  5                      14 110 1                    03 7 601000010000                    1                                        22HLA15-Jun-1998
MW01347MW615-May-19691                    411000  4                             1                    03 6 701000100000                    1                                        03RRJ15-Jan-1999
MW01351MW615-Feb-19683                    1 9000  5                                                     3 500000110000                    0                                        02HLA15-Feb-1998
MW01368MW615-Apr-19713                    112210  2                    0619 311 9                       2 410000100000                    1                                        22KS 15-Nov-1999
MW01396MW615-Jul-19663                    212110  7                                                     3 311000110000                    1                                        13JBH15-Jun-1998
MW01404MW615-Sep-19582                    111000  5                      14 10  1                    01 3 701000000001DCFS                4BAPTIST                                 53HLA15-Dec-1998
MW01412MW615-Jan-19713                    4 8000  4                                                     3 400000100000                    1                                        23MRP15-Apr-1998
MW01420MW615-May-19552                    210200  2                    02                               3 410000110000                    4BAPTIST                                 13JBG15-Jul-1998
MW01438MW615-Dec-19582                    412100  1                    15                               6 210000000000                    4METHODIST                               02CAK15-Mar-2000
MW01453MW615-Jun-19671                    112110  4                      11010  1                    04 4 501000000000                    0                                        02HLA15-Sep-1998
MW01466MW615-Jun-19741                    2 9000  2                    0512200  1                    03 6 811001000010                    0                                        01HLA15-Apr-1998
MW01481MW615-Apr-19762                    211000  4                             1                    11 81101000100000                    4BAPTIST                                 13HLA15-Aug-1998
MW01528MW615-Feb-19671                    210000  5                      12100  2                    04 4 401000100000                    1                                        03CAK15-Aug-1999
MW01530MW615-Jul-19441                    414 00  1                    04 8200  1                    0611 311100000000                                                               KS 15-Oct-1999
MW01556MW615-Jan-19622                    3 9000  4                                                     2 400000100000                    4METHODIST                               43HLA15-May-1998
MW01574MW615-Apr-19572                    512110  3                    03                               1 410100000000                    4BAPTIST                                 02RLH15-Dec-1999
MW01589MW615-Apr-19572                    512110  3                    03                               1 410100000000                    4BAPTIST                                 02RLH15-Dec-1999
MW01591MW615-Dec-19732                    213 10  1                    03                               2 210001100000                    4APOSTOLIC                               32RRJ15-Jan-2000
MW01608MW615-Feb-19721                    112200  5                      11000  4                       1 400000100000                    4PENTACOSTAL                             53RRJ15-Oct-1998
MW01629MW615-Oct-19682                    3 8010  5                                                     2 610000110000                    4BAPTIST                                 23RRJ15-May-1998
MW01634MW615-Jul-19682                    411000  1                    04                               3 710000100100                    0                                        01FJN15-Dec-2000
MW01657MW615-Dec-19602                    2 9000  1                    05       1                    02 3 610000100000                    4BAPTIST                                 23MWS15-Dec-1998
MW01685MW615-Dec-19602                    2 9000  2                    03                               3 510000100000                    4BAPTIST                                 33HLA15-Apr-1998
MW01690MW615-Mar-19661                    211000  1                    04                               2 510000000000                    1                                        33KS 15-Oct-1999
MW01701MW615-Sep-19692                    114 20  4                      13 10  1                    03 6 411000000000                    5                                        53RLH15-Dec-1999
MW01714MW615-Jul-19691                    1100110 1                    0212110  1                    04 8 411001000000                    1                                        12RLP15-Apr-2000
MW01722MW615-Jul-19661                    214 111 9                      121110 1                    02 4 200000100000                    1                                        12KS 15-Aug-1999
MW01748MW615-Aug-19611                    414 20  4                      11200  1                    0  8 410000100000                    1                                        43KS 15-Sep-1999
MW01750MW615-Jul-19722                    2121010 5                                                     1 500000000000                    5                                        13RRJ15-Jun-2001
MW01769MW615-Jun-19662                    211000  1                    06                               2 610000010000                    5                                        53RLH15-Dec-1999
MW01775MW615-Mar-19661                    210000  1                    05                               3 510000000000                    1                                        23HLA15-Aug-1998
MW01797MW615-Jun-19671                    513 10  1                    05                               3 410001000000                    5                                        53KS 15-Aug-1999
MW01803MW615-Jan-19616                    2 8010  7                      14 10  7                       3 611000010000                    4LUTHERAN                                23RLH15-Jan-2000
MW01811MW615-Feb-19746                    211010  1                    0510000  2                    04 3 511000100000                    0                                        33HLA15-Nov-1998
MW01839MW615-Sep-19622                    211000  7                      11000  1                    02 1 310000100000                    4BAPTIST                                 23JBG15-Aug-1998
MW01846MW615-Aug-19701                    112000  2                    0512100  1                    03 9 411000000000                    1                                        12RRJ15-Dec-1998
MW01852MW615-Feb-19702                    211000  7                                                     3 310000110000                    4APOSTOLIC                               23CAK15-Aug-1999
MW01867MW615-Sep-19652                    211010  1                    13                               4 610101000000                    0                                        02EJW15-Aug-2000
MW01895MW615-Aug-19702                    211010  4                                                     1 200000100000                    4BAPTIST                                 53RRJ15-Jan-2000
MW01906MW615-Jul-19682                    212000  1                    05                               3 310000000000                    4BAPTIST                                 12RRJ15-Jan-1999
MW01927MW615-Aug-19653                    114 10  1                    0712200  3                    02 2 610000000000                    5                                        53RLH15-Feb-2000
MW01943MW615-Jul-19772                    212100  5                                                     2 300000100001PREVIOUS EMPLOYER   4BAPTIST                                 23FJN15-Aug-2000
MW01988MW615-Aug-19652                    214 10  1                    0512100  1                    0511 511001000000                    4BAPTIST                                 43HLA15-Jan-1999
MW01992MW615-Apr-19722                    211000  1                    05                               6 710000110000                    5                                        53HLA15-Dec-1998
MW02008MW615-Feb-19702                    213 00  1                    05                               4 711000100000                    1                                        13HLA15-Jul-1998
MW02016MW615-Oct-19623                    2 9000  7                                                     2 100000010000                    1                                        43CAK15-Aug-1999
MW02034MW615-Oct-19592                    514 00  4                                                     2 800000100000                    4BAPTIST                                 13RRJ15-Jan-2001
MW02041MW615-Feb-19582                    213 00  4                                                     2 410000100000                    4BAPTIST                                 13MDA15-May-1998
MW02057MW615-Nov-19712                    211010  4                                                     2 500000110000                    4BAPTIST                                 21CAK15-Oct-1999
MW02073MW615-Jun-19692                    214 10  1                    04                               7 510000000000                    4APOSTOLIC                               43RRJ15-Dec-2001
MW02090MW615-Jul-19662                    214 10  5                                                     2 400000100000                    0                                          KS 15-Oct-1999
MW02117MW615-Aug-19662                    212110  1                    0412100  2                    0  7 611000000010                    4BAPTIST                                 43CAK15-Aug-1999
MW02125MW615-Jun-19761                    1 8210  1                    04       1                    03 8 911000000000                    0                                        01CAK15-Nov-1999
MW02140MW615-Nov-19471                    113 00  1                    0316 30  4                       7 410000010000                    4DISCIPLES OF CHRIST                     13RLH15-Jan-2000
MW02158MW615-May-19752                    211000  4                                                     1 500001100000                    4BAPTIST                                 13RRJ15-Jun-1999
MW02161MW615-Aug-19612                    412210  8                                                     2 401000101000                    4APOSTOLIC                               33RLP15-Jan-2000
MW02172MW615-Jul-19696                    112200  1                    0311010  1                    13 6 611000000000                    5                                        13RLP15-Dec-1999
MW02222MW615-Jan-19712                    211000  4                      12210  2                    01 41001000100000                    0                                        03HLA15-Jun-1998
MW02236MW615-Jan-19712                    211010  1                    0412110  1                    01 9 911000000000                    4BAPTIST                                 13CAK15-Sep-1999
MW02248MW615-Jan-19774                    2 8000  5                       8210  1                    03 2 401001100000                    4BAPTIST                                 01CAK15-Oct-1999
MW02269MW615-Dec-19702                    212100  7                                                     1 100000100000                    4BAPTIST                                 42HLA15-Jul-1998
MW02275MW615-Dec-19702                    212110  1                    05                               5 110000000000                    4BAPTIST                                 53KS 15-Dec-1999
MW02283MW615-Feb-19623                    112200  8                      12110  1                    04 9 401000000000                    1                                        23RLH15-Feb-2000
MW02311MW615-Aug-19722                    214 00  4                                                     2 300100100000                    4BAPTIST                                 12KS 15-Aug-1999
MW02324MW615-Jul-19736                    212100  4                      12100  1                    04 4 300001001000                    0                                        22CAK15-Apr-2000
MW02339MW615-Nov-19713                    111000  5                      14 10  1                    06 6 601000100000                    0                                        43TTW15-Aug-2001
MW02367MW615-Aug-19671                    411000  4                      12110  2                    02 1 401000000000                    1                                        12CAK15-Sep-1999
MW02378MW615-Apr-19713                    210210  1                    0214 00  1                    02 3 310000000000                    1                                        03CAK15-Sep-1999
MW02380MW615-May-19643                    112000  7                      10000  3                    0  11101000100000                    1                                        43CAK15-Nov-1999
MW02400MW615-Jul-19652                    212100  4                                                     2 300000100000                    4BAPTIST                                 33HLA15-Apr-1998
MW02465MW615-Jun-19692                    213 010 1                    07                               5 410000000000                    5                                        23EW 15-Nov-2000
MW02476MW615-Jul-19622                    211000  4                                                     2 201001100000                    1                                        23CAK15-Dec-1999
MW02531MW615-Sep-19612                    211200  7                                                     2 300000110000                    4BAPTIST                                 13CAK15-Nov-1999
MW02543MW615-Sep-19673                    114 20  1                    0813 10  1                    0  7 511000000000                    4PENTACOSTAL                             53CAK15-Sep-1999
MW02570MW615-Jul-19693                    311000  2                    02                               2 510100110000                    0                                        22FJN15-May-2001
MW02588MW615-Aug-19581                    112110  5                      12200  1                    03 7 501000000001MEDICAL             1                                        23HLA15-Oct-1998
MW02592MW615-Dec-19561                    115 211 2                    0614 10  1                    07 5 511010010001SSI FOR DAUGHTER    4BAPTIST                                 53CAK15-Aug-1999
MW02615MW615-Sep-19632                    310010  1                    03122                            5 510010000000                    4BAPTIST                                 43KS 15-Aug-1999
MW02630MW615-Mar-19772                    211210  5                      12100  1                    04 6 701000100000                    4APOLSTOLIC                              53RRJ15-Jan-1999
MW02642MW615-Dec-19731                    210000  5                                                     5 701000110000                    1                                        01RLP15-Feb-2000
MW02663MW615-Jun-19693                    212100  4                                                     2 400000100000                    1                                        23HLA15-May-1998
MW02674MW615-Jun-19693                    212100  4                                                     1 400000100000                    1                                        13CAK15-Jan-2000
MW02691MW615-Feb-19682                    211000  2                    0014 111 1                    04   411000000010                    5                                        33TTW15-Feb-2002
MW02702MW615-Feb-19683                    113 10  1                    0412010  1                    0  5 511000010000                    6                    MORMON              53CAK15-Aug-1999
MW02710MW615-Jan-19632                    2120111 4                                                     1 400000010000                    4BAPTIST                                 23CAK15-Aug-1999
MW02723MW615-Oct-19632                    2 9010  1                    03                               51010010110000                    4APOSTOLIC                               23RRJ15-Mar-2000
MW02735MW615-Oct-19723                    112110  4                      12100  4                       1 400000000001SAVINGS             1                                        43RLH15-Jan-2000
MW02751MW615-Feb-19682                    111000  4                      11000  1                    05 6 801000100000                    0                                        02RRJ15-Nov-1998
MW02768MW615-Oct-19632                    2 9010  1                    03                               51010010110000                    4APOSTOLIC                               23CAK15-Mar-2000
MW02779MW615-May-19662                    213 00  1                    0314 00  1                    06 3 310000000000                    4METHODIST                               13KS 15-Nov-1999
MW02784MW615-Apr-19562                    212110  4                       8000  3                    01 1 310000100000                    4BAPTIST                                 13RRJ15-Apr-2000
MW02804MW615-May-19662                    314 111 2                    0312110  1                    1810 210100000000                    1                                        43EW 15-Jun-2000
MW02812MW615-Aug-19701                    111010  3                    0212110  1                    03 7 411000000000                    1                                        12FJN15-Jul-2000
MW02838MW615-Feb-19552                    215 10  3                    0312110 10RETIRED                3 300000000001DCFS                4BAPTIST                                 23JBG15-Dec-1998
MW02853MW615-May-19752                    212100  4                                                     1 300000100000                    4BAPTIST                                 22CAK15-Jun-2000
MW02866MW615-Sep-19607NIGERIAN            214 00  1                    01                               1 710000000000                                                               EW 15-Jun-2000
MW02877MW615-Apr-19762                    211000  5                      12120  5                       81001000001000                    4BAPTIST                                 03FJN15-Sep-2000
MW02881MW615-Jul-19713                    211210  1                    05                               4 410000000000                    4LUTHERAN                                43RLP15-Dec-1999
MW02899MW615-May-19657NATIVE AMERICAN     214 10  1                    13                               1 310000000000                    4APOSTOLIC                               53CAK15-Apr-2000
MW02905MW615-Oct-19602                    212110  7                                                     1 301001100000                    4BAPTIST                                 32EW 15-Jun-2000
MW02926MW615-Sep-19682                    412100  1                    05                               3 411101000000                    4BAPTIST                                 03KS 15-Nov-1999
MW02944MW615-Dec-19752                    212110  5                      12110  1                    03 2 501000110000                    5                                        43RRJ15-Feb-2001
MW02960MW615-Jul-19672                    215 10  5                                                     2 710000010000                    0                                        12LF 15-Aug-2001
MW02971MW615-Nov-19752                    211200  2                    0112100  4                       2 310000100000                    4BAPTIST                                 23RLP15-Feb-2000
MW02987MW615-Feb-19782                    213 10  1                    03                               4 310100000000                    4BAPTIST                                 22FJN15-Jul-2000
MW02993MW615-Jun-19701                    212100  4                                                     1 410000000000                    5                                        43RLH15-Apr-2000
MW03005MW615-Jun-19701                    212100  5                       8000  1                    11 4 401000000000                    5                                        43KS 15-Nov-1999
MW03026MW615-Jul-19742                    212200  1                    0612100  1                    02 5 611000100000                    5                                        32FJN15-Feb-2001
MW03032MW615-Jul-19742                    312200  1                    06                               3 510000100000                    5                                        02PMD15-Feb-2001
MW03044MW615-Dec-19732                    212110  1                    02                               4 310001000000                    4BAPTIST                                 42FJN15-Aug-2000
MW03071MW615-Mar-19571                    112100  7                      10000  1                    03 3 501001010000                    5                                        13RLH15-May-2000
MW03093MW615-Dec-19711                    212000  7                                                     2 410001110000                    1                                        13RRJ15-Jan-2001
MW03119MW615-Jun-19712                    114 10  8                      12100  1                    06 5 401000000000                    0                                        01EW 15-May-2001
MW03127MW615-Jul-19772                    212000  3                    04                               3 411101100000                    4BAPTIST                                 33RRJ15-Feb-2001
MW03131MW615-Aug-19652                    3121011 2                    05                               2 510000010000                    1                                        23FJN15-May-2001
MW03155MW615-Jun-19741                    1 9010  2                    0312100  1                    02 8 811001000000                    0                                        01EW 15-Nov-2000
MW03170MW615-Oct-19632                    2 9010  1                    03                               51110000100010                    4PENTACOSTAL                             53RRJ15-May-2001
MW03192MW615-Sep-19712                    210000  4                                                     3 400001100000                    4BAPTIST                                 03FJN15-Aug-2000
MW03204MW615-Aug-19671                    311000  1                    0312100  1                    03 2 411000100000                    1                                        32RRJ15-Jul-2001
MW03212MW615-Jun-19743                    111000  3                    0116 30  1                    04 6 511000000000                    1                                        33LF 15-Jul-2001
MW03220MW615-Feb-19683                    2 9000  5                                                     2 500000110000                    1                                        12RLH15-Apr-2000
MW03238MW615-Aug-19581                    112110  5                      12100  1                    0310 501000000000                    1                                        02FJN15-Jul-2001
MW03253MW615-Jun-19693                    212100  1                    06                               6 310000000000                    0                                        01EW 15-Jun-2001
MW03266MW615-Jun-19623                    4 8010  2                    05                            0  2 510000100000                    0                                        12RRJ15-Jun-2001
NW30020NW615-Oct-19483                    312110  7                                                     3 300000110000                    5                                        53ELN15-May-1995
NW30045NW615-Jan-19561                    214 10  2                    05                               3 410000100000                    4BAPTIST                                 03ELN15-Mar-1997
NW30053NW615-May-19621                    4 9210  4                             1                    04 4 5110 100000                     0                                        02ELN15-May-1995
NW30066NW615-Feb-19665                    2112011 9                                                     5 401000000000                    1                                        42PJV15-Feb-1995
NW30077NW615-Jan-19611                    412100  1                    06                               8 210001000000                    4                                        43MAT15-Oct-1994
NW30081NW615-Sep-19512                    411200  4                                                     2 500000100000                    4BAPTIST                                 13ELN15-Jan-1996
NW30099NW615-Jul-19711                    3 9000  5                      11210  1                    04 4 401001100000                    5                                        22ELN15-Dec-1994
NW30113NW615-Mar-19651                    2112011 9                                                     6 80100011000                     0                                        03ELN15-Feb-1997
NW30137NW615-Aug-19631                    215 00  5                      14 110 1                    00 4 301000100000                    4EPISCOPAL                               02ELN15-Apr-1997
NW30149NW615-Jun-19251                    114 00  5                      20 50  2                    0911 301000000010                    5                                        23ELN15-Apr-1997
NW30154NW615-Apr-19631                    112110  2                    0412120  1                    14 4 611001000000                    5                                        33PJV15-Sep-1995
NW30176NW615-Aug-19611                    11020   2                    0412110  1                    04 8  11000000000                    1                                        03ELN15-May-1994
NW30182NW615-Oct-19682                    212200  7                                                     2 300001110000                    4PENTECOSTAL                             23PJV15-Nov-1995
NW30198NW615-Mar-19681                    3121011 9                                                     2 300000100000                    0                                        02ELN15-Mar-1997
NW30218NW615-Oct-19542                    414 10  1                    06                               7 610000010000                    4BAPTIST                                 53AJS15-Oct-1997
NW30226NW615-Jan-19722                    210210  4                                                     2 400000000001SSI                 5                                        53ELN15-Sep-1995
NW30232NW615-Mar-19491                    117 30  5                      16 30  1                    09 7 611000000000                    5                                        53AJS15-Aug-1997
NW30244NW615-Jan-19671                    413 110 1                    05                               4 210011000000                    6                    LUTHERAN            22PJV15-Apr-1995
NW30260NW615-Mar-19582                    413 00  5                                                     4 400001110000                    0                                        02ELN15-Apr-1995
NW30271NW615-Jan-19677AFRO AMERICAN       21211   1                    04121011 9                       5 511000000000                    5                                        11ACO15-Aug-1995
NW30287NW615-Sep-19681                    310000  5                                                     2 400001100000                    5                                        33PJV15-May-1995
NW30293NW615-Nov-19651                    211000  5                                                     2 400000100000                    0                                        01PJV15-Oct-1994
NW30307NW615-May-19631                    210000  5                                                     2 300000100000                    5                                        02ELN15-Sep-1996
NW30328NW615-Sep-19701                    11210   9                      12110  1                    02 3 501001000000                    5                                        12ELN15-Mar-1996
NW30330NW615-Apr-19701                    2 800   5                                                     2 300000100000                    5                                        23ELN15-Apr-1994
NW30356NW615-Feb-19551                    412100  7                                                     3 310000110000                                                             03PJV15-Nov-1994
NW30363NW615-Mar-19601                    112100  1                    0212220  1                    04 7 311000000000                    5                                        42PJV15-May-1995
NW30374NW615-Aug-19591                    2 900   5                                                     2 400000100000                    0                                        01ELN15-Apr-1994
NW30389NW615-May-19651                    210200  5                                                     2 500000110000                    5                                        01PJV15-Nov-1996
NW30391NW615-Feb-19631                    413 00  2                    1312100  1                    04 4  11000000000                    5                                        12MAT15-Sep-1994
NW30409NW615-Jun-19406                    112110  5                      12110  1                    0610 611000000000                    4ASSEMBLY OF GOD                         23PJV15-Mar-1995
NW30417NW615-Aug-19591                    2 9000  5                      10  0  7                       2 400000110000                    0                                        03PJV15-Aug-1995
NW30425NW615-Mar-19741                    114 20  1                    0612100  1                    04 6 411000000000                    5                                        33ELN15-Sep-1995
NW30433NW615-Nov-19366                    4 9000  7                      10010  1                    01 2 200000110000                    4NON DENOMINATIONAL                      23PJV15-Oct-1995
NW30440NW615-Aug-19611                    112210  2                    0512110  1                    06 7 811000000000                    1                                        03PJV15-Apr-1995
NW30458NW615-Apr-19701                    211201  9                      11000  1                    02 3 401000100001PELL GRANT          0                                        02ELN15-Apr-1994
NW30461NW615-Aug-19741                    110210  5                      13 00 10LAID OFF               7 501000000001MEDICAL ASSISTANCE  4SEVENTH DAY ADVENTIS                    53ACO15-Nov-1997
NW30472NW615-May-19651                    210200  5                                                     3 500001100000                    0                                        02ELN15-Aug-1995
NW30494NW611-May-19612                    214 20  2                    06                               4 510000100000                    4BAPTIST                                 33AJS15-Sep-1997
NW30502NW615-Aug-19712                    210000  5                      10000  7                       3 700000100000                    4BAPTIST                                 21ELN15-Apr-1996
NW30510NW615-Jan-19531                    313 10  7                                                     2 400000100000                    0                                        03ELN15-May-1995
NW30523NW615-Oct-19572                    213 00  4                                                     1 300000100000                    5                                        33ELN15-Dec-1996
NW30535NW615-May-19651                    2 8200  5                                                     1 500000110000                    0                                        01AJS15-Dec-1997
NW30547NW615-Nov-19552                    214 00  7                                                       710000100001FOSTER CARE MONEY   4HOLINESS                                12ACO15-Sep-1995
NW30551NW615-Mar-19602                    412200  5                                                     2 400000100000                    0                                        23ELN15-Jan-1997
NW30568NW615-Sep-19502                    411000  4                                                     3 600001100001SSI                 4BAPTIST                                 12PJV15-Oct-1994
NW30579NW615-Mar-19671                    1 8010  5                      12110  1                    02 5 601000000000                    1                                        33PJV15-Aug-1995
NW30584NW615-Sep-19512                    412200  7                                                     2 600000100000                    4BAPTIST                                 23AJS15-May-1997
NW30596NW615-Nov-19591                    112110  3                    0415 20  1                    04 7 511000000000                    5                                        02PJV15-Jul-1996
NW30603NW615-Jan-19622                    214 20  1                    03                               3 31100110000                     5                                        13ELN15-Jan-1997
NW30611NW615-Dec-19646                    114 10  1                    0513 00  1                    12 3 511000000000                    0                                        02ELN15-Feb-1997
NW30624NW615-Dec-19646                    313 011 2                    06                               3 410000100001FINANCIAL AID       0                                        01ELN15-Feb-1996
NW30639NW615-Feb-19621                    1 9200  5                       9200  4                       4 600000110000                    0                                        02ELN15-Apr-1997
NW30652NW615-Apr-19621                    212200  1                    0411210  1                    0411 511000000000                    0                                        02ELN15-Feb-1995
NW30667NW615-Aug-19661                    4 8210  7                             1                    13 2 801000000001FOOD STAMPS         5                                        22AJS15-Aug-1997
NW30678NW615-Mar-19491                    113  0  3                    0620 50  1                    0911 501000000000                    5                                        22ACO15-Aug-1995
NW30680NW615-Jan-19736                    214 00  2                    0215 00  1                    1911 311000000000                    1                                        22ACO15-Apr-1997
NW30695NW615-Sep-19661                    111210  4                             1                    06 4 501001000000                    5                                        33PJV15-Feb-1995
NW30706NW615-Aug-19712                    210000  5                                                     3 600000100000                    4                                        33AJS15-Jun-1997
NW30719NW615-Oct-19522                    114 10  3                    0318 40  1                    03 3 611000101000                    4BAPTIST                                 03AJS15-Jan-1998
NW30727NW615-Apr-19712                    2112111 9                                                     1 400000100000                    0                                        11ACO15-Jun-1996
NW30743NW615-Jan-19562                    21120   5                                                     2 400000100000                    4BAPTIST                                 22ELN15-Nov-1994
NW30764NW615-Dec-19461                    1 9210  1                    05 8000  1                    01 7 311000100011UNION               6                    JEHOVAH'S WITNESSES 22MLO15-Jan-1995
NW30770NW615-Nov-19613                    415 20  1                    0210200  1                    06 3 410001000000                    0                                        13PJV15-May-1996
NW30788NW615-Feb-19416                    313 00  5                                                     2 400000100000                    6                    JEHOVAH'S WITNESS   53PJV15-Jan-1996
NW30792NW615-May-19462                    112100  1                    0512100  1                    0311 411000100000                    4PENTACOSTAL                             53ACO15-Mar-1998
NW30808NW615-Apr-19581                    113 10  1                    0511210  1                    03 7 611001000000                    5                                        53PJV15-Feb-1997
NW30829NW615-Jul-19612                    414 010 9                                                     3 400000110000                    0                                        22AJS15-Sep-1997
NW30862NW615-Sep-19563                    1 2000  5                       0     7                       3 701000000000                    1                                        43AJS15-Jun-1997
