EA400158EA                                                                                                                                                                                                                                                                                                                                                                                                                                                                                                                                                                                                                                                                                                                                                                                                                                                                                                            JRB1         2121012 90   0             1 40000010000000111104315-Dec-1995
EA400568EA                                                                                                                                                                                                                                                                                                                                                                                                                                                                                                                                                                                                                                                                                                                                                                                                                                BAPTIST                                                                     DNG1         210010  40   0             3 30000011000000110140215-May-1996
EA400918EA1                                                                                                                                                                                                                                                                                                                                                                                                                                                                                                                                                                                                                                                                                                                                                                                                                                                                    BAPTIST                                JRB1         211000  50   0             1 40000110000010110165315-May-1996
EA401088EA1                                                                                                       PARTICIPATED IN WORKSHOP                                                                                      PARTICIPATED IN WORKSHOP                                                                                                                  DEPT. OF SOCIAL SERVICES                                                                                                                                                                                                                                                                                                                                                                                                                                                                                                                    JRB1         2110012 9100 0             3 30000010000000110011315-May-1996
EA401298EA1                                                                                                                                                                                                                                                                                                                                                                                                                                                                                                                                                                                                                                                                                                                                                                                                                                                                                                           JRB1         2 9000  80   0             3 40000001000010111150215-Jun-1996
EA401418EA1                                                                                                                                                                                                                                                                                                                                                                                                                                                                                                                                                                                                                                                                                                                                                                                                                                                                    BAPTIST                                JRB1         210000  50   0             1 40000010000010111062215-Aug-1996
EA401578EA0                                                                                                                                                                                                                                                                                                                                                                                                                                                                                                                                                                                       ENVIRONMENTAL HYGENIST                                                                                                            MILITARY                                                                                                                                                                          JRB0111000000111000  80   114 00  1  0 10 50100010000010100100115-Jan-1996
EA401858EA1                                                                                                                                                                                                                                                                                                                                                                                                                                                                                                                                                                                                                                                                                                                                                                                                                                                                    BAPTIST                                JRB1         1100012 90   114 00  70    2 40000011000000110162315-Jan-1995
EA402358EA                                                                                                        LABOR IN WAREHOUSE, PUTTING PAGES    OF BOOKS IN ORDER                                                        LABOR IN WAREHOUSE PRINTING AND PACKAGING BOOKS                                                                                           BINDER GRAPHICS                                                                                                                                                                                                                                                                                                                                                                                                                                                                                                                             BEB1         2110012 5120 0             4 30000010000001110000315-Mar-1997
EA402478EA                                                                                                                                                                                                                      HOUSEKEEPING IN THE EMERGENCY ROOM                                                                                                        GREATER BALTIMORE MEDICAL CENTER                                                                                                                                                                                                                                                                                                                                                                                                                                BAPTIST                                                                     NLG1         512100  1  040             3 31100010000010010041315-Mar-1996
EA402518EA1                                                                                                                                                                                                                     COOK                                                                                                                                      TEMPORARY AGENCY                                                                                                                                                                                                        TECHNICIAN                                                                                                                        HOSPITAL - GBMC                                                                                                                            BAPTIST                                JRB1         211000  1  02112110  1  05 3 41000110000010110063315-Aug-1996
EA403048EA                                                                                                                                                                                                                      WASH DISHES                                                                                                                               OLD COUNTRY BUFFET- RESTAURANT                                                                                                                                                                                                                                                                                                                                                                                                                                  BAPTIST                                                                     CET1         212110  1  010               21100010000010110044315-Mar-1997
EA403128EA                                                                                                                                                                                                                                                                                                                                                                                                                                                                                                                                                                                                                                                                                                                                                                                                                                BAPTIST                                                                     JAS02001000004 9200  70   0             1 10000001000000100043315-Jan-1997
EA403458EA1                                                                                                                                                                                                                     HOUSEKEEPING                                                                                                                              NURSING HOME                                                                                                                                                                                                                                                                                                                                                                                                                                                                                         METHODIST                              JRB1         312110  1  140             2 41000010000010011063315-Jul-1996
EA403998EA3                                                                                                                                                                                                                     CASHIER                                                                                                                                   GROCERY STORE                                                                                                                                                                                                                                                                                                                                                                                                                                                   METHODIST                                                                   MMT1         212100  2  050             3 31000000000001010042315-Sep-1996
EA404018EA                                                                                                                                                                                                                                                                                                                                                                                                                                                                            DEMOLITION WORK                                                                                             SIDE JOBS                                                                                                                         FOR OUR LANDLORD                                                                                                                           HOLYNESS                               JRB1         111000  70   1 7000  51 0  2 50000010000010111165315-Dec-1995
EA404148EA1                                                                                                                                                                                                                                                                                                                                                                                                                                                                                                                                                                                                                                                                                                                                                                                                                                                                                                           JRB1         211000  50   0             2 40000010000000100151315-Apr-1996
EA404228EA                                                                                                                                                                                                                                                                                                                                                                                                                                                                                                                                                                                                                                                                                                                                                                                             SOCIAL SERVICES                    BAPTIST                                                                     JAS1         2110012 40   0             1 21000000000100010042215-Apr-1997
EA404368EA                                                                                                                                                                                                                                                                                                                                                                                                                                                                                                                                                                                                                                                                                                                                                                                                                                BAPTIST                                                                     MMW1         210000  40   0             2 50000010000011110044215-Feb-1996
EA404508EA1                                                                                                       CUSTOMER SERVICE FOR A PAGER SERVICE COMPANY.  HELD ACCOUNTS AND DID BUSINESS WORK.                           CUSTOMER SERVICE AT A PAGER COMPANY, DOING BUSINESS WORK AND HANDLINGACCOUNTS                                                             PAGER COMPANY                                                                                                                                                                                                           TRUCK DRIVER                                                                                                                      COLLEGE PARK PUBLIC WORKS                                                                             BAPTIST                                                                     BEB1         114 00  4150 112110  1  03 5 40100000000000110040215-Aug-1996
EA404698EA                                                                                                                                                                                                                                                                                                                                                                                                                                                                                                                                                                                                                                                                                                                                                                                                                                PROTESTANT                                                                  CET1         3 7000  50   0             3110000010000010110044215-Dec-1997
EA404758EA                                                                                                                                                                                                                      MEDICAL ASSISTANT                                                                                                                         UNION MEMORIAL                                                                                                                                                                                                                                                                                                                                                                                                                                                                                       APOSTOLIC                              CET1         313 112 1  030             3 31100000001000010063315-Dec-1996
EA404978EA                                                                                                                                                                                                                      CASHIER                                                                                                                                   TJ MAX (DISCOUNT CLOTHING STORE)                                                                                                                                                                                        COOK                                                                                                                              DENNY'S RESTARAUNT                                                                                                                                                                BEB1         210200  2  15112110  1  02 6 51100001000010010000315-Nov-1996
EA405188EA1                                                                                                                                                                                                                     SECRETARY                                                                                                                                 FEDERAL GOVERNMENT                                                                                                                                                                                                                                                                                                                                                                                                                                                                                                                          JRB1         212110  1  060             6 31000000000000000002315-Mar-1996
EA405268EA0                                                                                                                                                                                                                                                                                                                                                                                                                                                                                                                                                                                       SECURITY GUARD                                                                                                                    SERVICE LINK                                                                                                                                                                      JAS1         111000  50   111000  1  03 4 30100100001000000000215-Nov-1996
EA405608EA                                                                                                                                                                                                                                                                                                                                                                                                                                                                                                                                                                                                                                                                                                                                                                                                                                BAPTIST                                                                     CET1         210000  50   0             2 50000011000000110145315-Nov-1996
EA405938EA                                                                                                                                                                                                                      SECURITY OFFICER,  GUARD A FOOD WAREHOUSE AND A BUSINESS OFFICE                                                                           PROFESSIONAL SECURITY                                                                                                                                                                                                   SENIOR CLERK AT JOHNS HOPKINS UNIVERSITY                         PUTS INFORMATION INTO COMPUTERS                                  JHUNIVERSITY                                                                                                                                                                      BEB1         212100  1  03113 011 1  05 5 51110000000000000010215-Jan-1997
EA406068EA1FAMILY AND SCHOOL RESPONSIBILITIES                                                                     YOUTH COUNSELOR                                                                                               COUNSELED TEENAGERS                                                                                                                       BALTIMORE CITY HEALTHY START                                                                                                                                                                                            CARPENTER                                                                                                                         CONSTRUCTION COMPANY                                                                                                                       BAPTIST                                JRB1         212121210170 112110  1  04 3 40010110000010110064315-Aug-1996
EA406198EA                                                                                                                                                                                                                                                                                                                                                                                                                                                                                                                                                                                        TRUCK DRIVER                                                                                                                      TRUCK DRIVING CO.                                                                                     BAPTIST                                                                     BEB1         111000  70   112100  1  03   50100001000000010040215-Apr-1997
EA406278EA                                                                                                                                                                                                                                                                                                                                                                                                                                                                                                                                                                                        PLUMBER                                                                                                                           PLUMBING COMPANY                                                                                      BAPTIST                                                                     CET0301000000212100  50   114 20  1  04 1 20000010000001110143315-Mar-1997
EA406318EA1                                                                                                       WAREHOUSE/ASSEMBLY LINE                                                                                       ASSEMBLY LINE                                                                                                                             WAREHOUSE                                                                                                                                                                                                                                                                                                                                                                                                                                                                                                                                   JRB1         2110112 91 0 0             2 70000010000011110103315-May-1996
EA406438EA                                                                                                        DAYCARE TEACHER                                                                                               =====================================================================                                                                     ====================================================================                                                                                                                                                    WELDER FOR STEEL COMPANY                                         BLASTS PIPES                                                     STEEL COMPANY                                                                                         PENTECOSTAL                                                                 BEB1         1 7000  7160 112110  1  04 5 50100010000010110045315-Feb-1998
EA406648EA                                                                                                                                                                                                                      MANAGER: RUN A BUSINESS CALLED "FRAGRANCE GALORE"                                                                                         FRAGRANCE GALORE                                                                                                                                                                                                        MACHINIST FOR GENERAL MOTORS                                                                                                      GENERAL MOTORS                                                                                                                                                                    SLA1         112100  2  06112110  1  0310 31100010000000010054315-Aug-1996
EA406708EA                                                                                                                                                                                                                      WORK AT SON'S SCHOOL ATTENDANCE MONITOR                                                                                                   SCHOOL- ELEMENTARY                                                                                                                                                                                                                                                                                                                                                                                                                                                                                                                          MPG1         111000  2  02114 00  70    4 31100010000000110013215-Mar-1997
EA406928EA1                                                                                                                                                                                                                     MANAGEMENT ANALYST-PROCURE, PHOTOCOPY EQUIPMENT SUPPLIES FOR S.S.    FIELD OFFICES ACROSS USA.                                            GOVERNMENT                                                                                                                                                                                                                                                                                                                                                                                                                                                      BAPTIST                                                                     JRB1         213 012 1  060             7 31100000000000000042215-May-1996
EA407248EA                                                                                                                                                                                                                      CASHIER                                                                                                                                   LENNY'S DELI                                                                                                                                                                                                            TEACHING KARATE SCHOOL                                                                                                            KARATE SCHOOL                                                      TELEMARKETING ON SIDE                                                                                          CET1         211010  1  05113 10  2  16 2 31000000000111010100115-Dec-1997
EA407398EA                                                                                                        HELPER IN A DAY CARE HOUSE                                                                                    DAY CARE,                                                                                                                                                                                                                                                                                                                                                                                                                                                                                                                                                                                                                                                                             JAS1         2100012 9130 0             1 40000010000011111151315-Jun-1997
EA407468EA                                                                                                                                                                                                                                                                                                                                                                                                                                                                                                                                                                                                                                                                                                                                                                                                                                BAPTIST                                                                     CET1         212100  70   112100  70    3 40000001001000000045215-Nov-1996
EA407528EA                                                                                                                                                                                                                      SUPERVISOR OF FOOD SERVICE                                                                                                                OGVEN FOOD ENTERTAINMENT                                                                                                                                                                                                                                                                                                                                                                                                     FOOD STAMPS                                                                                                    CET1         211000  2  040             3 41100000000110110001215-May-1997
EA407678EA                                                                                                                                                                                                                                                                                                                                                                                                                                                                                                                                                                                        WAREHOUSE - PACKS AND LOADS BOXES                                                                                                 ON SITE                                                                                                                                                                           CET1         2102012 50   1100012 1  02 1 40000010000000111151315-Mar-1997
EA407788EA1                                                                                                       TUTOR                                                                                                         TUTORED MIDDLE SCHOOL STUDENTS                                                                                                            SCHOOL                                                                                                                                                                                                                                                                                                                                                                                                                                                                                                                                      JRB1         216 30  5160 0             2 50000011000010111101315-Sep-1996
EA407808EA1                                                                                                                                                                                                                                                                                                                                                                                                                                                                                                                                                                                       WORKS IN A WAREHOUSE DRIVING FORKLIFTS                                                                                            WAREHOUSE                                                                                             METHODIST                                                                   CET1         2 9000  50   1  000  1  03 2 40100000001000010040115-Oct-1997
EA407958EA                                                                                                                                                                                                                      MENU CLERK, HANDING OUT TRAY TICKETS, PATIENT QUALITY, WORKS AT UM HOSPITAL                                                               UNIV OF MARYLAND HOSPITAL                                                                                                                                                                                                                                                                                                                                                                                                                                                                                                                   JAS1         212110  2  020             3 31000000000000010050315-Jan-1997
EA408008EA                                                                                                                                                                                                                                                                                                                                                                                                                                                                                                                                                                                                                                                                                                                                                                                                                                BAPTIST                                                                     DNG1         2 9000  50   0             1 30000010000000000040315-May-1996
EA408138EA1                                                                                                                                                                                                                                                                                                                                                                                                                                                                                                                                                                                                                                                                                                                                                                                                                                                                                                           JRB1         211000  70   0             1 50100000000000000000115-Jun-1996
EA408218EA                                                                                                                                                                                                                      LAUNDRY                                                                                                                                   PILDRAN LAUNDRY                                                                                                                                                                                                                                                                                                                                                                                                                                                 BAPTIST                                                                     MMW0101000000212100  2  020             2 41000000000000110141315-Sep-1996
EA408378EA                                                                                                                                                                                                                      ASSEMBLY LINE                                                                                                                             BARRETT BUSINESS SERVICE                                                                                                                                                                                                                                                                                                                                                                                                                                        PROTESTANT                                                                  MPG1         212100  1  030             3 91000001000011110042315-Jul-1997
EA408498EA                                                                                                                                                                                                                      DRIVE DELIVERY TRUCK                                                                                                                      ACME DELIVERY                                                                                                                                                                                                                                                                                                                                                                                                                                                   BAPTIST                                                                     CET1         212110  1  0 0             3 21000000000010111140215-Mar-1998
EA408658EA1                                                                                                       PIZZA MAKER AT MORGAN STATE UNIV.                                                                                                                                                                                                                                                                                                                                                                                                                                               SECURITY GUARD                                                                                                                    WATKINS SECURITY                                                                                      BAPTIST                                                                     CET1         211000  412  111000  1  03 2 50110100000010110043315-Apr-1998
EA408828EA                                                                                                                                                                                                                                                                                                                                                                                                                                                                                                                                                                                                                                                                                                                                                                                             MONEY FROM FAMILY                  BAPTIST                                                                     BEB1         3 9000  40   0             1 30000000001110110040215-Aug-1996
EA409098EA                                                                                                                                                                                                                      CASHIER                                                                                                                                   AIRMARK                                                                                                                                                                                                                                                                                                                                                                                                                                                         BAPTIST                                                                     CET1         212100  1  050             2 41000010000001110043315-Jun-1997
EA409178EA1                                                                                                       PRIVATE DUTY NURSE                                                                                                                                                                                                                                                                                                                                                                                                                                                              CONSTRUCTION                                                                                                                      CONSTRUCTION COMPANY                                                                                  BAPTIST                                                                     KYR1         212100  413  111200  1  02 1 50100010000011110140315-Oct-1998
EA409258EA                                                                                                                                                                                                                                                                                                                                                                                                                                                                                                                                                                                                                                                                                                                                                                                                                                BAPTIST                                                                     CET1         314 111 40   0             3 40000011000000110141315-Sep-1997
EA409408EA                                                                                                                                                                                                                                                                                                                                                                                                                                                                                                                                                                                                                                                                                                                                                                                                                                AFRICAN METHODIST EPISCOPALIAN                                              KYR1         211010  50   0             2 80000010000011110142215-Sep-1998
EA409588EA                                                                                                        CASHIER                                                                                                       CASHIER                                                                                                                                   SUPER FRESH MARKET                                                                                                                                                                                                                                                                                                                                                                                                                                              BAPTIST                                                                     KYR1         2100012 4150 0             3 50000011000010110042315-Jun-1998
EA409868EA                                                                                                                                                                                                                      ARRANGING CLOTHES/LAUNDRY                                                                                                                 LAUNDROMAT                                                                                                                                                                                                                                                                                                                                                                                                                                                                                                                                  AXK1         211000  1  020             2 51100010000010010014315-Aug-1998
EA409948EA                                                                                                                                                                                                                                                                                                                                                                                                                                                                                                                                                                                        MAINTENENCE WORKER                                                                                                                FACTORY                                                                                               BAPTIST                                                                     BEB1         111000  50   112100  1  0  5 60100000000001010042315-Mar-1998
EA410028EA                                                                                                                                                                                                                      DAY CARE PROVIDER                                                                                                                         WORKS IN-HOUSE DAY CARE                                                                                                                                                                                                                                                                                                                                                                                                                                                                                                                     CET1         314 10  1  030             5 31000000000010000155315-Apr-1998
EA410108EA                                                                                                                                                                                                                      POLICY ASSEMBLY FOR INSURANCE                                                                                                             INSURANCE COMPANY                                                                                                                                                                                                       PAINTER, COMMERCIAL PAINTER                                                                                                       PAINTING COMPANY                                                                                      PENTACOSTAL                                                                 MAP1         214 10  1  15112100  1  03 3 31100000001011010043315-Oct-1997
EA410518EA                                                                                                                                                                                                                                                                                                                                                                                                                                                                                                                                                                                        ELECTRICIAN                                                                                                                       PRIVATE CONTRACTOR                                                                                                                         CHRISTIAN                              MPG1         212 00  50   112210  1  04 9 70110110000000110061215-Jun-1997
EA410688EA                                                                                                                                                                                                                      INTERIOR DESIGNER                                                                                                                         SELF-EMPLOYED                                                                                                                                                                                                           CAPTAIN FOR BALTIMORE COUNTY POLICE DEPT.                                                                                         POLICE DEPT.                                                                                          EPISCOPALEAN                                                                MAK1         114 20  1  07116 312 1  1811 41100000000000000041215-May-1998
EA410848EA1                                                                                                                                                                                                                     OFFICE ASSISTANT- ADMINISTRATIVE WORK                                                                                                     THE STATE - DEPT. OF RENTERS TAX CREDIT                                                                                                                                                                                                                                                                                                                                                                                                                                                                                                     CET1         413 00  1  050             4 21000000000000000101215-Oct-1997
EA410968EA                                                                                                                                                                                                                                                                                                                                                                                                                                                                                                                                                                                                                                                                                                                                                                                            0                                   BAPTIST                                                                     CET0310000000111010  70   0             2 10000001000000000042 15-Mar-1997
EA411038EA                                                                                                                                                                                                                      NURSING ASSISTANT                                                                                                                         NURSING HOME                                                                                                                                                                                                                                                                                                                                                                                                                0                                   BAPTIST                                                                     CET1         310210  1  130             6 11000000000010010042315-Mar-1997
EA411118EA1                                                                                                                                                                                                                     CLERICAL                                                                                                                                  DEPARTMENT OF SOCIAL SERVICES, STATE OF MARYLAND                                                                                                                                                                                                                                                                                                                                                                                                                ============================================================================MAP1         214 10  1  050             3 210000000000001101 2315-Jan-1998
EA411248EA                                                                                                                                                                                                                      COOK FOOD                                                                                                                                 CAFETERIA                                                                                                                                                                                                               BUILDING MAINTENANCE                                                                                                              PRIVATE CONTRACTOR                                                                                    BAPTIST                                                                     KYR1         111010  1  02112100  2  03 4 41100010000010110143315-Jun-1998
EA411398EA                                                                                                                                                                                                                                                                                                                                                                                                                                                                                                                                                                                                                                                                                                                                                                                                                                BAPTIST                                                                     MAK1         210000  50   0             1 61000001000011110040215-Nov-1998
EA411528EA-                                                                                                                                                                                                                     CAFETERIA  FOOD SERVICE                                                                                                                   A HIGH SCHOOL (CARVER)                                                                                                                                                                                                                                                                                                                                                                                                                                          BAPTIST                                                                     JGH1         212100  1  020             8 31010100000010110040315-Sep-1998
EA411678EA                                                                                                                                                                                                                      NURSE                                                                                                                                     MARINER HEALTH OF GLEN BURNIE                                                                                                                                                                                                                                                                                                                                                                                                                                   BAPTIST                                                                     CET1         214 011 1  081100111 70    5 31000000010000010044315-Jun-1998
EA411788EA                                                                                                                                                                                                                                                                                                                                                                                                                                                                                                                                                                                                                                                                                                                                                                                                                                                                                                            CET1         413 10  70   0             5 60000011000011010055215-Feb-1998
EA411958EA                                                                                                                                                                                                                      PACKER                                                                                                                                    LINEN COMPANY                                                       ====================================================================================================================================================LABORER                                                                                                                           WAREHOUSE                                                         ====================================METHODIST                            =======================================KYR1         1 9000  1  021 9000  1  02 3 31100010000010110041315-Sep-1998
EA412078EA                                                                                                                                                                                                                      DIETARY  COOK FOR FOR RESIDENTS IN A NURSING HOME                                                                                         NURSING HOME                                                                                                                                                                                                            MAINTENANCE AND CLEAN UP                                                                                                          AT A MALL                                                                                                                                                                         KYR1         110000  1  02110000  2  03 6 51100000000000110012315-Sep-1998
EA412158EA                                                                                                                                                                                                                      SUPERVISOR OF JANITORIAL SERVICES                                                                                                         JANITORIAL COMPANY                                                                                                                                                                                                                                                                                                                                                                                                                                                                                                                          KYR1         211000  2  010             2 31000011000000110100115-Jan-1999
EA412308EA                                                                                                                                                                                                                                                                                                                                                                                                                                                                                                                                                                                                                                                                                                                                                                                                                                BAPTIST                                                                     KYR1         2 7000  70   0             3 20000001000010011145315-Dec-1998
EA412428EA                                                                                                                                                                                                                      ASSEMBLY WORK                                                                                                                             GUMBALL MACHINE PRODUCTION COMPANY                                                                                                                                                                                                                                                                                                                                                                                                                              METHODIST                                                                   KYR1         310010  1  030             3 41000010000010110040315-Sep-1998
EA412748EA                                                                                                                                                                                                                                                                                                                                                                                                                                                                                                                                                                                                                                                                                                                                                                                                                                BAPTIST                                                                     BEB1         2 9000  70   0             3 20100100100011010044315-Jan-1998
EA412898EA0                                                                                                       DISPATCHER FOR YELLOW CAB SERVICE                                                                             DISPATCH SERVICE VEHICLES; CUSTOMER SERVICE                                                                                               YEKLLOW CAB TRANSPORTATION                                                                                                                                                                                              ==================================================================================================================================JOHNS HOPKINS UNITVERSITY                                                                             BAPTIST                                                                     KYR03100000001 9210  4140 112110  1  0  3 20100000100000000041315-Jan-1999
EA413258EA                                                                                                                                                                                                                                                                                                                                                                                                                                                                                                                                                                                                                                                                                                                                                                                            ]                                                                                                               CET1         314 20  70   0             4 40000001000000100130115-Apr-1998
EA413338EA                                                                                                                                                                                                                      NURSING ASSISTANT                                                                                                                         HOSPITAL                                                                                                                                                                                                                LABORER                                                                                                                           CITY GOVERNMENT                                                                                       HOLINESS                                                                    KYR1         212140  1  03112110  1  02 8 41100100000010010044315-Jun-1998
EA413408EA                                                                                                                                                                                                                                                                                                                                                                                                                                                                                                                                                                                                                                                                                                                                                                                                                                HOLINESS                                                                    CET1         2 80112 40   0             1 30000011000011110143215-Jan-1998
EA413618EA                                                                                                                                                                                                                                                                                                                                                                                                                                                                                                                                                                                        JANITORIAL/MAINTENANCE                                                                                                            JANITORIAL CONTRACT COMPANY                                                                           BAPTIST                                                                     KYR1         112100  50   111210  2  01 2 40100001000010010042315-Dec-1998
EA413728EA                                                                                                        ASSEMBLY LINE WORK                                                                                            00                                                                                                                                        0                                                                                                                                                                                                                                                                                                                                                                                                                                                               BAPTIST                                                                     JGH1         2110012 9130 0             5 41000010000000110044215-Aug-1998
EA413868EA1                                                                                                       WORKED AS A SUBSTITE TEACHER                                                                                  --------------------------------------------------------------------------------------------------------------------------------------------------------------------------------------------------------------                                                                                                                                                                                                                                                                                                                                                                                            BAPTIST                                                                     JGH1         414 10  4160 0             2 31010010000010110143315-Jul-1998
EA413948EA                                                                                                                                                                                                                      DIETARY AIDE                                                                                                                              NURSING HOME                                                                                                                                                                                                                                                                                                                                                                                                                                                    BAPTIST                                                                     KYR1         211010  2  020             1 21000000000010110040315-Sep-1999
EA414068EA                                                                                                                                                                                                                                                                                                                                                                                                                                                                                                                                                                                                                                                                                                                                                                                                                                BAPTIST                                                                     KYR1         212110  40   0             1 30000010000010110144315-Jul-1998
EA414278EA                                                                                                                                                                                                                      PRESENTATIONS OF HIV AND AIDS PREVENTION                                                                                                  BALTIMORE PUBLIC SCHOOLS                                                                                                                                                                                                                                                                                                                                                                                                                                                                             BAPTIST, WILL GO TO DIFFERENT FAITH CHUMAK1         310010  3  0 0             2 51000010000000111164315-Mar-1999
EA414318EA1                                                                                                                                                                                                                     HOUSEKEEPING                                                                                                                              A HOTEL                                                                                                                                                                                                                                                                                                                                                                                                                                                                                                                                     JGH1         211000  1  130             7 51000001000011110152315-Sep-1998
EA414438EA                                                                                                                                                                                                                                                                                                                                                                                                                                                                                                                                                                                                                                                                                                                                                                                                                                BAPTIST                                                                     KRW1         2 8000  60   0             3 60100011000010110045315-Dec-1998
EA414558EA                                                                                                                                                                                                                                                                                                                                                                                                                                                                                                                                                                                                                                                                                                                                                                                             GOVERNMENT STIPEND FOR FOSTER CARE BAPTIST                                                                     CET1         511000  50   0             5 71000000000101110045315-Apr-1998
EA430118EA                                                                                                                                                                                                                      NURSING TECHNICIAN                                                                                                                        EXCEL STAFF BUILDERS (NURSING AGENCY)                                                                                                                                                                                                                                                                                                                                                                                                                           BAPTIST                                                                     JAS1         212110  1  130             5 21010000000000110041315-Mar-1997
EA430248EA                                                                                                                                                                                                                      SECURITY OFFICER                                                                                                                          RITE AID                                                                                                                                                                                                                                                                                                                                                                                                                                                                                             HOLINESS                               CET1         212100  1  030             4 21000000000000010064315-May-1997
EA430398EA                                                                                                                                                                                                                      PRESSER IN A FACTORY, SEWING, PRESSING MEN'S CLOTHES                                                                                      CLOTHING COMPANY                                                                                                                                                                                                                                                                                                                                                                                                                                                BAPTIST                                                                     BEB1         212100  1  030             3 21000100000000010042315-Feb-1998
EA430468EA                                                                                                                                                                                                                      OFFICE ASSISTANT, MAKE PHOTOCOPIES OF DOCUMENTS, ENTER DATA INTO     COMPUTER                                                             WORKMANS COMPENSATION COMMISSION                                                                                                                                                                                                                                                                                                                                                                                                                                                                                                            BEB1         212110  1  050             3 51000100000000110000315-Mar-1997
EA430528EA1                                                                                                       HOUSEKEEPING                                                                                                  HOUSEKEEPING                                                                                                                              PRIVATE COMPANY                                                                                                                                                                                                                                                                                                                                                                                                                                                                                                                             JRB1         211210  41 0 0             2 40000110000010110100315-Jan-1996
EA430678EA1                                                                                                       PARKING CARS OVER AT BASEBALL STADIUM                                                                         ==============================================================================================================================================================================================================                                                                                                                                                                                                                                                                                                                                                                                            BAPTIST                                                                     BEB1         212100  8120 0             6 70000000001010010041215-Nov-1997
EA430788EA                                                                                                                                                                                                                                                                                                                                                                                                                                                                                                                                                                                                                                                                                                                                                                                                                                METHODIST                                                                   BEB1         2 8000  50   1 8000  70    3 50000011000000110043315-Mar-1997
EA430958EA                                                                                                                                                                                                                                                                                                                                                                                                                                                                                                                                                                                        CONSTRUCTION                                                                                                                      ARYERS CORP.                                                                                          BAPTIST                                                                     CET1         111010  40   111000  2  02 7 40100010000000110040215-Feb-1997
EA431048EA                                                                                                                                                                                                                      NURSES AIDE, TAKE CARE OF PATIENTS, BATHE THEM, FEED THEM, HELP      THEM GET TO THE BATHROOM                                             NURSING HOME                                                                                                                                                                                                            CONSTRUCTION WORKER                                                                                                               LUPTON CALS CONSTRUCTION COMPANY                                                                      BAPTIST                                                                     BEB1         112110  1  03114 10  1  02 6 41100000000000110042215-Oct-1997
EA431128EA                                                                                                                                                                                                                                                                                                                                                                                                                                                                                                                                                                                                                                                                                                                                                                                                                                BAPTIST                                                                     CET1         211010  50   0             3 50000010000010110042315-Jan-1997
EA431388EA1                                                                                                       SHORT ORDER COOK                                                                                              COOK                                                                                                                                      RESTAURANT                                                                                                                                                                                                              MAINTANCE, GROUNDSKEEPING                                                                                                         "TIME GROUP"                                                                                                                                                                      JRB1         112100  5120 112100  1  02 2 40000010000010110150315-May-1996
EA431458EA                                                                                                                                                                                                                      FINANCING RESPONSIBLE                                                                                                                     MVA                                                                                                                                                                                                                                                                                                                                                                                                                                                             BAPTIST                                                                     DNG1         212100  1  050             3 31000001000010010142315-Mar-1996
EA431668EA                                                                                                                                                                                                                                                                                                                                                                                                                                                                                                                                                                                                                                                                                                                                                                                                                                BAPTIST                                                                     BEB1         212110  40   0             2 20010010000010110142215-May-1997
EA431778EA                                                                                                                                                                                                                      WAREHOUSE- PACKING AND SHIPPING                                                                                                           WAREHOUSE                                                                                                                                                                                                                                                                                                                                                                                                                                                                                                                                   CET1         211200  1  02111000  40    3 31000010000000110110115-Feb-1998
EA431818EA                                                                                                                                                                                                                      ANESTHESIA ASSISTANT- SET UP GAS MACHINES, DRUGS FOR THE NURSES                                                                           HOSPITAL                                                                                                                                                                                                                                                                                                                                                                                                                                                        BAPTIST                                                                     BEB1         2 8200  1  040             7 41100000000000010041315-Dec-1997
