EA400158EA01100010000000000000000000                                                   111001000000JRB15-Dec-1995
EA400568EA01100000000000000000000000                                                   101101010000DNG15-May-1996
EA400918EA00000000000000000000000000                                                   111100000000JRB15-May-1996
EA401298EA00013303303330000000000000                                                   0   10010000JRB15-Jun-1996
EA401418EA00000000000000000000000000                                                   111000000000JRB15-Aug-1996
EA401578EA12001000000000000000000000                                                   0   01100100JRB15-Jan-1996
EA401858EA10000000100000000000000000                                                   111100000100JRB15-Jan-1995
EA402358EA03000200000000000000000000                                                   0   00000000BEB15-Mar-1997
EA402478EA00000000000000000000000000                                                   111101000000NLG15-Mar-1996
EA402518EA01100000020000000003000000                                                   0   01000000JRB15-Aug-1996
EA403048EA00000000000000100000000000                                                   0   00000000CET15-Mar-1997
EA403128EA01100001000100000000000000                                                   0   00000000JAS15-Jan-1997
EA403998EA00000000000000000000000000                                                   101100000000MMT15-Sep-1996
EA404018EA00000000000000000000000000                                                   111100000000JRB15-Dec-1995
EA404148EA31000000000000000000000000                                                   0   00100010JRB15-Apr-1996
EA404228EA13300000000000000001000000                                                   101101010000JAS15-Apr-1997
EA404368EA00000000000000000000000000                                                   111000000000MMW15-Feb-1996
EA404508EA00000000000000000000000000                                                   0   00000000BEB15-Aug-1996
EA404698EA00100000000000000000000000                                                   0   10010000CET15-Dec-1997
EA404758EA02100000000010000001000000                                                   0   01000000CET15-Dec-1996
EA404978EA01000000110100000002000000                                                   0   01110011BEB15-Nov-1996
EA405188EA01100000000000100000000000                                                   111000000000JRB15-Mar-1996
EA405268EA00000000000000000000000000                                                   111100000000JAS15-Nov-1996
EA405608EA00000000000000000000000000                                                   111000000000CET15-Nov-1996
EA405938EA00000000000000000000000000                                                   111000000000BEB15-Jan-1997
EA406068EA01100000000000000000000000                                                   111100000000JRB15-Aug-1996
EA406198EA00000000000000000000000000                                                   111000000000BEB15-Apr-1997
EA406278EA01000000000001000002000002RUBS HIS PRIVATE PARTS ON THE FLOOR                0   01000000CET15-Mar-1997
EA406318EA13301001100010000001000100                                                   0   01000000JRB15-May-1996
EA406438EA00000000000000000000000000                                                   100000000000BEB15-Feb-1998
EA406648EA00000000000000000000000000                                                   100000000000SLA15-Aug-1996
EA406708EA01000000000000000000000000                                                   100100000000MPG15-Mar-1997
EA406928EA11100000000000000000000000                                                   0   00000000JRB15-May-1996
EA407248EA01001000000000100000000000                                                   0   00000000CET15-Dec-1997
EA407398EA00000000010000100001000000                                                   0   01010000JAS15-Jun-1997
EA407468EA00000000000000000000000000                                                   111100001110CET15-Nov-1996
EA407678EA30000000000000000000000000                                                   0   01000010CET15-Mar-1997
EA407788EA03120010000000000000000000                                                   0   01010000JRB15-Sep-1996
EA407808EA03000000000000000000000000                                                   0   01000000CET15-Oct-1997
EA407958EA00000000000000000000000000                                                   0   00000000JAS15-Jan-1997
EA408008EA 0000000000000000000000000                                                   100001110000DNG15-May-1996
EA408138EA00000000000000000000000000                                                   100000000000JRB15-Jun-1996
EA408218EA00000000000000000000000000                                                   111000000000MMW15-Sep-1996
EA408378EA00000000000000000000000000                                                   111000010000MPG15-Jul-1997
EA408498EA00000000000000000000000000                                                   111110000000CET15-Mar-1998
EA408658EA20000000000000000000000000                                                   111100000000CET15-Apr-1998
EA408828EA00000000000000000000000000                                                   111000000000BEB15-Aug-1996
EA409098EA01000000000000000000000000                                                   0   00000000CET15-Jun-1997
EA409178EA00000000000000000000000000                                                   111110000000KYR15-Oct-1998
EA409258EA02000000000000000000000000                                                   0   00000000CET15-Sep-1997
EA409408EA01000000000000000001000000                                                   0   00000000KYR15-Sep-1998
EA409588EA30000000000000000000000000                                                   100100000000KYR15-Jun-1998
EA409868EA00000000000000000000000000                                                   111000000000AXK15-Aug-1998
EA409948EA00000000000000000000000000                                                   110000000000BEB15-Mar-1998
EA410028EA01000000000000000000000000                                                   0   00000000CET15-Apr-1998
EA410108EA00000000000000000000000000                                                   100100000000MAP15-Oct-1997
EA410518EA00000000000000000000000000                                                   101110000000MPG15-Jun-1997
EA410688EA10000000000000100000000000                                                   111100000010MAK15-May-1998
EA410848EA00000000000000000000000000                                                   111100000000CET15-Oct-1997
EA410968EA30000000000000100000000000                                                   0   00010000CET15-Mar-1997
EA411038EA10000011000000000000000000                                                   0   00000000CET15-Mar-1997
EA411118EA01100000100001000000000000                                                   0   01000000MAP15-Jan-1998
EA411248EA30000000000000000000000000                                                   100001000000KYR15-Jun-1998
EA411398EA00000000000000000000000000                                                   0   01000000MAK15-Nov-1998
EA411528EA00000000000000000000000000                                                   111000000000JGH15-Sep-1998
EA411678EA00000000000000000000000000                                                   111100000000CET15-Jun-1998
EA411788EA00000000000000000000000000                                                   101101000000CET15-Feb-1998
EA411958EA00100000000000000000000000                                                   0   00010000KYR15-Sep-1998
EA412078EA00000000000000000000000000                                                   111100000000KYR15-Sep-1998
EA412158EA00000000000000000000000000                                                   101001000000KYR15-Jan-1999
EA412308EA00000000000000000000000000                                                   100010000000KYR15-Dec-1998
EA412428EA00001000000000000000000000                                                   0   10000001KYR15-Sep-1998
EA412748EA00000000000000000000000000                                                   100000000000BEB15-Jan-1998
EA412898EA23000001000100000000000000                                                   0   00000000KYR15-Jan-1999
EA413258EA00000000000000000000000000                                                   111000000000CET15-Apr-1998
EA413338EA00000000000000000000000000                                                   100000000000KYR15-Jun-1998
EA413408EA00000000000000000000000000                                                   111000000000CET15-Jan-1998
EA413618EA20000000000000000000000000                                                   100000000000KYR15-Dec-1998
EA413728EA00000000000000000000000000                                                   111000000000JGH15-Aug-1998
EA413868EA03111001110101000001000000                                                   0   00010000JGH15-Jul-1998
EA413948EA00000000000000000000000000                                                   100001000000KYR15-Sep-1999
EA414068EA00000000000000000000000000                                                   100000000000KYR15-Jul-1998
EA414278EA20000000000000000000000000                                                   111001000000MAK15-Mar-1999
EA414318EA03000000000000000000020000                                                   0   00000000JGH15-Sep-1998
EA414438EA00000000000000000000000000                                                   111101000010KRW15-Dec-1998
EA414558EA011300 0000000300000012001TAKES OFF HER PANTIES AT HOME WHEN OTHERS ARE AROUN0   01000010CET15-Apr-1998
EA430118EA00000000000000000000000000                                                   111010000000JAS15-Mar-1997
EA430248EA00000000000000000000000000                                                   100100000000CET15-May-1997
EA430398EA00000000000000000000000010                                                   0   10000000BEB15-Feb-1998
EA430468EA00000000000000000000000000                                                   101100000000BEB15-Mar-1997
EA430528EA00000000000000000000000000                                                   111000000000JRB15-Jan-1996
EA430678EA03000000000000000000000000                                                   0   00000000BEB15-Nov-1997
EA430788EA00000000000000000100000000                                                   101101000000BEB15-Mar-1997
EA430958EA00000000000000000000000000                                                   0   01000000CET15-Feb-1997
EA431048EA03000000000000000000000000                                                   0   00000000BEB15-Oct-1997
EA431128EA00000000000000000000000000                                                   0   00000000CET15-Jan-1997
EA431388EA01000000000000000000000000                                                   0   00000000JRB15-May-1996
EA431458EA00000000000000300000000000                                                   111101000000DNG15-Mar-1996
EA431668EA01000000000100000000000000                                                   0   00000000BEB15-May-1997
EA431778EA00000000000000000000000000                                                   101100000000CET15-Feb-1998
EA431818EA02300100100000000000000000                                                   0   00000000BEB15-Dec-1997
EA432068EA00000000000000000000000000                                                   111001000000MAK15-May-1998
EA432558EA00000000000000000000000000                                                   111100000000JRB15-Dec-1995
EA432648EA03200000000000000000000000                                                   0   00000000BEB15-Aug-1997
EA432708EA01000000000000000000000000                                                   100101000000BEB15-Oct-1997
EA432928EA10000000000000000000000000                                                   111001000000CET15-May-1997
EA433088EA01000000000000000000000000                                                   0   00000000CET15-Jan-1997
EA433348EA02000000000000000000000000                                                   111001000000JRB15-May-1996
EA433578EA01000000000000000000000000                                                   0   00000000JRB15-Jul-1996
EA433738EA00000000000000000000000000                                                   111000000000BEB15-Feb-1997
EA433908EA00000000000000000000000000                                                   11100 000010BST15-Oct-1996
EA434268EA01000000000000200000000000                                                   0   00000000JRB15-Aug-1996
EA434598EA02101000110000000000000100                                                   0   11000000CET15-Feb-1997
EA434938EA00000000000000300003000000                                                   0   00010000JAS15-May-1997
EA435228EA00000000000000000000000000                                                   101001010000CET15-Mar-1997
EA435488EA20000000000000000001000000                                                   0   01000000ACG15-Mar-1998
EA435508EA00300000000000101000000000                                                   0   01000000BEB15-Nov-1997
EA435698EA00000000000000000000000000                                                   1   00000000DNG15-Aug-1996
EA435758EA00000000000000000000000000                                                   111000000000BEB15-Jan-1997
EA435838EA00000000000000000000000000                                                   111011000000CET15-Oct-1997
EA435978EA00000000000000000000000000                                                   111001000000KYR15-Oct-1998
EA436028EA00000000000000000000000000                                                   111101000000BEB15-Feb-1997
EA436238EA10000000010000000001000000                                                   0   01000000KYR15-Jan-1999
EA436358EA22100000000000000000000000                                                   0   00000000BEB15-Jan-1998
EA436848EA01000000200000000000000000                                                   0   10000000MAK15-Jan-1999
EA436968EA10001000000000000000000000                                                   0   01000000KYR15-Oct-1998
EA437078EA23300000000000000001020000                                                   0   01000000JAS15-Apr-1997
EA437158EA01201200000010000002000100                                                   0   11010010JTB15-Nov-1997
EA437308EA00000000000000000000000000                                                   101100000000MPG15-May-1997
EA437428EA03000000000000000000000000                                                   0   00000000CET15-Jan-1997
EA437568EA21000000000000000000000000                                                   101100000000KYR15-Oct-1998
EA437748EA01000000000000000000000000                                                   0   00000000CET15-Apr-1997
EA437898EA01000000000000000000000000                                                   100000000000KYR15-Jun-1998
EA438178EA01000000000000000000000000                                                   0   00000000CET15-Dec-1997
EA438258EA30000000000000000000000000                                                   0   00000000CET15-Mar-1998
EA438408EA02200000000000000000000000                                                   0   11000000LJL15-Jan-1999
EA438588EA12200000000000000000000000                                                   0   00000000JRB15-Aug-1996
EA438618EA20100000100000000000000000                                                   0   00001111KRW15-Jan-1999
EA438728EA00000000000000000000000000                                                   111101000010MAP15-Nov-1997
EA438868EA03000000000000000001000000                                                   0   00000000JRB15-Jun-1996
EA439008EA00000000000000200000000000                                                   0   00000000BEB15-Sep-1997
EA439138EA32200000000000100000000000                                                   0   00101111CET15-Feb-1997
EA439218EA00000000000000000001000000                                                   0   00000000BEB15-Apr-1997
EA439378EA01100000000000000000000000                                                   0   01000000BEB15-Aug-1997
EA439658EA00000000000000003000020000                                                   0   00001111KYR15-Apr-1999
EA439828EA00000000000000000000000000                                                   111000000000BEB15-Apr-1997
EA439988EA03030000000000000000000000                                                   0   00000000CET15-Jun-1997
EA440098EA03300001100000000000000001HE WILL TALK ABOUT GIRLFRIEND, AND KISSING HER     0   01000000BEB15-Jun-1997
EA440178EA00000000000000000000000000                                                   101000010000BEB15-May-1997
EA440338EA00000000000000000000000000                                                   100000000011JGH15-Jan-1999
EA440408EA11000000000000000000000000                                                   0   00000000CET15-Mar-1998
EA440588EA00000000000000200000000000                                                   0   00000000JRB15-Aug-1996
EA440728EA01000000000000000000000000                                                   0   00000000CET15-Aug-1998
EA440868EA00000000000000000000000000                                                   111000000000CET15-May-1998
EA440948EA00000000000000000000000000                                                   101000000000BEB15-Apr-1998
EA441268EA10000000000000000000000000                                                   0   00000000ACG15-Feb-1998
EA441448EA00000000000000000000000000                                                   110000000000CET15-Mar-1998
EA441598EA22110000100000200001000000                                                   0   01010000JAS15-Jul-1997
EA441608EA12000000000000000000000000                                                   111111000000BEB15-Feb-1998
EA441718EA00000000000000000000000000                                                   100000000000MAK15-Jun-1998
EA442008EA00100000000000100000000000                                                   0   00000000BEB15-Jan-1997
EA442138EA01000000000010000000000000                                                   0   00000000ACG15-Mar-1998
EA442498EA00000000000000000000000000                                                   100100000000KRW15-Mar-1999
EA442548EA03100000000000000000000000                                                   0   00000001JGH15-Dec-1998
EA442658EA00000000000000000000000000                                                   100000000000JAS15-Jun-1997
EA442828EA00000000000000000000000000                                                   111000000000MAK15-May-1998
EA442988EA01000000000000000000000000                                                   0   00000010TLT15-Jan-1999
EA443028EA02000000000000000000000000                                                   0   10000000KYR15-Oct-1999
EA443108EA22000000000000000000000000                                                   0   10000000CET15-Jul-1997
EA443518EA20000000000000000000000000                                                   0   01000000CET15-Feb-1998
EA443688EA00000000000000000000000000                                                   111000000000ACG15-Feb-1998
EA443798EA02000000000000000001000000                                                   0   10010000CET15-Aug-1997
EA443968EA20001000000100000000000000                                                   0   00000000KYR15-Sep-1998
EA444048EA00010000000200001002000000                                                   0   11000000KYR15-Sep-1998
EA444818EA00000000000000000000000000                                                   111100000000KRW15-Feb-1999
EA445288EA00000000000000000000000000                                                   111001000000CXM15-Apr-1999
EA450348EA00000000000000000000000000                                                   101100000000BEB15-Jan-1997
EA450418EA10000000000000000000000000                                                   0   01000000ACG15-Jan-1998
EA450578EA00000000000000000001000000                                                   0   10000000JRB15-Aug-1996
EA450628EA01000000000000000000000000                                                   111100000000BEB15-Oct-1997
EA450738EA00000000000000000000000000                                                   111100000000BEB15-Feb-1997
EA450858EA00000000000000000000000000                                                   101101000000KYR15-Jun-1998
EA451258EA00000000000000000000000000                                                   111000000000MMT15-Sep-1996
EA451338EA00000000000000000000000000                                                   111100000000JAS15-Feb-1997
EA451588EA03000000000000000001000000                                                   0   00000000CET15-May-1997
EA451868EA02101100100000000000000000                                                   0   01010000BEB15-Mar-1997
EA451948EA22202001211001000001020000                                                   0   01000010BEB15-Jul-1996
EA452018EA00000000000000000000000000                                                   100100001101BEB15-Apr-1997
EA452368EA00000000000000000000000000                                                   111101000000JAS15-Nov-1996
EA452488EA20000000000000000000000000                                                   111100000000BEB15-Jan-1998
EA452508EA00000000000000200000000000                                                   0   00000000BEB15-Dec-1996
EA452698EA01000000000000000000000000                                                   111100000000CET15-Nov-1996
EA452758EA10300003300300000000000000                                                   0   01000000JRB15-Aug-1996
EA452838EA01000000000000000000000000                                                   0   00000000DNG15-Jul-1996
EA453038EA03000000000000000000000000                                                   0   00000000MAK15-Jan-1998
EA453118EA01000000000100000000000000                                                   0   10100111BEB15-Apr-1998
EA453248EA00000000000000000000000000                                                   111110000000CET15-Jul-1998
EA453468EA02200000000010100002000000                                                   0   01000100KYR15-Oct-1998
EA453528EA00000000000000000000000000                                                   111100000000CET15-Mar-1998
EA453958EA00000000000000000000000000                                                   111000000000JGH15-Aug-1998
EA454008EA21100000000000200001000000                                                   0   01100000MPG15-Feb-1997
EA454138EA02000000000000000001000100                                                   0   10000000KYR15-Oct-1998
EA454378EA00000000000000300000000000                                                   0   00000000MAK15-Jan-1999
EA454548EA00110000000000000000000000                                                   0   00000000TLT15-Feb-1999
EA454658EA12200000310010200000001100                                                   0   10000000BEB15-Feb-1997
EA454768EA01100000000010000000000000                                                   0   00000000CET15-Jul-1998
EA454988EA12000000000000000000000000                                                   0   00000000BEB15-Apr-1998
EA455068EA01100000100000000000000000                                                   0   01010000KRW15-Feb-1999
EA455278EA00000000000000000000000000                                                   111100000000KRW15-Mar-1999
EA455318EA01100000000000002000030000                                                   0   00000011KYR15-Jun-1999
EA455558EA01100000010010000002000000                                                   0   11000000KYR15-Sep-1998
EA455708EA00000000000000000000000000                                                   111100001111CET15-Oct-1997
EA455888EA01000000000000000000000000                                                   101101000000CXM15-Apr-1999
EA455928EA00000000000000000000000000                                                   111 00100000CET15-Apr-1998
EA456288EA02000000000000002001000000                                                   0   01000000BEB15-Apr-1998
EA456308EA02300000000000000000000000                                                   111101000000MAK15-May-1998
EA456428EA01000011000001000000001100                                                   0   0000  00BEB15-Mar-1998
EA456638EA00000000000000000000000000                                                   101110000000BEB15-Feb-1998
EA456748EA12300000000000000000000000                                                   0   00000001TLT15-Nov-1998
EA456898EA00000000000000000000000000                                                   111100000000KRW15-Jun-1999
EA457478EA00000000000000100000000000                                                   0   10000000JGH15-Aug-1998
EA457518EA10000000000000000000000000                                                   111100001100KYR15-Sep-1998
EA457688EA01000000000000000000000000                                                   0   10000000JGH15-Sep-1998
EA458048EA21000000000000000000000000                                                   100101000000KYR15-Jun-1998
EA458128EA00000000100100101001000000                                                   0   01000000MAK15-Jul-1999
EA458208EA20000000000000000000000000                                                   100100000000KYR15-Sep-1999
EA458458EA00000000000000000000000000                                                   101100000000AP 15-Apr-2000
EA458668EA00000000000000000000000000                                                   100000000000KYR15-Aug-1999
EA458818EA01000000000000000000000000                                                   0   00000000KYR15-Apr-1999
EA458998EA10000000000020000000000000                                                   0   01000000KYR15-Apr-1999
EA459188EA00000000000000000000000000                                                   111100000000KYR15-Feb-1999
EA459328EA03000000000000000000000000                                                   111100000000MAK15-Mar-1999
EA459878EA00000000000000000000000000                                                   100000000000KYR15-Dec-1999
EA459938EA01000000000000000000010000                                                   0   10000000KYR15-Sep-1998
MW000138MW00000000000000000000000000                                                   100000000000KS 15-Dec-1999
MW001368MW11000000000000000000000000                                                   0   01000000RRJ15-Feb-2003
MW001488MW23300000000000000000000000                                                   0   00000000EW 15-Jun-2002
MW001508MW00000000000000000000000000                                                   111101000000EW 15-Jan-2001
MW001698MW00000000000000000000000000                                                   111000000000TTW15-Apr-2002
MW001758MW01100000000000000001000000                                                   0   01000000EW 15-Jun-2000
MW001978MW00000000000000000000000000                                                   100000000000LF 15-May-2001
MW002178MW02000000000000000000000000                                                   0   00000000CAK15-Aug-1999
MW002258MW02000000000000000000000010                                                   0   00000000CAK15-Feb-2000
MW002338MW10100000000000000000000000                                                   0   00000000FJN15-Jun-2000
MW002588MW02100000000000000000000000                                                   0   00000000CAK15-Oct-1999
MW002728MW00021000000000000002000000                                                   0   00000000FJN15-Jun-2000
MW002868MW02200000000300000000000000                                                   0   01000000EW 15-Jun-2000
MW003068MW33310100100020203003000132STICK OUT HER TONGUE & RUBS HER LIPS (PROVACATIVELY0   01001111KS 15-Sep-1999
MW003198MW02000000000000100000000000                                                   0   00000000FJN15-Aug-2000
MW003278MW01000000000000000000000000                                                   0   10000000CAK15-Apr-2000
MW003318MW01000000000000000000000000                                                   0   00000000RLH15-Mar-2000
MW003558MW00000000000000000000000000                                                   111100000000CAK15-Sep-1999
MW003648MW00000000000000100000000000                                                   0   11000000BSH15-Oct-2001
MW003708MW02200000000000000000000000                                                   0   00000000TTW15-May-2002
MW003888MW00000000000000000000000000                                                   111001000000RRJ15-Dec-2001
MW003928MW00100000020000000001000000                                                   0   00000010RLH15-Mar-2000
MW004088MW10000000000000000000000000                                                   101100000000LF 15-May-2001
MW004168MW00000000000000000000000000                                                   100000000000CAK15-Jun-2000
MW004298MW01100000000000000000000000                                                   0   10000000RLH15-Mar-2000
MW004348MW02000000000000000000000000                                                   0   00000000EW 15-Sep-2001
MW004418MW12000000000000000000000000                                                   0   00000000RRJ15-Jul-2000
MW004578MW00000000000000000000000000                                                   101000000000PMD15-Oct-2000
MW004628MW00000000000000200000000000                                                   0   01000000EW 15-Aug-2000
MW004858MW01100000000000000000000000                                                   0   00000000FJN15-Nov-2000
MW005038MW00000000000000000000000000                                                   101000000000MSS15-Jul-2002
MW005118MW10000000000000000000000000                                                   0   00000010RRJ15-Sep-2002
MW005248MW00000000000000000000000000                                                   111100000000RRJ15-Jul-2002
MW005398MW00000000000000000000000000                                                   111010000000CAK15-Oct-1999
MW005468MW00000000000000000000000000                                                   111100000000RRJ15-Jul-2000
MW005528MW00000000000000000000000000                                                   111000000000RRJ15-May-2001
MW005678MW00000000000000000000000000                                                   111000000000RRJ15-Mar-2001
MW005788MW00001000000000000000000000                                                   0   00000000PMD15-Jun-2001
MW005808MW11100000000020000000000000                                                   0           RLH15-Dec-1999
MW005958MW00000000000000000000000000                                                   111000000000RRJ15-Oct-1999
MW006048MW00000000000000000000000000                                                   111100000011EW 15-Aug-2000
MW006128MW00000000000000000000000000                                                   111000000000RLP15-Jan-2000
MW006388MW11100000100000000000000000                                                   0   00000000RLH15-Mar-2000
MW006458MW23200000000000203000020000                                                   0   01000000CAK15-Apr-2000
MW006538MW000000000000000010 0000000                                                   0   00000000CAK15-Mar-2000
MW006778MW23110000000000300000000000                                                   0   01010000CAK15-Mar-2000
MW006818MW01000000000000000000000000                                                   0   00000000TTW15-Nov-2001
MW007188MW00000000000000000000000000                                                   100000000000CAK15-Apr-2000
MW007268MW10000000010000001000000000                                                   0   11000000RLP15-Mar-2000
MW007328MW00000000000000000000000000                                                   100100000000PMD15-Dec-2000
MW007448MW00000000000000100000000000                                                   0   00000000RRJ15-Jul-2002
MW007718MW00000000000000000000000000                                                   111101000000RRJ15-Nov-2001
MW008078MW01200000100100000000000003GOES TO SLEEP TOCUHING HIMSELF                     0   00000000RRJ15-Oct-2002
MW008288MW02000000000000100001000000                                                   0   01000000RLH15-May-2000
MW008308MW10000000000000000002000000                                                   0   01000000CAK15-Mar-2000
MW008568MW00000000000000000000000000                                                   101000000000RRJ15-Apr-2000
MW008638MW30000000000000100000000000                                                   0   00000000RLH15-Apr-2000
MW008748MW00000000000000000000000000                                                   111100000000PMD15-May-2001
MW008898MW00000000000000000000000000                                                   111100000000RRJ15-Mar-2001
MW008918MW01000000000000000000000000                                                   0   00000011CAK15-May-2000
MW009238MW31000000000000002000010000                                                   0   00001111CAK15-Sep-1999
MW009478MW01000000000000000000000000                                                   0   00000000EW 15-Apr-2001
MW009518MW00000000000000000000000000                                                   111000000000RLP15-Jan-2000
MW009688MW01000000000000300000000000                                                   0   01000000CAK15-Apr-2000
MW009798MW22000000000000000001000000                                                   0   01000000RRJ15-Apr-2003
MW010098MW00000000000000000000000000                                                   110000000000EW 15-Jun-2002
MW010178MW00000000000000000000000000                                                   111100000000TTW15-Jul-2001
MW010338MW00000000000000000000000000                                                   100000010000RLH15-May-2000
MW010408MW00000000000000000000000000                                                   111000000000RRJ15-Nov-2002
MW010618MW00000000000000000000000000                                                   111000000000BSH15-Jun-2002
MW010868MW03000000000000000000000000                                                   111000000000KS 15-Dec-1999
MW010948MW02200000000000000003000000                                                   0   00000000EW 15-Jul-2000
MW011058MW03300000000000001000010000                                                   0   01000000RLH15-Jun-2000
MW011188MW00000000000000000000000000                                                   100000000000RLH15-May-2000
MW011268MW0300000000001000000200000 ===================================================000 01000000MSS15-Apr-2002
MW011448MW10000000000000000000000000                                                   111101000000FJN15-Jul-2000
MW011608MW00000000000000000000000000                                                   111011000000FJN15-Aug-2000
MW011718MW01000000000000100000000000                                                   0   00000000CAK15-Jan-2000
MW011938MW20000000020000300000000000                                                   0   10000000RRJ15-Sep-2000
MW012008MW00000000000000000000000000                                                   111101000010CAK15-Nov-1999
MW012498MW20000000000000000000000000                                                   111000000000FJN15-Sep-2000
MW012548MW13000100300000000000000000                                                   0   00000000RLH15-Mar-2000
MW012768MW01100000000000003000000000                                                   0   00000000CAK15-Feb-2000
MW013028MW00000000000000000000000000                                                   101000000000EJW15-Aug-2000
MW013238MW00000000000000000000000000                                                   111011000000FJN15-Jul-2000
MW013358MW10000000010000100000000003REPEATS WRESTLING MOVE THAT SEXUAL IN NATURE       0   00000110CAK15-May-2000
MW013478MW00000000000000000000000000                                                   111000000000FJN15-Dec-2000
MW013518MW00000000000000000000000000                                                   100000000000RLH15-Apr-2000
MW013688MW00000000000000000000000000                                                   111000000011EW 15-Aug-2000
MW013968MW20100000100010000001000000                                                   0   11100000EW 15-Oct-2000
MW014208MW00000000000000000000000000                                                   101010000000RLH15-Jun-2000
MW014388MW02030000000000000002000000                                                   0   00000000EW 15-May-2001
MW014538MW00000000000000000000000000                                                   111100000011EW 15-Aug-2000
MW014668MW02200000000000002000010000                                                   0   00000000CAK15-Jun-2000
MW014818MW00000000000000000000000000                                                   111000000000RRJ15-Sep-2000
MW015158MW                          ===================================================            RRJ15-Aug-2000
MW015288MW00000000000000000000000000                                                   111100000000RRJ15-Feb-2001
MW015308MW01120000200010000002000100                                                   0   01000000LF 15-Jul-2001
MW015748MW00000000000000000000000001===================================================111000000000LF 15-Apr-2001
MW015918MW00000000000000000000000000                                                   101000010000LF 15-Jul-2001
MW016298MW02000000000000000001000000                                                   0   01000000RRJ15-Oct-2000
MW016348MW00000000000000000000000000                                                   111101000000RRJ15-Sep-2002
MW016578MW00000000000000000000000000                                                   111100000000EW 15-Dec-2000
MW016738MW00000001110000003001030000                                                   0   10001111RRJ15-Sep-1999
MW016858MW02000000000000200000000000                                                   0   01000000CAK15-Apr-2000
MW016908MW00000000000000000000000000                                                   111000000000FJN15-Aug-2001
MW017018MW02000100000000100001000001WANTS TO KNOW HOW DO BABAIES GET IN STOMACH        0   01001111EW 15-Mar-2001
MW017228MW01000000000000000000000000                                                   0   00000000EW 15-May-2001
MW017368MW01100000000000000000000000                                                   0   00000000TTW15-Jun-2002
MW017508MW11000001000000002000000000                                                   0   01000000RRJ15-Oct-2003
MW017698MW00000000000000000000000000                                                   111000000000EW 15-Jul-2000
MW017758MW00000000000000000000000000                                                   111000000000CAK15-May-2000
MW017978MW00000000000000300000000000                                                   111000100000MSS15-Mar-2002
MW018038MW                          ===================================================            FJN15-Jun-2001
MW018118MW03100000000000000000000000                                                   0   00000000EW 15-Dec-2000
MW018248MW00000000000000000000000000                                                   111111000000RRJ15-May-2001
MW018398MW10000000000000000000000000                                                   101100000000PD 15-Jul-2000
MW018468MW01000000000000000000000100                                                   0   00000000FJN15-Jul-2000
MW018528MW02000000000001000001010100                                                   0   01000000RRJ15-May-2001
MW018678MW00000000000000000000000000                                                   111000000000TTW15-May-2002
MW018958MW20000000000000000000000000                                                   0   00000000BSH15-Jan-2002
MW019068MW10000000000000100000000000                                                   0   01000000FJN15-Jan-2001
MW019278MW01000000000000000000000000                                                   0   10000000LF 15-Jul-2001
MW019438MW01000000000000000000000000                                                   0   00000000BSH15-Jun-2002
MW019708MW03000000000000000000000000                                                   0   11000000EW 15-Nov-2000
MW019888MW10000000000000100000000000                                                   0   00000000EW 15-Dec-2000
MW019928MW00000000000000000000000000                                                   111100000000PMD15-Dec-2000
MW020088MW00000000000000000000000000                                                   111101000000EW 15-Jun-2000
MW020168MW00000000000000000000000000                                                   111100000000FJN15-Feb-2001
MW020348MW30000000000000000000000000                                                   111001010000BSH15-Sep-2001
MW020418MW00000000000000000000000000                                                   111001000000EW 15-Jun-2000
MW020578MW00000000000000000000000000                                                   111000000000LF 15-May-2001
MW020738MW00000000000000000000000000                                                   111000000000BSH15-Jun-2002
MW020908MW00000000000000000000000000                                                   111100000000RRJ15-Feb-2001
MW021178MW10000000000000000000000000                                                   111111000010EW 15-Jun-2001
MW021258MW00000000000000000000000000                                                   111101000000RRJ15-Apr-2001
MW021408MW01300000000000000000010000                                                   0   100000 0BTS15-Jun-2001
MW021588MW00000000000000000000000000                                                   111100000000FJN15-Apr-2001
MW021618MW 1100000000000000001000000                                                   0   11010000FJN15-May-2001
MW021728MW00000000000000000000000000                                                   111100000000RRJ15-Nov-2001
MW021868MW 0000000000000000000000000                                                   111000000000EW 15-Jun-2000
MW022228MW00000000000000000002000000                                                   0   01000000FJN15-Sep-2000
MW022368MW01000000000100000003000000                                                   0   01010000TTW15-Aug-2001
MW022488MW00000000000000000000000000                                                   111110000000LF 15-Jul-2001
MW022698MW00000000000000000000000000                                                   111100000000EW 15-Jun-2000
MW022758MW00000000000000000000000000                                                   111000000000PMD15-Jun-2001
MW022838MW00001000000100000000000000                                                   0   10000000FJN15-Aug-2001
MW023118MW00000000000000000000000000                                                   111000000000FJN15-Feb-2001
MW023398MW00000000000000000000000000                                                   11001000000 BSH15-Dec-2001
MW023678MW00000000000000000000000000                                                   111110001101FJN15-Jul-2001
MW023788MW00100000000000000000000000                                                   0   00000000LF 15-Jul-2001
MW023808MW00000000000000000000000000                                                   111000000010EW 15-Sep-2001
MW024008MW00000000000000000000000000                                                   111000000000EW 15-Aug-2000
MW024658MW00000000000000000000000000                                                   111100000000RRJ15-Dec-2001
MW024768MW03000000000000000000000000                                                   0   01010000BSH15-Dec-2001
MW024828MW02000000000000000000000000                                                   0   00000000TTW15-Mar-2002
MW025318MW01100000000000000000000000                                                   0   00000000BSH15-Aug-2001
MW025438MW02100000000000000000000000                                                   0   10000000LF 15-May-2001
MW025708MW00000000000000000000000000                                                   100000000000FJN15-Jun-2001
MW025888MW00000000000000000000000000                                                   101110000000FJN15-Aug-2000
MW025928MW10120000000002001002010000                                                   0   10001111RRJ15-Feb-2001
MW026158MW00000000000000000000000000                                                   111010000000BTS15-Jun-2001
MW026428MW                          ===================================================            BSH15-Aug-2001
MW026638MW12100000000010300000000000                                                   0   01000000RLP15-Jun-2000
MW026748MW02000000000110000000000000                                                   0   01000000RRJ15-Oct-2001
MW026898MW00000000000000000000000000                                                   111000000000FJN15-Dec-2000
MW026918MW01000000000000000000000000                                                   0   01000000TTW15-Feb-2002
MW027028MW00000000000000100000000000                                                   0   00000000LF 15-Jul-2001
MW027108MW00000000000000000000000000                                                   111000000000EW 15-Jun-2001
MW027238MW00000000000000000000010000                                                   0   00000000EW 15-Feb-2001
MW027478MW00000000000000000000000000                                                   111000000000FJN15-Jan-2001
MW027518MW00000000000000000000000000                                                   111001000000EW 15-Jul-2000
MW027688MW01000000000000000000000000                                                   0   00000010TTW15-May-2002
MW027798MW00000000000000000000000000                                                   111000000000TTW15-Jul-2001
MW027848MW11200100111000100001001000                                                   0   01110000TTW15-Aug-2001
MW027968MW00000000000000000000000000                                                   111000000000TTW15-Apr-2002
MW028048MW00000000000000100000000000                                                   1   00000000LF 15-Aug-2001
MW028128MW00000000000000000000000000                                                   101001000000RRJ15-Aug-2002
MW028388MW00000000110000000001000000                                                   0   01000000RRJ15-Sep-2000
MW028458MW00000000000000000000000000                                                   100100000000TTW15-Jun-2002
MW028538MW0000000000000000000000000 ===================================================111000000000EW 15-Jan-2002
MW028778MW03300000000000000000000000                                                   0   01000000RRJ15-Jul-2002
MW028818MW0000000000000020000000000 ===================================================0   00010000EW 15-Mar-2002
MW028998MW01000000000000000000000000                                                   0   00000000FJN15-Oct-2001
MW029058MW01000000000000000000000000                                                   0   00000000TTW15-Apr-2002
MW029268MW00000000000000000000000000                                                   1   00000000MSS15-Dec-2001
MW029328MW00000000000000000000000000                                                   111100000000EW 15-Apr-2001
MW029448MW01100000000000000000000000                                                   0   00000000BSH15-May-2002
MW029598MW00000000000000000000000000                                                   111100000000RRJ15-Jun-2002
MW029608MW00000000000000000000000000                                                   111100000000EW 15-Aug-2002
MW029718MW00000000000000000000000000                                                   111000000000RRJ15-Jun-2001
MW029878MW03000000000300300000000000                                                   0   01000000BSH15-Jun-2002
MW029938MW00000000000000000000000000                                                   111100000000MSS15-May-2002
MW030058MW32100000220020002001030200                                                   0   00001111LF 15-Aug-2001
MW030448MW10000000000000000000000000                                                   111100000000EW 15-Jun-2002
MW030718MW00000000000000000000000000                                                   111000000000TTW15-Aug-2001
MW030938MW00000000000000000000000000                                                   111100000000RRJ15-Mar-2003
MW031198MW01100000000200300000000000                                                   0   01010000BMB15-Feb-2003
MW031278MW01000000000000000000000000                                                   0   00000000RRJ15-Jan-2003
MW031318MW03200000000000000000000000                                                   0   00000000BMB15-Jan-2003
MW031558MW00000000000000000000000000                                                   111101000000RRJ15-Nov-2002
MW031708MW00000000000000000000000000                                                   111100000000RRJ15-Apr-2003
MW031888MW10000000000100000000000000                                                   0   00000000RRJ15-Mar-2003
MW031928MW00000000000000000000000000                                                   111100000000MG 15-Jul-2002
MW032048MW00000000000000100000000000                                                   0   10000000MSS15-Jul-2003
MW032128MW12100000000000000000000000                                                   0   00000000BMB15-Jun-2003
MW032208MW00000000000000000000000000                                                   100000000000BSH15-Feb-2002
MW032388MW10000000000000000000000000                                                   111100010000RRJ15-Jul-2003
MW032458MW01000000020000000000020000                                                   100000000110RRJ15-Jan-2003
MW032538MW01100000000000000000000000                                                   0   00000000MG 15-Jun-2003
MW032668MW00000000000000000000000000                                                   111000000000RRJ15-Oct-2002
NW300208NW20000000101100000000000000                                                   0   00001111ELN15-Apr-1997
NW300458NW30000000000003000000020000                                                   0   00101110DLW15-Apr-1999
NW300538NW22200000100100000000000000                                                   0   100 1111ELN15-Apr-1997
NW300668NW01000000000000000000000000                                                   000000010000ACO15-Jul-1997
NW300778NW02000000000000000000000000                                                   0   00000100ELN15-Nov-1996
NW300818NW11100000000000000000000000                                                   0   00000000AJS15-Dec-1997
NW300998NW01000000000000200000000000                                                   0   00000011PJV15-Dec-1996
NW301138NW21000000000000000000000000                                                   0   01000000AJS15-Apr-1999
NW301218NW10100000010000001000000000                                                   0   00001111AJS15-Oct-1997
NW301378NW01000000000000000001000000                                                   0   00000000DLW15-Jun-1999
NW301498NW00000000000000100000000000                                                   0   00000000DLW15-Feb-1999
NW301548NW21100011000000100001101100                                                   0   10110000PJV15-Jul-1997
NW301768NW10000000000000000001000000                                                   0   00010000ELN15-Jun-1996
NW301828NW00000000000000000000000000                                                   111000010000AJS15-Oct-1997
NW302058NW13100001100000000000010000                                                   0   00001111ELN15-Apr-1997
NW302188NW00000000000000000000000000                                                   111100000000DBM15-Oct-1999
NW302268NW00000000000000000000000000                                                   100101001001ELN15-Jan-1997
NW302328NW01000000000000000000000000                                                   0   00000000SRH15-Oct-1999
NW302448NW32100000000000000000000000                                                   100110000000ACO15-Apr-1997
NW302598NW00000000000000000000000000                                                   100101000000DLW15-Jan-1999
NW302608NW01000000000100000000000000                                                   110101000000ACO15-Apr-1997
NW302718NW22100000100000100000000000                                                   0   00000010AJS15-Sep-1997
NW302878NW11010000001000002000010000                                                   0   10110000PJV15-Apr-1997
NW302938NW10000000000000000000000000                                                   111100001101ELN15-Oct-1996
NW303158NW00000000000000000000000000                                                   101000000000SRH15-Nov-1999
NW303288NW03000000010000000000000000                                                   0   00000000DLW15-Aug-1998
NW303308NW00100000000000000000000000                                                   001100000000ELN15-May-1996
NW303428NW00000000000000000000000000                                                   111101000000SRH15-Dec-1999
NW303638NW00000000000000000000000000                                                   100100000001ACO15-Jun-1997
NW303748NW00300001320030000001002000                                                   0   00000000ELN15-May-1996
NW303898NW00000000000000000000000000                                                   11110  1010 DLW15-Jan-1999
NW303918NW00000000000000000000000000                                                   101100000001ELN15-Dec-1996
NW304098NW10000000000000000000000000                                                   100000100000PJV15-Dec-1996
NW304178NW11300202201210000010000313TALKS REALLY SEXY TO SISTER FREQUENTLY             0   0001  00AJS15-Sep-1997
NW304258NW21100000000000000001000000                                                   100101000000ACO15-Jul-1997
NW304338NW02000000010100010000130000                                                   0   10000000AJS15-Dec-1997
NW304408NW01000000000000000001000000                                                   0   10010000ELN15-Mar-1997
NW304588NW22000100000010000001000000                                                   0   00100000ELN15-May-1996
NW304618NW00000000000000000000000000                                                   111100001111SRH15-Feb-2000
NW304728NW11000000000000000001000000                                                   0   00000000AJS15-Sep-1997
NW304868NW12200000000100200001010010                                                   0   01110000PJV15-Mar-1997
NW304948NW02100000000100000001000000                                                   0   01000000SRH15-Dec-1999
NW305028NW10000000000000000000000000                                                   101000000000CRH15-May-1998
NW305108NW02200000000000000000000000                                                   111100000000ACO15-Jun-1997
NW305238NW0000000000000000          ===================================================            DLW15-Oct-1998
NW305358NW33300202020110302001110200                                                   0   00100111SRH15-Dec-1999
NW305478NW23300000000000000000010000                                                   0   0000  1 AJS15-Feb-1998
NW305688NW00000000000000000000000000                                                   101000000000ELN15-Sep-1996
NW305798NW32021011000010000001001101TOLD A WOMAN HE WAS GOING TO FUCK HER DAUGHTER     0   01010000AJS15-Sep-1997
NW305848NW01000000000000000000000000                                                   0   00001111SRH15-Sep-1999
NW305968NW00000000000000000000000000                                                   110101000000CRH15-Oct-1998
NW306038NW23200000101030000000021000                                                   0   01010000DLW15-Feb-1999
NW306118NW00000000000000000000000000                                                   111100000000DLW15-Nov-1998
NW306248NW02000000000000000000000000                                                   0   00000000AJS15-Jan-1998
NW306398NW01000000000000000100010000                                                   0   00001111DLW15-Jun-1999
NW306468NW10001000100000000000100000                                                   0   10000000DLW15-May-1999
NW306528NW01000000000000000000001000                                                   0   11011111ELN15-Feb-1997
NW306678NW03000000000000000000000000                                                   0   010 0000DLW15-Jul-1999
NW306788NW01000000000000000000000000                                                   0   00000000ACO15-Oct-1997
NW306808NW11000000000200300000000000                                                   0   00110000DLW15-Jul-1999
NW306958NW01200000210010000001030003ASKS MOM LOTS OF QUESTIONS ABOUT SEX               0   01010000PJV15-Feb-1997
NW307068NW00000000000000000000000000                                                   101000000000CRH15-Jun-1999
NW307198NW02200000000000000000000000                                                   0   00000000DLW15-Apr-1999
NW307278NW00000000000000000000000000                                                   100100000000AJS15-Jan-1998
NW307318NW12000000100010000000000100                                                   0   11010000CLL15-Mar-2000
NW307438NW00000000000000000000000000                                                   100000000000ELN15-Nov-1996
NW307648NW10000000000000000000000000                                                   111100010011ELN15-Oct-1996
NW307708NW13300000000000100001000000                                                   0   00000000CRH15-Jun-1998
NW307888NW13000000000000000000000000                                                   0   01000000ACO15-Feb-1998
NW307928NW02000000000000000000000000                                                   0   01000000CLL15-Mar-2000
NW308088NW01010000000000000000001000                                                   0   10000000DLW15-Jan-1999
NW308168NW03200000000000000000000000                                                   0   00000000AJS15-Jun-1998
NW308298NW11000010000000000000000000                                                   0   00010000SRH15-Nov-1999
NW308348NW33010000000000000000000000                                                   0   00100000ELN15-Apr-1997
NW308628NW00000000000000000000000000                                                   111 00000000CCB15-Aug-1999
NW308738NW00000000000000000000000000                                                   101100000011SRH15-Dec-1999
NW308858NW20000000000000000000000000                                                   110100101111DLW15-Dec-1998
NW309018NW02000000000000000000000000                                                   101110000000ELN15-Oct-1996
NW309228NW01200000020310021000020000                                                   0   11000100DLW15-Oct-1998
NW309368NW20000000000000300000000000                                                   0   00000000CRH15-Dec-1998
NW309488NW00000000000000000000000000                                                   111100000010SRH15-Apr-2000
NW309508NW10100000010000000000010000                                                   0   00000000DLW15-May-1999
NW309698NW01000000000000000000000000                                                   0   00000000DLW15-Jul-1998
NW309758NW00000000000000000000000000                                                   111000000000ELN15-Sep-1996
NW309978NW00000000000000000000000000                                                   111010000000DLW15-Mar-1999
NW310058NW10000000000000100003000000                                                   0   01000000ELN15-Oct-1996
NW310188NW12200000000000000000000000                                                   100010000000ELN15-Sep-1996
NW310268NW00000000000000000000000000                                                   100000000000ACO15-Aug-1997
NW310328NW11000000000000000000000000                                                   0   01010000DLW15-Aug-1998
NW310448NW11000000000000000000000000                                                   0   00000000PJV15-Nov-1996
NW310598NW00000000100000000000000000                                                   0   00000000AJS15-May-1998
NW310608NW00000000000000000000000010                                                   0   10001111PJV15-Apr-1997
NW310718NW22021000000010000000001000                                                   0   11000000SRH15-Dec-1999
NW310878NW01000000000000000000000000                                                   0   00000000CLL15-May-2000
NW310938NW03200000000000000000000000                                                   0   00000000SRH15-Mar-2000
NW311068NW32031011020120002000012300                                                   0   01001111PJV15-Feb-1997
NW311198NW20000201300002001000001300                                                   0   11001111ELN15-Aug-1996
NW311278NW33300000100000000000000000                                                   0   10111111SRH15-Feb-2000
NW311318NW10000000000000000000000000                                                   111100000000DLW15-May-1999
NW311438NW00000000000000000000000000                                                   111000000000ELN15-Jul-1996
NW311558NW33110120310030000002110001TALKING ABOUT ANYTIME A MAN AND AWOMEN ARE TOGETHER0   00001111ACO15-Feb-1998
NW311708NW11010000000100201000000001VERY CURIOUS ABOUT MOM'S BODY                      0   01010000AJS15-May-1998
NW311888NW01000000010000000001010000                                                   0   00000000DLW15-Jul-1999
NW311928NW01000200001001000000000000                                                   0   0  00000DLW15-Nov-1998
NW312048NW11100000001000000000000000                                                   0   00000000ELN15-Feb-1997
NW312128NW00000000000000100000000000                                                   0   00000000AJS15-Sep-1997
NW312458NW00000001000000000000001000                                                   0   00000000ELN15-Jul-1996
NW312538NW01100000000000000000000000                                                   0   10000000SRH15-Apr-2000
NW312668NW11000000000000000000000000                                                   0   00100000DLW15-Nov-1998
NW312778NW010300 0110000000000000001SEXUAL ACTIVITY WITH NEIGHBOR BOY, MOTHER DIDN'T   0   10000000DLW15-Oct-1998
NW312818NW00000000000000000000000000                                                   101100000000DBM15-Oct-1999
NW312998NW21030000110010000000001000                                                   0   0000 001CLL15-Nov-2000
NW313018NW11010000000000000000000000                                                   0   10001111ACO15-Feb-1998
NW313228NW20120100010100000000000000                                                   0   00000010AJS15-Aug-1997
NW313368NW00000000000000000000000000                                                   101000000000DLW15-Jun-1999
NW313488NW11100000020000000000000000                                                   0   11011100CLL15-Jul-2000
NW313698NW10000000000000000000000000                                                   111100001111DLW15-Oct-1998
NW313758NW10000000000000300000000000                                                   0   01001111SRH15-Nov-1999
NW313978NW01000000000100100000010000                                                   0   00000000PJV15-Feb-1997
NW314038NW01000000000000000000000000                                                   0   00000010DLW15-Jun-1999
NW314248NW00000000000000000000000000                                                   111100000110AJS15-Jul-1997
NW314398NW01000000000000100000000000                                                   0   00000000DLW15-Jul-1999
NW314678NW00020000000002100000000000                                                   0   01000011MCP15-Jan-1998
NW314788NW01020000100000100000000000                                                   0   00000000AJS15-Aug-1997
NW314808NW00000000000000000000000000                                                   101100000000ACO15-Nov-1997
NW320338NW00000000000000000000000000                                                   111100000000SRH15-Jan-2000
NW320588NW12100000000000000001000000                                                   0   10000000DLW15-Jan-1999
NW320618NW                          ===================================================            ===15-Feb-1999
NW320728NW00000000000000000000000000                                                   111000010000DLW15-Jun-1998
NW320868NW01000000000000000000000000                                                   0   00010000DLW15-Jan-1999
NW320948NW33310000000010001000030000                                                   0   11100000ACO15-Oct-1997
NW321188NW02000000000000000000000000                                                   0           AJS15-May-1998
NW321268NW11000000100000000000000000                                                   0   10000000SRH15-Dec-1999
NW321328NW03200000000000000000000000                                                   0   00000000ACO15-Nov-1997
NW321448NW00000000000000000000000000                                                   111100100011DLW15-Jan-1999
NW321598NW02000000000000000000000000                                                   0   00000000PJV15-Mar-1997
NW321608NW00000000000000000000000000                                                   111110100000DLW15-Jan-1999
NW321718NW13000000000000000000000000                                                   0   00000000AJS15-Oct-1997
NW321938NW01000000000000000000000000                                                   0   00000000DLW15-Nov-1998
NW322008NW00000000000000000000000000                                                   111100000011SRH15-Oct-1999
NW322138NW00000000000000000000000000                                                   111101010000DLW15-Jan-1999
NW322218NW00300000000000000000000000                                                   0   01010000SRH15-Nov-1999
NW322498NW00010000001100000002000000                                                   0   01000000CRH15-Aug-1999
NW322658NW22110111111111111111111111CHECK THIS SECTION                                 111101000001ACO15-Sep-1997
NW322768NW00000000000000000000000000                                                   101101000000AJS15-Oct-1997
NW322988NW 0000000000000000000000000                                                   101000001111AJS15-Sep-1997
NW323028NW02000000110000000000000000                                                   0   00000111ACO15-Apr-1997
NW323108NW00000000000000000000000000                                                   101100000000ACO15-Nov-1997
NW323238NW11000001110110000000000000                                                   0   00000000SRH15-Oct-1999
NW323358NW00000000000000000000000000                                                   111110000100DLW15-Oct-1998
NW323478NW02000000000000000000000000                                                   0   10000000DLW15-Jan-1999
NW323518NW13000000000000000000000000                                                   0   01000000AJS15-Feb-1998
NW323688NW02000000000000000000000000                                                   0   00000000DLW15-Jul-1999
NW323798NW11000000000000000000000000                                                   0   01010000CLL15-Feb-2000
NW323848NW00000000000100000000000000                                                   0   10000000DLW15-Aug-1998
NW323968NW00000000000000000000000000                                                   111000000000DLW15-Jul-1999
NW324128NW23000000010000000000000000                                                   0   01000010SRH15-Dec-1999
NW324208NW00000000000000000000000000                                                   100101000000DLW15-Jul-1998
NW324388NW13000000000000100000000000                                                   0   00000010ELN15-Mar-1997
NW324538NW00000000000000000000000000                                                   101000001111ACO15-Oct-1997
NW324668NW31000000000000000000000000                                                   0   00001111ELN15-Feb-1997
NW324778NW01000000000000000000000000                                                   0   00000000DLW15-Apr-1999
NW324818NW00000000000000000000000000                                                   100101001111DLW15-Nov-1998
NW324998NW02000000000000000000000000                                                   0   10001111AJS15-Jun-1998
NW325078NW00000000000000000000000000                                                   111100100000ACO15-Aug-1997
NW325158NW03000000000000001000000010                                                   0   11110100ACO15-Mar-1998
NW325288NW00000000000000000000000000                                                   101100000000DLW15-Aug-1998
NW325308NW03                        ===================================================            CRH15-Jun-1999
NW325428NW12000000000000000000000000                                                   0   00000000CRH15-Oct-1998
NW325568NW01000000000000100010000000                                                   0   00001111PJV15-Aug-1997
NW325638NW02000000000000000000000000                                                   0   01000000PJV15-Aug-1997
NW325898NW00000001000000000000000000                                                   0   00001101DLW15-Nov-1998
NW326088NW00000000000000000000010000                                                   0   01000000ACO15-Oct-1997
NW326298NW00000000000000000000000000                                                   111000000000DLW15-May-1999
NW326348NW00000001000100000000100000                                                   0   00000000CLL15-Jan-2000
NW326418NW00000000000000000000000000                                                   111100001101ACO15-Feb-1998
NW326628NW00000000000000000000000000                                                   101000000010AJS15-Aug-1997
NW326738NW02111113111111111111111111LICKING BROTHER                                    0   10100000ACO15-Sep-1997
NW326858NW01000000000000000000010000                                                   0   10000000SRH15-Oct-1999
NW327018NW20000000000000000000000000                                                   100100010000ACO15-Oct-1997
NW327228NW00010000000000000000000000                                                   0   00000000CLL15-Apr-2000
NW327368NW13 00000100000000001000000                                                   0   01000000SRH15-Mar-2000
NW327488NW02000000000100000000000000                                                   0   10000000AJS15-Dec-1997
NW327508NW11201000300010000000000100                                                   0   11010010SRH15-Oct-1999
NW327698NW02001000000010000000000000                                                   0   00000000DLW15-Jun-1998
NW327758NW02000000000000000000000000                                                   0   10000000CLL15-Jan-2000
NW327838NW00000000000000000000000000                                                   111100000010DLW15-Sep-1998
NW327978NW01000000000000000000000000                                                   0   00000000DLW15-Apr-1999
NW328038NW00000000000000000000000000                                                   101101000000SRH15-Apr-2000
NW328118NW00000000000000000000000000                                                   101 00000000SRH15-Mar-2000
NW328248NW02110000200010000000000000                                                   0   00010011SRH15-Jun-2000
NW328398NW03000000000000000000000000                                                   0   00010000CLL15-Apr-2000
NW328468NW02200000010000000000000000                                                   0   10011111AJS15-Aug-1997
NW328678NW03000000000000010000000000                                                   0   11001101DLW15-May-1999
NW328788NW00000000000000000000000000                                                   111000000000SRH15-Jun-2000
NW328958NW20000000000000000000000000                                                   111010011111DLW15-Mar-1999
NW329068NW01000000110010000000000000                                                   0   11000000SRH15-Oct-1999
NW329198NW02000000000000000000000000                                                   0   00000101DLW15-Aug-1998
NW329278NW11000000000000200100020000                                                   0   10011111AJS15-Apr-1999
NW329318NW13010000000012002001000000                                                   0   0010001 CLL15-Aug-2000
NW329438NW00000000000000100000000010                                                   0   01000000CLL15-May-2000
NW329558NW00000000000000100000000000                                                   0   00010000SRH15-Nov-1999
NW329648NW01100000000003000000000000                                                   0   00000000CLL15-Apr-2000
NW329708NW01000000000000000000000000                                                   0   0 010000DLW15-Apr-1999
NW329888NW00000000000000000000010000                                                   0   00000000SRH15-Nov-1999
NW330068NW10000000000000000000000000                                                   100110000000SRH15-Jul-2000
NW330198NW00030001000100000000020000                                                   0   00000000DLW15-Dec-1998
NW330278NW10100000200100000001000000                                                   0   01100000CLL15-Feb-2000
NW330318NW32300100200010000000000000                                                   0   01010000SRH15-Nov-1999
NW330438NW10000000000000000000000000                                                   111100000000CRH15-Sep-1999
NW330558NW00000000000000000000000000                                                   101100000000RR 15-Oct-1998
NW330648NW12300100000000000000000000                                                   0   0100  10DLW15-Mar-1999
NW330708NW01000000000000000000000000                                                   0   00001010DLW15-Jul-1999
NW330888NW02000001000000011000001000                                                   0   00001111DLW15-Jul-1998
NW330928NW10000000000000000000000000                                                   111000000000CRH15-Aug-1999
NW331158NW                          ===================================================            SRH15-Apr-2000
NW331288NW02000000000000000000000000                                                   0   00000000CLL15-Feb-2000
NW331308NW00000000000000000000010000                                                   0   10001110SRH15-Nov-1999
NW334688NW02000000000000000000000000                                                   0   10000000BBW15-May-2000
NW344898NW00000000000000000000000000                                                   111 00000000SRH15-Mar-2000
NW345048NW03000000000000000000000000                                                   0   00000000DLW15-Jul-1998
SO100168SO02000000000000000000000000                                                   0   00000000DL 15-Apr-1995
SO100298SO01000000000000000000000000                                                   0   01000000DL 15-May-1995
SO100348SO00000000000000000000000000                                                   101100000000DL 15-Jan-1995
SO100418SO13000000000000000001000000                                                   0   01010000DL 15-Mar-1995
SO101178SO00000000000000000000000000                                                   111100000000BBN15-Mar-1995
SO101258SO03100000000000000001000000                                                   0   00000000TBL15-Jan-1995
SO101338SO00000000000000001000000000                                                   0   00010000TBL15-Jan-1995
SO101408SO01000000000000000000000000                                                   0   00010000TBL15-Feb-1995
SO101588SO00000000000000000000000000                                                   111100000000TBL15-Jan-1995
SO101868SO00000000000000000000000000                                                   100000000000TBL15-Apr-1995
SO101948SO13000000000100303000030030                                                   0   11001111TBL15-Oct-1995
SO102228SO01000000000000000000000000                                                   0   01000000TBL15-Mar-1995
SO102368SO01000000000000000000000000                                                   0   00000000TBL15-Apr-1995
SO102488SO03000000000000000000000000                                                   0   00000000MCP15-Jan-1995
SO102508SO00000000000000000000 00000                                                   11110000  11BBN15-Mar-1995
SO102758SO0010000000000020000000000 ===================================================0   00010000GSL15-Jan-1995
SO103038SO00000000000000000000000000                                                   111010000000GSL15-Mar-1995
SO103118SO13000000000000000000000000                                                   0   00 00 00GSL15-Jan-1995
SO103248SO01000000000000000000000000                                                   111100000000GSL15-Feb-1995
SO103398SO33311000110001000001000000                                                   0   01010000TBL15-Mar-1995
SO103468SO10000000000000000000000000                                                   111100000000GSL15-Jun-1995
SO103788SO00000000000000000000000000                                                   101000000000LP 15-Mar-1995
SO103808SO01000000000000100000000000                                                   0   01010000DL 15-Mar-1995
SO103958SO03300000000000000001010000                                                   0   00000000LTP15-Mar-1995
SO104008SO00000000000000000000000000                                                   101000000000BBN15-Feb-1995
SO104138SO0220200 220000000000000000                                                   0   01000000BBN15-Feb-1995
SO104378SO03000000000000000000000000                                                   111100000000DMP15-Jan-1995
SO104498SO 0000000000000000000000000                                                   111000000000LTP15-Jan-1995
SO104548SO01010000000000200000000000                                                   0   00000000LTP15-Jan-1995
SO104658SO22000000000000000000000000                                                   0   00000000DMP15-Jan-1995
SO104768SO00000000000000000000000000                                                   1   01000000DMP15-Jan-1995
SO104828SO20000000000000000001000000                                                   0   01000000DMP15-Jan-1995
SO105198SO01000000000000000000000000                                                   0   00000000DP 15-May-1995
SO105278SO00000000000000000000000000                                                   101100101111ABW15-Jan-1995
SO105318SO00000000000000000000000000                                                   101101000000ABW15-Feb-1995
SO105438SO01000001000000000000000000                                                   0   01000000ABW15-Jan-1995
SO105648SO01000000000000000000000000                                                   0   00000000ABW15-Mar-1995
SO105708SO11100000000000000000000000                                                   0   00000000TBL15-Dec-1994
SO105888SO 0000000000000000000000000                                                   100100000000TBL15-Jan-1995
SO106078SO00000000000000000000000000                                                   111101001111BBN15-Mar-1995
SO106158SO00200000000000000000000000                                                   0   00000000BBW15-Dec-1994
SO106288SO02000000000000000000000000                                                   0   00000000BBN15-Jan-1995
SO106308SO10000000000000000000000000                                                   111101000000BBN15-Dec-1994
SO106428SO00000000000000000000000000                                                   100000000000BBN15-Jan-1995
SO106568SO00000000000000000000000000                                                   111000000000BBN15-Jan-1995
SO106748SO10000000200000000002000000                                                   0   01000000BBN15-Feb-1995
SO107028SO00030303003303300030003300                                                   0   00000000BBN15-Mar-1995
SO107238SO00000000000000000000000000                                                   100100000000ABW15-Feb-1995
SO107358SO02000000001000000002000000                                                   0   01010000DL 15-Aug-1995
SO107478SO00000000000000000000000000                                                   100100000000DL 15-May-1995
SO107798SO00000000000000000000000000                                                   111101000000GSL15-Jan-1995
SO107848SO02000000000000000000000000                                                   0   00000000DL 15-Feb-1995
SO107968SO00000000000000000000000000                                                   101100000000BBN15-Jan-1995
SO108048SO00000000000000000000000000                                                   111000000000MPC15-Apr-1995
SO108128SO20000000000000000000010000                                                   0   10000000ABW15-Jan-1995
SO108208SO                          ===================================================101100000000ABW15-Dec-1994
SO108458SO11000000000000000000000000                                                   0   00000000ABW15-Jan-1995
SO108538SO01000000000000000000000000                                                   0   00000000ABW15-Dec-1994
SO108818SO02000000000000000000000000                                                   0   00001111DL 15-Mar-1995
SO108998SO00000000000000000000000000                                                   111000000000BBN15-Feb-1995
SO109058SO01000000000000000000000000                                                   0   00000000DNP15-May-1995
SO109188SO03000000000000000000000000                                                   0   00000000LTP15-Feb-1995
SO109268SO23000000000001300001000000                                                   0   01000000DL 15-Mar-1995
SO109448SO00000000000000000000000000                                                   100000000000BBN15-Feb-1995
SO109598SO00000000000000000000000000                                                   100001000000BBW15-Jan-1995
SO109938SO00000000000000000000000000                                                   11100 000000BBN15-Jan-1995
SO110018SO01100000000000000000000000                                                   0   00000000MCP15-Apr-1995
SO110508SO00000000000000000000000000                                                   111100000 00GSL15-Feb-1995
SO110698SO01000000000000000002000000                                                   0   00000010LTP15-May-1995
SO110758SO03201000010000000000000000                                                   101001000100LP 15-Jan-1995
SO110838SO00000000000000000000000000                                                   100000000000BBN15-Jan-1995
SO111028SO02200000000000000000000000                                                   0   00000000DL 15-Mar-1995
SO111108SO00000000000000000000000000                                                   111100000000GSL15-May-1995
SO111238SO00000000000000000000000000                                                   111100000000TBL15-Jan-1995
SO111358SO20000000000000000000000000                                                   111100000000GSL15-Dec-1995
SO111478SO01000000000000000001000000                                                   0   00000000GSL15-Apr-1995
SO111518SO00000000000000000000000000                                                   111100000000GSL15-Dec-1994
SO111688SO10200000000000000000000000                                                   0   10000000GSL15-Dec-1994
SO112088SO21000000000000000000000000                                                   0   00000000BBN15-Mar-1995
SO112168SO01100000000000000000000000                                                   0   01000000ABW15-Mar-1995
SO112298SO00000000000000000000000000                                                   111100000000GSL15-Mar-1995
SO112348SO00000000000000000000000000                                                   111100000000GSL15-Apr-1995
SO112418SO00000000000000000000000000                                                   111001000000DMP15-Jan-1995
SO112578SO02000000000000000000000000                                                   0   00000010DL 15-Mar-1995
SO112628SO00000000000000000000000000                                                   111100000000BBN15-Mar-1995
SO112738SO00000000000000000000000000                                                   111100000000BBN15-Feb-1995
SO112908SO01000000000100000000000000                                                   0   00000000TBL15-Mar-1995
SO113058SO31000000000000300000000000                                                   0   00000000TBL15-Mar-1995
SO113188SO10000000000000000000000000                                                   111101000000TBL15-Dec-1994
SO113268SO10000000000000000000000000                                                   0   00000000DMP15-Jan-1995
SO113328SO01100000000000000001000000                                                   0   00000000MCP15-Mar-1995
SO113448SO00000000000000000000000000                                                   111000000000BBN15-Jan-1995
SO113598SO02100000000000000000000000                                                   0   00000000ABW15-Feb-1995
SO113608SO01000000000000100000000000                                                   0   00000000ABW15-Feb-1995
SO113878SO20000000000000000000000000                                                   111101000000BBN15-Apr-1995
SO113938SO 1100000100000000000010000                                                   0   00000000ABW15-Mar-1995
SO114078SO00000000000100300000000000                                                   0   00110000ABW15-Mar-1995
SO114158SO01100000000000000000010000                                                   0   00000000ABW15-Mar-1995
SO114308SO00000000000000000000000000                                                   101000000000MCP15-Mar-1995
SO114428SO00100000000000000000000000                                                   0   00000000MCP15-Mar-1995
SO114568SO01000000000000000000000000                                                   0   10000000DMP15-Sep-1995
SO114638SO00000000000000000000000000                                                   101101000000ABW15-Dec-1994
SO114748SO01000000000000000000000000                                                   0   00000110TBL15-Sep-1995
SO114898SO12100000000010000001000000                                                   0   00000000TBL15-Jun-1995
SO114918SO01000000000000000000000000                                                   0   10000000ABW15-Mar-1995
SO115048SO03000000000000000000000000                                                   0   00000000TBL15-Sep-1995
SO115208SO 0000000000000000001010000                                                   0   01000000ABW15-Mar-1995
SO115388SO03000000000000000000000000                                                   0   00000000BBN15-Apr-1995
SO115668SO02000000000000000000000000                                                   0   00000000DL 15-Feb-1995
SO115778SO03000000000000000000000000                                                   0   10000000DL 15-Jul-1995
SO115818SO01000000000000000000000000                                                   0   01000000TBL15-May-1995
SO115998SO11100000000000000000000000                                                   0   01000000DMP15-May-1995
SO116008SO 3000000000000000000000000                                                   0   01000000LTP15-May-1995
SO116138SO03000000000000000000000000                                                   0   01000000BBN15-Mar-1995
SO116378SO00000000000000000000000000                                                   111000000000BBN15-Mar-1995
SO116498SO00000000000000000000000000                                                   111100000000MCP15-Apr-1995
SO116548SO00020000000000300000000000                                                   0   00000000MCP15-Apr-1995
SO116658SO00000000000000000000000000                                                   111000000000TBL15-Apr-1995
SO116768SO13321000000020000003000000                                                   0   00000000TBL15-Apr-1995
SO116828SO01100000000000000001000000                                                   0   01000000BBN15-Apr-1995
SO117178SO01000000000000000000000000                                                   0   00000000ABW15-Feb-1995
SO117408SO01000000000000000000000000                                                   111110000000DMP15-Jun-1995
SO117588SO00000000000000000000000000                                                   110001000000GSL15-Apr-1995
SO117868SO01000000000000000000000000                                                   0   00000000BBN15-May-1995
SO117948SO22100000000000000002000000                                                   0   01000000BBN15-Apr-1995
SO118198SO00000000000000000000000000                                                   111100000000DMP15-Sep-1995
SO118438SO01000000000000000000000000                                                   0   00000000DL 15-May-1995
SO118648SO00000000000000000000000000                                                   111110000000BBN15-Mar-1995
SO118708SO01000000000000000000000000                                                   011100000000DMP15-May-1995
SO118888SO00000000000000000000000000                                                   111100000000BBN15-May-1995
SO119038SO02000000000000000000000000                                                   0   00000000DL 15-May-1995
SO119118SO00000000000000000000000000                                                   111 00000000BBN15-Apr-1995
SO119248SO10000000000000000000000000                                                   100000000000BBN15-Oct-1995
SO119398SO00000000000000000000010000                                                   0   01000011DL 15-May-1995
SO119528SO00000000000000000000000000                                                   100100000000DL 15-Jun-1995
SO119678SO01000000000000000000000000                                                   0   00000000MCP15-Mar-1995
SO119788SO12100000000010000000000000                                                   0   00000000ABW15-Feb-1995
SO119808SO12000000000000200000000000                                                   0   10000000DL 15-May-1995
SO120008SO 2000000000000000000000000                                                   0   00000000ABW15-Mar-1995
SO120218SO20000000200020000002001000                                                   0   01000000TBL15-Apr-1995
SO120378SO11110000010001201100011000                                                   0   00001111MCP15-Mar-1995
SO120498SO00000000000000000000000000                                                   100000000000TBL15-Apr-1995
SO120548SO00000000000000000000000000                                                   111100000000TBL15-Mar-1995
SO120658SO01000000000000000000000000                                                   0   00000000TBL15-May-1995
SO120768SO01001000000000000001000000                                                   0   00000000ABW15-Feb-1995
SO120828SO00000000000000000000000000                                                   101001000000BBN15-May-1995
SO120988SO00000000000000000002000000                                                   0   01000000ABW15-Feb-1995
SO121018SO02000000000000000000000000                                                   0   00000000DL 15-Aug-1995
SO121148SO00000000000000000000000000                                                   111000000000MCP15-Mar-1995
SO121228SO01000000000000000000000000                                                   0   00000000MCP15-Apr-1995
SO121508SO00000000000000000000000000                                                   100100000000BBN15-Apr-1995
SO121758SO00000000000000000000000000                                                   111100000000BBN15-Mar-1995
SO121978SO01000000000000000000000000                                                   0   00000000BBN15-Feb-1995
SO122098SO03000000000110000000000000                                                   0   00111111TBL15-Sep-1995
SO122258SO00000000000000000000000000                                                   100000000000TBL15-Apr-1995
SO122618SO00000000000000000000000000                                                   111000000000DMA15-Jun-1995
SO122728SO00000000000000000000000000                                                   111101000000DL 15-Mar-1995
SO122868SO23200011100011000000301211CHILD SAYS SHE HAD INTERCOURSE WITH 9 YEAR OLD. DR.0   00000111TBL15-Sep-1995
SO123068SO03000000000000100000000010                                                   0   00000000DL 15-Apr-1995
SO123198SO02000000000010000000000000                                                   0   00000000BBN15-Apr-1995
SO123278SO00000000000000000000000000                                                   101100 00000GSL15-Mar-1995
SO123318SO02011000000000000000000000                                                   0   10000000TBL15-Apr-1995
SO123438SO02000000000000000000000000                                                   0   00000000DL 15-Jul-1995
SO123558SO22000000000000000000000000                                                   0   00000000BBN15-Mar-1995
SO123648SO00000000000000000000000000                                                   111100000000BBN15-May-1995
SO123888SO20130010000000000001101001ORAL SEX WITH YOUNG MALE NEIGHBOR                  0   01011111GSL15-Jun-1995
SO123928SO02000000000000000000000000                                                   0   00000000BBN15-Oct-1995
SO124348SO00000000000000000000000000                                                   111100000000ABW15-Feb-1995
SO124418SO01000000000000000000000000                                                   0   01000000ABW15-Feb-1995
SO124578SO00000000000000000000000000                                                   111000000000BBN15-Mar-1995
SO124628SO00000000000000000000000000                                                   100101000000ABW15-Mar-1995
SO124738SO00000000000000000000000000                                                   101100000000DL 15-Jun-1995
SO124858SO03100000000000000000000000                                                   0   00000000DL 15-Aug-1995
SO125038SO01000000000000000000000000                                                   0   01000000LTP15-May-1995
SO125118SO00000000000000100000000000                                                   0   00000000TBL15-Oct-1995
SO125248SO02000000000000000000000000                                                   0   00000000BBN15-Apr-1995
SO125398SO00000000000000000000000000                                                   111100000000BBN15-Mar-1995
SO125468SO00100000000000000000000000                                                   0   00000000BBN15-Mar-1995
SO125528SO00000000000000000000000000                                                   111000000000BBN15-May-1995
SO125678SO00000000000000000000000000                                                   101101000000BBN15-Apr-1995
SO125788SO00000000000000000000000000                                                   100000000000BBN15-Mar-1995
SO125808SO00000000000000000000000000                                                   111000000000BBN15-Mar-1995
SO125958SO02000000000000000000000000                                                   0   00000000BBN15-May-1995
SW200108SW00000000000000000000000000                                                   110100001111E A15-Jan-1997
SW200358SW01100000000000000001000000                                                   0   00001001CAW15-Nov-1996
SW200518SW23100000100000000000000000                                                   0   00001100CAW15-Nov-1996
SW200688SW10000000000000000000000000                                                   111100001111CAW15-Oct-1996
SW200798SW10000000000000000001000020                                                   0   00001111CAW15-Oct-1996
SW200848SW03000000000000000000000000                                                   0   00000000STB15-Jul-1996
SW200968SW13000000000000000000000000                                                   0   11010100KSP15-Oct-1996
SW201038SW01000000000000000000000000                                                   0   01000000CAW15-Jan-1997
SW201398SW21000000000000000000000000                                                   0   01010100EEB15-Oct-1997
SW201468SW01000000000000100000000000                                                   0   00000000STB15-Jan-1997
SW201788SW22210000000100000000000001KISSING BOYS @ BOYS AND GIRLS CLUB                 0   00101111JMM15-Aug-1996
SW201958SW00000000000000000000000000                                                   111101000000JMM15-Aug-1996
SW202158SW22200000000000000001000000                                                   0   00000000GML15-Aug-1996
SW202288SW11000000000000100000000000                                                   0   01001111KSP15-Mar-1997
SW202308SW130 00 0000001001000031000                                                   0   00001111KSP15-Oct-1996
SW202568SW 0000000000000000001000000                                                   0   01010000JMM15-Aug-1996
SW202638SW01000000000000000000000000                                                   0   00001110AAM15-Aug-1997
SW202748SW33000000000000000001000000                                                   0           EEB15-Oct-1997
SW202898SW00000000000000000000000000                                                   110110000000KSP15-Oct-1996
SW202918SW03000000000000000000000000                                                   0   00000000GML15-Aug-1996
SW203098SW11200000000000100000000000                                                   0   11000011STB15-Jul-1996
SW203258SW00000000000000000000000000                                                   111100000000CAW15-Nov-1996
SW203338SW00000000000000000000000000                                                   111100000000CAW15-Nov-1996
SW203408SW00000000000000000000000000                                                   111101001111CAW15-Feb-1997
SW203588SW02200000000000000002000000                                                   0   01010000EEB15-Jan-1998
SW203728SW11000100000000000000010000                                                   0   00000000ZF 15-Oct-1997
SW204068SW133 0000300030 0000 020000                                                   0   0   0010STB15-Jan-1997
SW204198SW01000000000000000000000000                                                   0   00000000CAW15-Feb-1997
