EAEA40015                                                                                                                                                                                                                                                                                                                                                                                     FEAR OF PUBLIC SPEAKING                                                                                                                 12101001000100002010000002000100000000010000000000000000001000000001100010000001000110111000000010001                                                                  01000100000000102001
EAEA40015                                                                                                                                                                                                                                                                                                                                                                                                                                                                                                                             180000020002000220000001000002000000000000000000000000000000000000022 2000000200000200200020000020002                                                                  00000200 00001222001
EAEA40056AIR BORNE ALLERGIES               GOING HOME WHEN AT SCHOOL         DOGS                              INIMAGINE I HEAR PHONE & PEOPLE WA                                  WATER WHEN IN WIND                                                                                   IMITATING MOVIES SCENES                                             NAPS                              MUMBLE                            TOYS                                                                THINK OTHERS SAID THINGS THEY DIDN12221002111111212120000000000110000000000110010011100001001111100001111111100001010111111001010111101FALLING ASLEEP DUE TO THOUGHTS                                    11100111011101111111
EAEA40056                                  " BECAUSE MY HOMEBOY PASSSED AWAY"                                                                                                                                                                                                                                                                                                                                                                                                                                                         18000000112000001020100000000000000000001000011000000000000000000002210201001200010010202000001220101                                                                  11110120011001222012
EAEA40091                                  I DON'T KNOW                                                                                                                                                                                                                                                                                                                                                                                                                                                                               12001001001000000000000100000200001000010000000000100000001100000002100010000000000200000000000020001NOT TIRED                                                         00000102000001122000
EAEA40108ALLERGY TO GRASS                                                                                                                                                                                                                                                                                                                                   SLEEPING IN IN AM                                                                                                                                                         12011202010101011100110112200200000001102020000011110000001002110001211001000000001101102100001012101NIGHTMARES WAKE ME UP                                             11001222100001012001
EAEA40108SEASONAL                                                                                                                                                                                                                                                                                                                                                                             PRONUNCIATION OF WORDS            ME DOG                                                                                                18121202120111001100100101000000110101211011001010101010101101010101100201001001011200112001001012100TROUBLE FALLING ASLEEP                                            11201022100101211001
EAEA40129                                                                                                                                                                                                                                             PICK SKIN ON FINGERS              KEEP ON SINGING A SONG                                                                                                                  TOYS                                                                                                  12001002120100002100100011000200020001100000020000200000000000000012200000100000010000201001000021002                                                                  21100200000001222000
EAEA40129                                                                    SNAKES                                                                                                                                                                                                                                                                         SLEEPING FOR 7 HOURS                                                                                                                                                      18000002000020000020100000000220000000101000000010201021000000000002220022000200021102101000000010101SOMETIMES HE CAN'T SLEEP AT NIGHT                                 10100102010000111000
EAEA40141                                  ABOUT MY SON                      ATG HOME                                                                                                                                                                                                                                                                                                                                           BOOKS                                                                                                 18101011111101111000000000000110000000000000010000100010001000100001100100010101011100101001000010001AT NIGHT TIME                                                     10000111011001111001
EAEA40157                                  THINGS I AM LOOKING FORWARD TO                                                                        LEG SHAKESS                                                                                                                                                                                                DAY                                                                 TOYS OR CLOTHES'                                                    IDEAS THAT OTHERS DON'T UNDERSTAND12101002011110002000010000000200000001000000022100000011000000000002110010001100011201102001010122001I STAY UP TO WATCH TV                                             10100211000102222110
EAEA40157                                  WATCHING A MOVIE                                                                                      EYES OR LEGS                                                                                                                                                                                               SLEEP WHEN I DO NOT HAVING TO DO                                    BATTERIES, POCKET BOOKS, SHOES                                      DEATH                             18111111011120002010000100100220000000000001021110101022201002000001121000000100011101101001010010102SLEEPLESS NIGHTS                                                  10000201020002212100
EAEA40185                                  HOW LONG I'LL BE IN DETENTION                                                                                                                                                                                                                                                                                    TAKE NAPS                                                           PENNIES                                                                                               12001002001000001000000000000200000001010000011002100001001000000002200100000000020101202001000020001                                                                  00000220020002222000
EAEA40185                                  WORK AND SCHOOL                                                                                                                                                                                                                                                                                                                                                                                                                                                                            18000001201000002000000002000200000000001010000000210021100000000002100100000101011120102000000020002                                                                  10100120010002212000
EAEA40235DUST                              VOTING                            THINGS THAT BITE                  SOMEONE CALLING MY NAME           MY HANDS SHAKE A LOT                                                                                                                   CONSTANT NAIL BITING                                                SOMETIMES I TAKE CAT NAPS                                           OLD WINTER COATS                  TALK OUT LOUD TO MYSELF                                             1802120101100001211000000100021 011000000111021110111000012000100002221001100201020111201002201120101SOMETIMES I WAKE UP FOR NO REASON                                 20200101111000222002
EAEA40247                                                                                                                                        SHARP PAIN IN NECK WHEN NERVOUS                                                                                                        MISTAKES THAT I FORGET TO FIX                                       TAKE NAPS, SLEEP LONG AT NIGHT                                      PAPERS-SCHOOL, DRAWINGS, ETC.                                                                         12100002010000001000000000010200000000000001001110200000001000100001100110100100020102201001000111001                                                                  00000220000001122011
EAEA40247                                                                    DOGS                                                                                                                                                                                                                                                                                                                                                                                                                                                     18001002000000002010000000110220000000001000001001100000000000000002200200000200020100202000000120002                                                                  00110220000002122000
EAEA40251                                  WORRIED ABOUT BEING  PUNISHED                                                                         WIGGLE FEET WHEN NERVOUS                                                                                                                                                                                   SLEEP IN IN MORNING                                                 CLOTHES THAT DON'T FIT ANYMORE                                                                        12001101111110011120101110000100110000101002122101100101001100200001100100000201011101101001001111002                                                                  11000110001001111001
EAEA40251                                  HER FATHER AND YOUNGER SISTER     SNAKES SPIDERS                                                      EYE JUMPS                                                                                                                              TELLING PEOPLE THE SAME THING OVER                                  AFTER WORK SHE FALLS ASLEEP       WHEN SHE'S NERVIOUS               SOMETHING SOMEONE WROTE HER. SHOES                                                                    18002000211100102120201102020220010000102010111111100111200000000002200200100102022111212002001112002                                                                  11000200011201202012
EAEA40304GRASS, DUST,                                                                                                                                                                                                                                 PICK MY SORES SCABS                                                                                   AT NIGHT                                                            PAPERS, OLD SCHOOL WORK                                                                               12221202010002021000200001000200002000000000000001000020200000100011110000002200012102201001001010002                                                                  10101200010101111001
EAEA40304                                                                                                                                                                                                                                                                                                                                                                                                                                                                                                                             18000202002000012000000000000200000000000001000000100010100000100002200100000000010200101000001111002                                                                  00100220000001111011
EAEA40312                                  MONEY                                                                                                                                                                                                                                                                                                                                                                                                                                                                                      18000001011000001010000000000000000000000001000010000000000100000000100100000100000100001000001111100                                                                  00110120000002222000
EAEA40353                                                                                                                                                                                                                                                                                                                                                                                                                                                                                                                             18000002000000002000000000000200000000001010020000100000000000000002200100000200021000201000000121102                                                                  00100100000001212000
EAEA40399CATS                              SONG GOES THROUGH MY HEAD         PIT BULLS, MEAN DOGS                                                                                                                                                                                                                                                                                                                               CANDY                             MAKING WEIRD NOISES                                                 12110202111000101100000000010211100110010011101001000020000000110002201001000100010100102001100021011WHEN I HAVE A HEADACHE                                            01000211001002212010
EAEA40399SEASONAL, PETS                                                                                                                                                                                                                                                                                                                                     DURING THE DAY                                                                                                                                                            18020202100000002000000000000200010000000001000000100000010000100002200100000100020001202000000020002                                                                  00000210000002222011
EAEA40401                                  WORRY ABOUT MY MOTHER DYING                                         HEEAR THEM CALLING ME UP IN MY ROOMY HEAD                                                                                                                                REPEAT OTHER  PEOPLE'S WORDS      ANIMALS LIKE SNAKES               NAPS                                                                TRASH                             CAN'T ANSWER                                                        12102002211221012010211011111100212220120210201120010111010000000001100001101111011101102001200212001FALLING ASLEEP                                                    00011212020001112001
EAEA40414                                  MY GRANDMOTHER'S HEALTH (IN HOSPITMY NEIGHBORHOOD-PEOPLE WITH GUNS                                    LEG TWITCHES                                                                                         PICK MY SORES                     REPEAT MY DREAMS                                                    NAPS DURING DAY                   TROUBLE WITH LONG VERBS                                             PLAY VIDEO GAMES TOO MUCH                                           12101212012220112022011112020222010000102002122210201100001101110112210010211000111001122100101021112TROUBLE STAYING ASLEEP                                            20100211101002222020
EAEA40414                                                                    BLACK CATS!!!                                                                                                                                                                                                                                                                                                                                      ANYTHING                                                                                              18100101010000002010100001000210010000001010101000100000001100100002200110000000011100101001000020102                                 ALCOHOL                          10000220000012212000
EAEA40422FRESH FRUIT                       WORRY ABOUT MY DAD                                                  HEARD SOMEONE CALLING MY FRIEND                                                                                                        PICK AT MY SORES                  SAYING OR THINKING THE SAME THING                                                                                                                                                                           SOME THINGS I THINK PEOPLE THINK  12121002211100111110100010110100100011101110111000111001011000100011111101100100021110102000011111201WAKE UP SOMETIMES WHILE ASLEEP                                    10100121011001211000
EAEA40422NOT SURE                          EVIL THOUGHTS                     SNAKES                                                              I DON'T KNOW SPECIFICALLY                                                                                                                                                                                                                    TALK TOO FAST                                                       TALK TO MYSELF                    CANNOT DESCRIBE                   18011102111100001110010010110110100000101011011101100000000000000001100201000200020100212000111211101                                 SMOKE MARIJUANA                  1011010010011       
EAEA40436                                                                    DARK ALLEYS                                                                                                                                                                                                                                                                                                                                                                                                                                              12000001000000001000000001000110000000000000000000100000011020100002200000000000010000000000000000001                                                                  00000100000001122000
EAEA40436                                                                                                                                                                                                                                                                                                                                                                                                                                                                                                                             18000000000000002020000001020000000000202010000000200000000000100102200200000200020000202000000020202                                                                  00210200100000022000
EAEA40450I DON'T KNOW, SOME TREES, PERFUME                                   DOGS, TO GO FAR PLACES W/OUT PAREN                                  RUBBING MY FINGER AND THUMB                                                                          PICK AT MY HANDS BECAUSE OF MY                                                                        SLEEP MORE AT NIGHT AND MORNING                                     CLOTHES I DON'T NEED                                                                                  12020001010000010000010110000120000000001000100111100000101000000011200110001100020212201101001111001TO MUCH NOISE OUTSIDE                                             10200111000201111010
EAEA40450CATS,DOGS,FLOWERS,ECT                                               DOGS                                                                MY LEGS                                                                                                                                                                                                    WORKERING LATE AT NITE                                              SHOES                                                                                                 18021201000000001100000000100210010000000010100101100000000000000001210200000000020101102001001120101                                                                  00100210000101112010
EAEA40475CATS SOAPS                        NOT HAVING A JOB                  ANIMAL LIKE LIONS                                                                                                                                                                                                                                                              I SLEEP A LOT DURING THE DAY      I GOT LISP                        I KEEP A LOT OF STUFF, LIKE A ROCK                                                                    18121002211110001000100000010210000000001010110001100000000000000001110001000200011011212001001121202                                 DRINK                            11210100100111222010
EAEA40497                                  BOYS                              SNAKES                                                                                                                                                                                                                                                                         I SLEEP ALL NIGHT, THEN 12-6PM    I SAY CERTAIN WORDS FUNNY                                                                                                               18002002011000020110100000000120001000000001021000000020000000020001111101010100001101122200001020102                                                                  10000120011201111011
EAEA40505                                                                                                                                                                                                                                                                                                                                                                                                                                                                                                                             18102001211011011100100101010200000010101000000000100011100000000001200100000100011020002000001110102                                                                  20100100000100202001
EAEA40518DUST AND POLLEN                   SCHOOL                            NEW PLACES                                                                                                                                                                                                                                                                                                                                                                                                                                               18021201011110002000000001010110010000000001000000000000000000000001100100000001010100001000000010001                                                                  00000100000001221000
EAEA40526                                                                                                                                                                                                                                                                                                                                                                                                                                                                                                                             12000002001000002000000000000200100000000001000000100000000000000002200110000000010100102000000020001                                                                  00000200000002222000
EAEA40526                                                                                                                                                                                                                                                                                                                                                   SLEEP DURING THE DAY                                                                                                                                                      1800000100101210201000000000010 100110000002001001110102100000000001110111000001000201201001120111111                                                                  00010101021002221021
EAEA40560                                                                                                                                                                                                                                                                                                                                                                                     PRONOUNCING NEW WORDS                                               I EAT DIFFERENT THINGS                                              12002202222120202020000100000200001000122000022211210000101000000002100100010201010110212000100021102                                                                  10000210000102212010
EAEA40560NOT SURE                          THINKING ABOUT A ARGUMENT                                                                             SHAKING OF THE HANDS OR LEGS      EYE INJURY                                                         HANDS                             THOUGHTS IN MY MIND                                                                                                                     OLD CLOTHES                       NA                                NA                                18012202112111101010000102001201101100012000122111111101110022000112211111100102020110202101111222101MIDDLE OF THE NIGHT              HAVE A BEER ON OCCASIONS         10111211011112211012
EAEA40593PENICILLIN                                                          SNAKES                                                              HANDS TWITCH                                                                                                                                                                                                                                                                                                                                                                         12111002110210001100100002101110000001010011011100200000001000000002100000001000011000102000000020002                                                                  10000100000101212000
EAEA40606                                                                                                                                                                                                                                                                                                                                                                                                                                                                                                                             12101220010000000011000000000000001000000000000010110011001100000000100101000100200010000000000000100                                                                  00101000000000000000
EAEA40619                                  PEOPLE GOSSIPING                  SNAKES                                                                                                                                                                                                                                                                                                                                             OLD CLOTHES AND SHOES                                               DOING STUFF WITH FRIENDS          18000001011010010010000000000110000001000010000010000010000000100002201100000100010000001001010110001                                                                  00100100000001111001
EAEA40631                                  PEOPLE FUSSING AND FIGHTING                                         SOUNDS-PEOPLE TALKING ABOUT ME                                      EYES GET WATERY                                                    PICK SORES ON SKIN                                                                                    SLEEP MORE AT NIGHT                                                 OLD NOTEBOOKS AND PENCILS                                                                             12001002122201212210101000101000102001010110110010101010001111100012102012000001012002201001001010100                                                                  10100000120100101001
EAEA40631                                                                                                                                                                                                                                                                                                                                                                                                                                                                                                                             18100000010000000000000000000100100010001000001000010000100000000001000100000000010000001000000000001                                                                  00110010100000000001
EAEA40643                                                                    PEOPLE THAT TRY TO TAKE MY THINGS                                   BITING MY NAILS WHEN I'M REAL NERV                                                                                                                                                                         SLEEP MORE DURING THE NIGHT                                                                                                                                               12001002000100001010000001000220100002100000122200200000000100000002100000000000020002102000000020002                                                                  01000120000201222000
EAEA40643                                  WHY MY MOTHER DIED                                                                                                                                                                                                                                                                                               I CAN SLEEP ALL DAY SOMETIMES     TROUBLE PRONOUNCING UNKNOWN WORDS                                                                                                       18001001001001101000000000000100000000000000021000100010000000000002200100000000020001112000000010102                                                                  10120100000001222000
EAEA40655CUT GRASS                                                           DOGS, TIGERS                                                        EYES TWITCH                       ITCHY EYES                                                         PICK MY FEET                                                                                                                                                              OLD TOYS AND THINGS I MAKE        TALK TO MYSELF WHEN WORKING                                         12011001010001111110001110100110100000112001111110110011011010000012210000000001011100201002100110102TROUBLE FALLING ASLEEP                                            10000101110101211000
EAEA40655CATS,GRASS                        GIRLS                                                                                                 HANDS,LEG                         EYES HURT SOMETIMES                                                                                                                                                      DAY                                                                                                                                                                       18010001011010101120000001010100010001000001001100100000011110000002201200000100000101202000000010101                                                                  11110110000000121010
EAEA40664                                                                                                                                                                                                                                                                                                                                                                                                                                                                                           LIFE EXPERIENCES                  18000000000001002100000001010200000000000001001000100011000000000002200100000100020100202000011010102                                                                  00000200000001102010
EAEA40692SEASONAL                          HOMEWORK PROBLEMS                 LOOSE DOGS AND CATS                                                 MY ARM JUMPS                      BLURRED VISION IN ONE EYE                                                                                                                                                DAYTIME                                                             TOOTHPICKS, BATTERIES             WEAR GLASSES W NO LENSES          LIKE GUITAR HERO ON JETSKI        18020202101000002010000002000210010000000000020110200011000010000002201100000001021021201001111021102                                                                  10000200100102202000
EAEA40724                                                                                                                                                                                                                                                                               PREMARITAL SEX                                                      DURING THE DAY                                                      SEASONAL CLOTHING                 PLAY IN TRAFIC                    SOME OFF THE WALL THOUGHTS        18101012011000001010000100200100000000101010110012100010001100000002101010101000122121202001111121202WHEN IM TOO TIRED TO SLEEP                                        11211111100101221011
EAEA40739POLLEN                            GAME POINTS FOR GAMES I PLAY                                                                                                                                                                                                                                                                                     TAKE A NAP AFTER SCHOOL BEFORE                                      COMBS, VIDEO GAMES, CLOTHES       CLIMB ON THE ROOF                                                   12112000002000001110000000000200000000000000000000000000011100000001111111000100021111202001100010001                                                                  01100110000000111011
EAEA40739                                                                                                                                                                                                                                                                                                                                                                                                                                                                                                                             18001002000001102010000001101201011101011002011011201010212101000002111201011201020110101000001211001                                                                  00100220011002222011
EAEA40746                                                                                                                                                                                                                                                                                                                                                   DURING THE DAY AND LONGER AT NIGHT                                                                                                                                        12100202000000002000200000200200000000000000000000200020000000000002200020000000020022202000000020000                                                                  00000220000002022000
EAEA40746                                                                                                                                                                                                                                                                                                                                                                                                                                                                                                                             18210102000000002000000000000200000000000000000000200010001110010012200200000000021000202000000120002                                                                  20000210000002222100
EAEA40752                                                                                                                                                                                                                                                                                                                                                                                                                                                                                                                             12001001110010001000001010100100010001000000020000200000001000000000100100000000001000101010000010102                                                                  00001100100000211001
EAEA40752                                                                                                                                                                                                                                                                                                                                                                                                                                                                                                                             18000001000000002010000000000200000000000000000000000000000001000002200000000000000000102000000020002                                                                  10010010000002222010
EAEA40767SEAFOOD                                                                                                                                                                                                                                                                                                                                                                                                                                                                                                                      12010202010000002010000001000200000001000010011000200000000000000002200001000000020100202000000020001                                                                  00100210000002222010
EAEA40767                                                                                                                                                                                                                                                                                                                                                                                     CAN ONLY  SAY SOME WORDS                                                                                                                18001001010100002010000000000200000000000011000000110000000000000002100000000000020110122000000020001                                                                  00000220000002222010
EAEA40778                                  FAILURE, ANGER, SUICIDE           SPIDERS, RATS                     A VOICE                           HANDS SHAKE WHEN EXCITED                                                                                                               REPEATING WORDS, LIFE IS A CYCLE                                                                      MISPRONOUNCE SOME WORDS           BOXES, NEWSPAPERS                 TALK TO MYSELF                    "CRAZY THOUGHTS", JUMP OFF BRIDGES18102002222212212011221112121110222222122222202201220211000000100102210211202202022120222012222212222STAYING ASLEEP, SLEEPS 4 HOURS   MARIJUANA                        21221221122222222222
EAEA40780                                                                                                                                                                                                                                             PICK MY SCABS                                                                                                                                                                                                                                                                   12002001000000001100010110100100000001102010000000000000001000100012200200000100121110001000000020000                                                                  01100110100000121000
EAEA40780PENICILLIN                                                                                                                                                                                                                                                                                                                                                                                                                                                                                                                   18022002000100002010000000010200000000100000001000100010000000000002100200000200020100102000001221001                                 ALCOHOL SOMETIMES                00200120 00111212000
EAEA40795DIRT                              MOM                               DOG                                                                 FOOT                                                                                                                                                                                                                                                                                                                                                                                 12010001111100000000000010010110010001110011110111100000001001110001100000000100011010000000000010100                                                                  00000110010000111000
EAEA40800POLLEN                            DOING BAD IN SCHOOL                                                                                                                                                                                                                                                                                                                                                                  OLD TOYS & OLD BIKES                                                                                  12021002011110110110100110020100000001102010101011100000011000100001111000001101010100000001001111101                                                                  10100110000101111011
EAEA40813AIRBORNE                          FUTURE PLANS                                                                                                                                                                                                                                                                                                                                                                                                                                                                               12011001011010101100001110010100010000001010110000100011000000000001110110000000010100101000000021101                                                                  01110110011001111001
EAEA40821                                                                                                                                                                                                                                                                                                                                                                                                                       SHOES                                                                                                 18000000000000001000000000000000000000000000020000200020000000000001200200000200020020000001002022001                                                                  00000110000002111020
EAEA40849DUST POLLEN                                                         INSECTS LIKE SPIDERS                                                NORMAL MUSCLE SPASM                                                                                                                    REPEATEDLY MOVE CERTAIN THINGS                                                                                                                                            IRON CLOTHES BEFORE PUTTING AWAY                                    18020212000110102010000002000210010000000011010111110010200000000002210101200101011100201000102021102SOME NIGHT I CANT GO TO SLEEP                                     10100221010001211010
EAEA40865                                  MATH TESTS                        CROCODILES, DOGS                                                    LEGS                                                                                                                                   WASH HANDS                                                                                                                              SCHOOL PROJECTS PAPERS            MAKE GRILLED CHEESE WITH MAYO                                       12001202001000002000000000000210000000000000021100100000011000000002200110100101020010202001100020002                                                                  10100210000002222000
EAEA40865SHELLFISH                         RANDOM THOUGHTS POP INTO HEAD     STREET VIOLENCE                                                     MY EYE TWITCHES SOMETIMES                                                                            ONLY DEAD SKIN, LIKE HANGNAILS                                                                                                                                                                                                                                                  18020202121000002020000011100210010110001001022201100011002000000012211200000100021020002000002220102                                                                  10100220001002222012
EAEA40876                                  DEATH                             AFRAID OF DOGS; WILD LIFE                                           FEEL JUMPY                                                          PASSING OUT                                                                                          GLIMPSE THINGS RUNNING PAST       SLEEPS IN TIL NOON                PEOPLE SAY I TALK FUNNY           LIKE TO GET THINGS BEFORE OTHERS                                                                      12000001012000012020010011000220100001000011011210211000022000102002200000000110021102212001001220002ALMOST EVERY NIGHT                                                20000222020202222011
EAEA40876                                                                                                                                                                                                                                                                                                                                                                                                                                                                                                                             18000001000000001000000001010200000000000000000000000000000000000002201100000000021000102000000020102                                                                  00010200000001222000
EAEA40882PEANUTS                           PROBLEMS                          DOING NEW THINGS                                                    MY EYE TWITCH, MY ARM                                                                                                                  GO OUTSIDE                        SEEING THRU A PERSONALITY                                           STUMBLE OVER WORDS                TOILET PAPER, HOUSEHOLD GOODS     I WALK FUNNY                      RAPPING AND SINGING               18121202012002102020010111100220121011001012012110221111010000000002111202200111021220212001222212112RESTLESS, TROUBLE FALLING ASLEEP ALCOHOL                          10110221001112222020
EAEA40909                                  FATHER AND MOTHER, MY LIFE                                                                                                                                                                                                                                                                                                                         STUTTERING                                                          I CAN'T DESCRIBE IT                                                 180022100222010121100000101102001100000000110000101000110010000000012 0201000200020110112000100100100STAYING ASLEEP, WAKE UP LOTS                                      10100121100001111012
EAEA40917POLLEN                                                              LIONS AND TIGERS                                                                                                                                                                                                                                                               SOMETIMES TAKE MORE NAPS IN DAY                                                                                                                                           12021002100010201010100000100110110000100010021020200020001000200002200110000101021001202000000122002                                                                  10000120000002221000
EAEA40917                                                                                                                                                                                                                                                                                                                                                                                                                                                                                                                             18000001000000002100000000010200010000000001000010100000100000000002200200000000020100202000000120002                                                                  10000200000002222010
EAEA40925                                                                                                                                                                                                                                                                               WORK AND PAPERS TO MAKE IT BETTER                                                                                                       BUY STUFF I DONT NEED                                                                                 18000001000000002000000000000200000000000000010000100010100000000002200000100000010000002001000020002                                                                  10000210000102212011
EAEA40958DUST, POLLEN,GRASSES                                                SOME PLACES I NEVER BEEN TOO                                                                                                                                                                                                                                                                                                                       TOYS                              FOOD PREFERENCE ( CHEESE IN TUNA)                                   12010002110100002010000001100210000000000000011010201100000000000002200010000001020100202002200020002                                                                  10000220000002222000
EAEA40958                                  MY BOYFRIEND, IN A GOOD WAY       SNAKES AND SPIDERS                                                                                                                                                                                                                                                                                                                                                                   THE THINGS I EAT                                                    18000002001000002010000001000210000000000000000000100000000000000002200100000000010010201000100020102                                                                  10000200000002222010
EAEA40972                                  LIFE,SCHOOL,GIRLS, AND FAMILY     NOT GETTING A JOB                 MY MOTHER                         MY STOMACH AND MY HANDS                                             MY LUNGS AND HEART                                                 STOP REMERBERING THING THAT I JUST                                                                                                                                        TALK TO MYSELF CROSS MY HEART ALOTI STILL HAVE WET DREAMS           18021002112001102020100002101220102210010101111211210010020002202002200001110211011102211000220221202                                 WEED                             01120110001022222022
EAEA40986                                                                    DOGS                                                                                                                                                                                                                                                                                                                                                                                                                                                     12000002000000002000000000000210000000000000011000100021201000110002211000000000020000202000000020002                                                                  10000220000002222010
EAEA40986                                                                    DOGS                                                                                                                                                                                                                                                                                                                                               CLOTHES                                                                                               18000002000000001000000001020210000000000000010000000010000000000002200000000000010000202001000020102                                                                  00000200000002202010
EAEA40994                                                                    DOGS, CATS                                                                                                                                                                                                                                                                                                                                                                                                                                               12000000000010001000000000000220000000002000020000200010000000000002100000000000020100101000000010002                                                                  10000220000001212000
EAEA40994                                  BIG TEST COMING UP                I HATE DOGS                                                                                                                                                                                                                                                                                                                                                                                                                                              18000000101000012000000000001220000000000000010000100020000000000001100200000000020200101000000120101                                                                  20100120000001111000
EAEA41002ROACHES, FEATHERS, POLLEN, TREES  THINGS WITH FRIENDS IN SCHOOL     DOGS, CATS                        HEAR PEOPLE TALKING BUT NO ONE IS                                                                                                                                                                          BLACK SHADOWS BUT IT'S NOTHING    SLEEP IN ON DAYS WHEN WE ARE OUT                                                                      MIX FOODS TOGETHER THAT OTHER                                       12021200001010012010000000020220000001000101011000120010000000000002201000000110010101101000100020001                                                                  20100200000102222000
EAEA41002DOGS, CATS, LEAVES, POLLEN,                                                                                                                                                                                                                                                                                                                                                                                                                                                                                                  1802                                                                                                                                                                                       
EAEA41010                                                                    ANIMALS                                                                                                                                                                                                                                                                                                                                            PAPERS ,TOYS                                                                                          12001000000000002100000000010210020000001000010000100000001000000002200000000100020000202001000120002                                                                  10200200000102222000
EAEA41010                                  WHEN I SET MY MIND, I DONT STOP   CATS                              I HEAR MY FRIEND WHO DIED                                                                                                                                                                                                                                                                                        CLOTHES                           RIDE MOTORCYCLES                                                    18001001001000002100000001000220000000100100000000100000200000000002200100001000020000202001102120001                                                                  10100210000102222010
EAEA41047ANIMALS AND POLLEN                                                                                                                                                                                                                                                                                                                                                                                                                                                                                                           18011012000000002000010001000200000000000000020000100000000000000002201000000000010100101000002120102FALLING ASLEEP                                                    10100211000102212000
EAEA41051POLLEN                            MISTAKES                          CROCODILES                                                                                                                                                                                                                                                                                                                                                                           BOOKS, CLOTHES, THINGS I SAY      POWER OF POSITIVE THINKING        18111002011120002120000001000210000000000011110010200000010000000002202020000200000200202000222222202                                 ALCOHOL                          20010200100112222000
EAEA41068                                                                                                                                        EYES TWITCH                                                                                                                                                                                                SLEEP LONGER ON THE WEEKENDS      HAVE PROBLEMS SAYING "L" SOUND    OLD CLOTHES THAT DON'T FIT ANYMOREDID NOT WANT TO DISCLOSE                                            12100002000000011010000000000200000000001000001211200000001101110002200012000200020201221001200120002                                                                  00000210000001122000
EAEA41079                                                                                                                                                                                                                                                                                                                                                                                                                                                                                                                             18121000012111011110011110110120012000110021111011111021011100110111110101101111011101111000111110101                                                                  10100121110101122001
EAEA41084TREES, POLLEN                     MY AUNT WAS IN THE HOSPITAL       SNAKES                                                              EYE WILL TWITCH                                                                                                                                                                                            GO TO BED EARLIER AND TAKE MORE                                                                                                                                           12120002001000002000000000000110021000010000000120000012001000200002100010000100010101102000000011002                                                                  10000100011001212012
EAEA41084BEING CUT)NOSE (BEING OUTSIDE WHEN                                  SPIDERS, MOUSE, SNEAKES                                                                                                                                                                                                                                                        THAT'S ALL I REALLY LIKE TO DO                                                                                                                                            18021000010001012000000001000120011010000001000000100011011200210002200100000101000102001000001021001                                                                  00200110011001111021
EAEA41096CATS      SHRIMP                  GETTINGG  A  NEW  GAME                                              IN THE BASEMENT OF MY STEPMOMS                                                                        KNEE  PROBLEMS                                                     MOVIE  ACTS                       STUFF                                                                                                 OLD  CLOTHES,TOYS,AND SHOES       PERNOUNCE  WORDS  FUNNY                                             12011002002000001100100002010000100001101111000000200000010000102002211201200210021020202002101122102BECOUSE  I  WATCH TELEVISION                                      10100111000001221000
EAEA41096                                  DFIND A JOB, NOT ARGUE W GIRLFRIE                                                                                                                                                                          I PICK AT SCABS                   MY DAILY ROUTINE IS ALWAYS SAME   DECRIBES WORLDVIEW, NOT HALLUCINA                                                                     JUNK, I HAVE A JUNK DRAWER                                                                            18001001101001002110100000010100011000000001101000210110010000100011200201200210022020201001001220202V. LITTLE SLEEP, BUT FEELS RESTEDALCOHOL OCCAISIONALLY            01210122101011211011
EAEA41111                                  NEXT LEVEL IN PLAYSTATION; THINGS SOMEONE WILL HURT ME                                                MOVE LEGS                                                                                                                              TRYING TO BEAT A LEVEL IN VIDEO                                                                                                                                           I SOMETIMES DON'T DO WHAT THE     THAT I WANT TO BE A COMPUTER      121000010011110020100000110001100000100000 1000100100000001100100002100010100100010100201000111011 01                                                                  00000110000001101000
EAEA41111                                  THINKING ABOUT MY FUTURE          WALKING OUTSIDE WITH SKINNY JEANS                                                                                                                                                                                                                                              I LIKE TO SLEEP                                                                                       MY FASHION AND MUSIC I LIKE       MY BELIEFS                        18100012012011002120000000100110000000010011000001200000000000000002200100000100020201202000210020101                                                                  10020100000002222001
EAEA41124                                  THINK ABOUT SIS HAVING MORE KIDS  KOMODO DRAGON                                                                                                                                                                                              WASH MY HANDS OVER AND OVER                                         SLEEP DURING CLASS SOMETIMES                                        STORED A KNIFE FOR A FRIEND                                                                           12000002001120000020000000100210100000101000000010000000000000000002200100100000020001202001000020102                                                                  00000210010002112010
EAEA41124                                  MY DRAWING, MY RELATIONSHIP                                                                                                                                                                                                                                                    I CAN'T DESCRIBE IT IT GOES QUICK I CAN SLEEP FOR A VERY LONG TIME                                                                                                        WHEN I SEE THINGS                 18001002002000002010000110000200000000000001021020100001000000000002210200000110021102202000020020102                                                                  00110220100002222000
EAEA41152POLLEN                            WORRY IF I'M GOING TO PASS CLASSESSTRANGERS, THE DARK, SNAKES       HERE SCARY NOISES, HOWLING        BODY SHAKES SOMETIMES AROUND                                                                                                                                             PEOPLE AND THINGS FROM HORROR     SLEEP MORE IN THE MORNING                                                                             DANCE REAL CRAZY                                                    12222001002121121120010102200221101111021211121221021111102202200002101111001212011121201100101221102                                                                  11100210012202212021
EAEA41152                                  SCHOOL                            DOGS AND ANIMALS                                                                                                                                                                                                                                                                                                                                                                                                       JUST WEIRD DREAMS                 18201001011010001110000001100110000000001000010001100010200000100002101101000101010100101000011020101TROUBLE FALLING ASLEEP                                            00100111000002222011
EAEA41178                                                                                                                                        MY LEGS SHAKE, AND MY EYES TWITCH                                                                                                                                                                                                                                                                                TALK TO PEOPLE I DONT KNOW                                          18000001000000002000000000000200000000000000020200100000010000000002200000000000020000202000100020002                                                                  10100210000002212000
EAEA41195                                                                    RATS                                                                EYES TWITCH                                                                                          PICK FINGERS; CUTICLES                                                                                SLEEP DURING CLASS                                                                                                                                                        12102002110110001101121111110110100001121010121111110101011001110011111000001102021201101010001111202                                                                  11101100000101111011
EAEA41195                                  MY FATHER'S DEATH                                                                                                                                                                                                                                                                                                DURING THE DAY                                                                                                                                                            18001001002122011100021200000200000001000011021000100011000000000002201211001201021221101000001011202STAY UP ALL NIGHT, SLEEP ALL DAY                                  10110201001102212001
EAEA41207                                  FRIENDS AND FAMILY                                                                                                                                                                                                                                                                                                                                                                                                                                                                         12001001001000001100011100000200000001110000120000000010000100210000110010001000010000100000001100001                                                                  20000200010000122000
EAEA41207                                                                                                                                                                                                                                                                                                                                                                                                                                                                                                                             18200002000000002000000000000200000000000000010000000000000000100002000000000000000000001000000000000                                                                  10000200000000012001
EAEA41242                                                                                                                                                                                                                                                                                                                                                   DURING  THE DAY                                                                                                                                                           12000002000000002000000002000200000000010000020020200000001000110002000000000000020202202000000020002FALLING                                                           22200222000002222020
EAEA41242                                                                                                                                                                                                                                                                                                                                                                                                                                                                                                                             18101002010000002100100000020100000000000010000000000010000001100002200100000000010000002001000020000                                                                  10000100000001212020
EAEA41274DUST, BEES, MOSQUITOS                                                                                 VOICES THAT TELL ME NOT TO DO     LEGS SHAKE WHEN I AM NERVOUS                                        GETS DIZZY AND STOMACH HURTS                                                                                                           TAKES A NAP WHEN I GET HOME FROM                                    FAVORITE TOY; TEDDY BEAR;                                                                             12120002010001002020100001101200101001020201010120101101012200011002200011000101020201202001000120002                                                                  00100100011001211011
EAEA41274                                                                                                                                                                                                                                                                                                                                                                                                                                                                                                                             18000001000000001020100000000200002000122001020010000011000000000000200100000002020000102000000200002                                                                  01200220000002112011
EAEA41289                                                                    DOGS THAT ATTACK                                                    SHOULDER JUMPS                                                                                                                                                                                             FALL ASLEEP IN THE CAR, TAKE NAPS MISPRONOUCES SOME WORDS                                                                               DIDN'T WANT TO SAY, HAPPENED 1X   12102001210210000210211220200121220001022020121201210021011000100102211021000200101201121000012022102CAN'T FALL BACK ASLEEP AFTER WAKE                                 10001211120001220010
EAEA41289                                  GIRLS                             SWIMMING POOL                                                                                                                                                                                                                                                                                                                                                                                                                                            18001001211000002000000011010210010001000010010000200010000000000002200110000100020000100000000011102                                                                  10000220000001222010
EAEA41325POLLEN, DUST, CIGARETTES                                                                                                                                                  THEY HURT                                                                                                                                                                                                                                    BOOKS                                                                                                 12010001000000001000000000000200000001000000010000000100022010100001200000000000010100102001000020002                                                                  00000200000001222000
EAEA41325                                                                                                                                                                                                                                                                                                                                                                                                                                                                                                                             18000002000100002100000000000200000000001000000000200000000000000002200110000000020000002000000010001                                                                  00000100000001111000
EAEA41333                                                                                                                                                                                                                                                                                                                                                                                                                                                                                                                             12200001000000001000000000000100001000000000000000100000000000000001000010000000000000000000000010000                                                                  00100100010000001000
EAEA41333                                                                                                                                                                                                                                                                                                                                                                                                                       MONEY CLOTHING                                                                                        18001002000000001000000000100200000000000000010000200000000000000002201201000100000100101001000020001                                                                  10000200000002222000
EAEA41361                                                                    I AM SCARED OF SPIDERS AND SNAKES                                                                                                                                                                                                                                                                                                                  I'LL PUT UP GLUE IF I DONT NEED IT                                                                    12001002100000002010000101000210010001000001020000200010100001010002201000000100020000202002001020001                                                                  00000210000102222010
EAEA41361SEASONAL AND SOME FOOD ALERGIES                                     AFRAID OF BUGS, BRIDGES, AND WATER                                                                                                                                                                                                                                                                                                                 I KEEP OLD TESTS OR ASSIGNMENTS   I READ BOOKS IN REVERSE ORDER     I TEND TO BE OVERLY OPTIMISTIC    180120021100000020101000010012200000010000000200011000101011001100022012000000000 0020202002211020101                                                                  20000200000102122000
EAEA41372FLOWER                                                                                                                                                                                                                                                                                                                                                                                                                                                                                                                       12021202200000002000000000000200000000020000000001100000002000000002200000000000020000202000000010002                                                                  00000220000002222000
EAEA41372SEASONAL                          FINISHING SCHOOL                  REPTILES                                                            LEGS AND FINGERS WHEN NERVOUS                                                                                                                                                                                                                STUTTER                                                             LIKE DYING MY HAIR                                                  18020202002001002000000001000220000000000001010100100001012000000002200100000100020100212000100120002                                                                  10000220000002222000
EAEA41386                                                                    SHARKS                                                              ARM TWITCHES                                                                                                                                                                                                                                                                                                                                                                         12001002010000001100000001110110000000000001101111100000000001000001100000000100010110102000000110001                                                                  10010210000001101000
EAEA41386                                                                                                      HEAR SOUNDS BEFORE FRIENDS DO                                                                                                                                                                                                                                                                                                                                                                                          18000002010000002010100001000100000000000100010000200000000000000002200201000000020020201000001020102                                                                  10000100100002222010
EAEA41394                                  WORRY ABOUT GRADES, IF I'LL PASS                                                                                                                                                                                                                                                                                 ON RAINY DAYS                                                       CLOTHES                                                                                               12001000211110001010100000000100000001000000000010111011101100100001101100000000000101101001000020001TROUBLE FALLING ASLEEP                                            10000101000101111001
EAEA41394                                                                                                                                                                                                                                                                                                                                                                                                                                                                                                                             18000001100000002000000000000200000000000000000000000000100000000002200100000000010000101000000020001                                                                  10000200000001222020
EAEA41419                                  FAMILY                                                                                                                                                                                                                                                                                                                                             STUTTERING AND PRONUNCIATION                                                                                                            18101002011000012010100001001200000000000010011000000000000000000002200100000100010010112000000020002                                                                  20000200000002222012
EAEA41427                                  DEATH                                                                                                                                                                                                                                                                                                                                                                                                                                                                                      1200    202101002010010000000100000001102010020012110000001001000000100202000101000020000000001200110TROUBLE FALLING ASLEEP                                            02000012001000100011
EAEA41431                                  MY BOYFRIEND                      ANIMALS, PEOPLE                                                     MY BACK TWITCHES                                                                                                                       DANCING, SAYING THINGS                                              DAY                               STUTTERING                        FCLOTHES, SHOES, I KEEP ALL MY STU                                                                    18102020122011021100201111210220011010221022210112220210001000000002201100101101022001222001002210202I TOSS AND TURN                                                   20220221002202222012
EAEA41443                                                                    POSINOUS ANIMALS; ALLEYS AT NIGHT;                                                                                                                                                                                                                                             SLEEPS 10 HOURS A NIGHT                                             BABY TOYS;BROKEN TOYS;SMALL SHOESS                                                                    12001001010210001000110001100210000001100010010010100000011102110002200021000101121101201001001111202                                                                  11201110000001211001
EAEA41443                                                                                                                                                                                                                                                                                                                                                                                                                                                                                                                             18101001111001001110000121010200010000002011100100200000000000000001110100000200120002202000000211201                                                                  01120200100012222011
EAEA41455ASTHMA                            MY FUTURE                                                                                                                               BLURED VISON                                                       FACE                                                                                                  I LIKE TO SLEEP                                                                                                                                                           18020202011000001010000101000200000000000001011000000010101011000011101200000001010001000000001110001                                                                  00000100100001111000
EAEA43011SOME SEAFOOD                                                        BIG DOGS, CATS                                                      KNEE                                                                                                                                   KEEP TALKING WHEN TOLD TO STOP                                      IN DAYTIME                        STUDDERING                                                                                                                              12111102020201011120101022110121110001101011101110100101000000000101111201201200011101112000001110102                                                                  21201120100101111011
EAEA43011                                                                                                                                                                                                                                                                                                                                                                                                                                                                                                                             180002010102000011101010 11001000000000000120100001000000000000000012 0200000200010000102000002110101                                                                  10100100 00001111010
EAEA43024                                  THINKING ABOUT MUSIC IN MY HEAD   SNAKES                                                              HANDS SHAKE                                                                                                                            WHEN I DO SOMETHING FUNNY TO MAKE                                                                                                       TOYS GAMES                        MIX STUFF TOGETHER AND EAT IT                                       12001012111110001110100000010010000001101011010100110000000000010001100111100100011110101001100010002                                                                  21100010000101220011
EAEA43024                                  DRIFT OFF                                                                                             WHOLE BODY MOVES                                                                                                                       REPEAT SELF                                                                                           STUDDER AT TIMES                  ANYTHING NOT IN USE                                                 TALKING OUT OF THE ORDINARY       18000001022100001020000000000000000001000001020100100000000000000002102101100100020020112002010110001CAN'T STAY SLEEP AT NIGHT                                         00000102000001111010
EAEA43039                                  WHEN SOMEONE SAYS SOMETHING HURTF PITBULLS;MOVIES(SCARY);                                             MY EYE; LEG WHEN FEAR NERVOUSNESS                                                                                                                                                                                                            PROUNCIATION                      BARBIE DOLLS;OLD MARKERS;JUNK STUFISOLATE SELF;DO ACTIVITY FOR LONG                                   12000002001001002010000102001220020000020012022210101012002100110002200001001000020220122002100120002CAN'T FALL ASLEEP;TWO HOURS MAX                                   10101222001001222020
EAEA43039                                                                                                                                        EYE JUMP                                                                                             SORES                                                                                                                                                                                                                                                                           18121012010020002110100001100200000000002011021110100010101100110022211110010000022120202000001120102ONLY GET 3 HOURS OF SLEEP        FRIENDS                          10220202100112222011
EAEA43052                                  MATH                              SNAKES                                                                                                                                                                                                                                                                         NAPS                                                                MY BARBIE STUFF                                                                                       12111201001000001000010000000220010001001000100000100000100000000001201110000100010201102001000011102                                                                  20000110000001212001
EAEA43052SEASONAL                                                                                                                                                                                                                                                                                                                                           SLEEPING IN WHEN NOT WORKING                                                                                                                                              18020201000000001000100000100200010000001000100000200012100000000002200200000100020202202000001020202                                                                  10100220220002221001
